:020000040000FA
:10000000900D002049010000570100005901000037
:1000100000000000000000000000000000000000E0
:100020000000000000000000000000005B01000074
:1000300000000000000000005D0100007D4D000098
:10004000CD4E0000D14E0000CD31000051320000F5
:10005000C931000005420000212D0000E52F0000FD
:100060008D520000D916000011150000A31B0000DE
:10007000E9550000314400000000000000000000CD
:100080000000000000000000000000000000000070
:100090000000000000000000000000000000000060
:1000A0000000000000000000000000000000000050
:1000B0000000000000000000000000000000000040
:1000C00000F002F800F030F80CA030C8083824180E
:1000D0002D18A246671EAB4654465D46AC4201D180
:1000E00000F022F87E460F3E0FCCB6460126334282
:1000F00000D0FB1AA246AB4633431847CC5A000047
:10010000EC5A00000023002400250026103A01D3F9
:1001100078C1FBD8520700D330C100D50B607047BF
:100120001FB51FBD10B510BD01F066F91146FFF7F0
:10013000F7FF05F0C5FA01F07EF903B4FFF7F2FF0F
:1001400003BC01F0B3F90000094880F308880948AE
:10015000804709480047FEE7FEE7FEE7FEE7FEE7C7
:10016000FEE7000005480649064A074B70470000B5
:10017000900D0020C54E0000C10000009007002037
:10018000900D0020900900209009002010B5202A31
:1001900004DB0146203A9140002010BD914020230D
:1001A0009C1A0346E3401943904010BD434351431A
:1001B00030B55C18010C130C0D4692B25D4380B251
:1001C00051432C19054655430A0C09044D19624147
:1001D0005843010C00044019514130BD70B5002551
:1001E0002C46AD1A9C4112DA00252C462D1A8C4162
:1001F00002DA01F016F870BD002440428C4121461D
:1002000001F00FF8002440428C41214619E00025FE
:100210002C462D1A8C410ADA002452429C41234676
:1002200000F0FFFF002440428C41214670BD0024B5
:1002300052429C414042234600248C41214600F01A
:10024000F0FF002452429C41234670BD01E004C0EF
:10025000091F0429FBD28B0701D50280801CC90726
:1002600000D00270704700290BD0C30702D0027083
:10027000401C491E022904D3830702D50280801C3A
:10028000891EE3E70022EEE70022DFE700220309F0
:100290008B422CD3030A8B4211D300239C464EE0A1
:1002A00003460B433CD4002243088B4231D303095D
:1002B0008B421CD3030A8B4201D394463FE0C3090F
:1002C0008B4201D3CB01C01A524183098B4201D327
:1002D0008B01C01A524143098B4201D34B01C01A12
:1002E000524103098B4201D30B01C01A5241C3088A
:1002F0008B4201D3CB00C01A524183088B4201D3F9
:100300008B00C01A524143088B4201D34B00C01AE4
:100310005241411A00D201465241104670475DE0F9
:10032000CA0F00D04942031000D34042534000227C
:100330009C4603098B422DD3030A8B4212D3FC2225
:10034000890112BA030A8B420CD3890192118B42A4
:1003500008D3890192118B4204D389013AD09211BA
:1003600000E08909C3098B4201D3CB01C01A524175
:1003700083098B4201D38B01C01A524143098B423E
:1003800001D34B01C01A524103098B4201D30B0127
:10039000C01A5241C3088B4201D3CB00C01A52414C
:1003A00083088B4201D38B00C01A5241D9D2430833
:1003B0008B4201D34B00C01A5241411A00D2014670
:1003C000634652415B10104601D34042002B00D5DA
:1003D0004942704763465B1000D3404201B500209C
:1003E000C046C04602BD704770477047F0B50C4626
:1003F000871A9C410D46861A9D4103D2C01BA1411C
:10040000D21963410D0D1F0DC94EEC1BAE435CD0DC
:100410007F057F0D0026002F51D02D05AC46A94346
:10042000DD020123ED0A1B051D4320231B1B24D4E1
:100430001746E740381871412F46E740CC199D40D8
:100440002818314661410C0D27D161449A4013D5DB
:100450000023401C594152000ED1400840000122A7
:100460004B005205D34207D305204007C14201D5B6
:10047000B04900E0B0493046F0BD6B00002A00D022
:1004800001229A181F23203C1B1B01D5002302E0E8
:10049000E540281871410C0DD7D001242405091915
:1004A000C407CD0740084908E40F28436144002CE5
:1004B000D5D00024401C61419A40D0D1CDE76A05D7
:1004C000520DD9D1C90FC907D5E79C4D4E00002860
:1004D00001D0012400E0002434195F00002A01D07B
:1004E000012600E00026BE19954FAC420CD8AE4262
:1004F0000AD8B44206D001256D05EC42BCD01046A6
:100500001946F0BD9942FCD000203946F0BDF0B547
:100510001FB40C460F46811A9F412546861A9D41FD
:1005200006D20125ED076F40401ABC4152187B41AD
:10053000210D1E0D8D1BAC467D4D8D437ED0750566
:100540006D0D7CD00D05AE46AC431B031B0B794DE6
:1005500052429D41202366469B1B14D31746F74009
:10056000381800260090744160462F460741E41970
:1005700000989D402818664116D4714671189A401B
:1005800025D5012320E093182A466A415200002B0A
:1005900000D0521C1E23203E9B1B002B61DD3541E9
:1005A000EE1728186641E8D5001876415B1C9A4082
:1005B00000D3401C4B05F3181524E34010D3002B47
:1005C00052D071467118D30FC01802D3491C05B020
:1005D000F0BD0123DB079A42F9D140084000F6E75D
:1005E00001225205B21801D1002853D00123CC0AB0
:1005F000DB029943891E002A08D1020C03D0020CA9
:100600000004103902E00246002020390023550B77
:1006100005D112020823550B01D152010D23550CAF
:1006200001D112011B1DD50C01D192009B1C150D8F
:1006300001D152005B1C2025EE1A01E02CE022E0E3
:100640000546F54015439840CA1AE1076918130595
:10065000C918002ABBDA032040070818C10FC907D0
:100660000FE071466118B2E7F107400808437110C6
:1006700071444A000CD001235B059A42A7D2C90FEE
:10068000C9070020A3E74905490D26D1002001E054
:100690000028F4D100219AE7284D6600002801D0F7
:1006A000012100E0002171185F00002A01D001261D
:1006B00000E00026BE19224FA94210D8AE420ED843
:1006C000B14208D001256D05E94206D01946A802BD
:1006D000414010467BE79C4201D0214677E700204D
:1006E000394674E710B50C465C4005D50124E40793
:1006F0006340FFF70CFF10BDFFF778FE10BD30B46C
:100700000C465C4004D50124E407634030BC6DE630
:1007100030BCFCE670B50124E40761400D465D4045
:1007200002D4FFF763FE70BD6340FFF7F0FE70BDBB
:10073000FF0700000000F0FF0000F07F0000E0FF76
:100740000000F87FF0B5F94D0C091E092C402E4031
:100750002F468BB0A7437DD0B543FCD0002E7AD076
:10076000002CFCD00D465D40ED0F2543AC1BFF2552
:10077000AD0464190894C502440DC9022143500D0B
:10078000DC0204430120C00701430443D20201916B
:10079000200C110C00958C46010423468B430A91D2
:1007A00061460904E24D8A430991010A7D444919D1
:1007B0008039097805464D4301266D18F605751BED
:1007C0006943C90C640B891C4C436418B5012C1B8C
:1007D000250C2E04B4434C434D43210C6918890960
:1007E0000591009DE90701D00121C90704912C461C
:1007F00001996708CD072F434C08059DE10B4D4338
:100800002D0C29466646754302950D4645432E46F6
:10081000029D7D1BB44100950D465D4301942C0C57
:100820002F040D465543AE462D0C3D4302950394CF
:100830007546049C2D04641B049406D2029C039DFF
:10084000641C002675410395029401AC70CC009F96
:100850007D1B01E03EE162E1B4410904009507918E
:1008600001940599A4086143090C0C464443650BA7
:10087000E7040C4666467443A646640B3C43039566
:1008800002947446049DE4042C1B049406D2029C3A
:10089000039D641C002675410395029401AC70CC45
:1008A000009F7D1BB44101940C465C430095650F8D
:1008B000E7000C465443A646640F3C43039502945C
:1008C0007446049DE4002C1B049406D2029C039DF4
:1008D000641C002675410395029401AC70CC009F06
:1008E0007D1BB441AE09AF06049DC900AD092F437D
:1008F000049DA406AD060495079D3443691807912D
:10090000059DE10B4D432D0C294666467543029526
:100910000D4645432E46029D7D1BB44100950D4674
:100920005D4301942C0C2F040D465543AE462D0C0F
:100930003D43029503947546049C2D04641B049466
:1009400006D2029C039D641C002675410395029407
:1009500001AC70CC009F7D1BB44101948C050694C2
:10096000079C890A611800950791019C0599A408C4
:100970006143090C0D464543680BEF040D46644680
:1009800065436C0B3C43049FED047D1BAC4602D2D7
:100990000025641C6841009E019D371B8541084667
:1009A000584301950C46460FC5005443600F284339
:1009B0006546E4002C1B02D20025401C6E41019DBF
:1009C0003F1AB5412846BD09800628438446A00940
:1009D000BF064E020699A40676180743079D00201D
:1009E00068410A99079019430020099B00906046CE
:1009F000FF1913434041E20F64003A43A446044602
:100A0000D71A8C41A04203D90120009020463A46D3
:100A1000C70F941840416246D20F224364466400D7
:100A20000494009CBE466400D71AA446044602976C
:100A30008C417746002F01D1A04204D96046401C6A
:100A40008446029A2046C40FA64694184041049A50
:100A50000546D20F224364466400D31A8D41714685
:100A6000002901D1A84202D928461A46641C104325
:100A70000122002800D0164361020020079B89193B
:100A800004465C410223002C02DB491813466441F2
:100A9000089DCE0A2D145D194B056705E10A2C054A
:100AA0000D1908993E43C9076940002B08D09340AF
:100AB00006D30022761C5141002B01D17608760026
:100AC0001C4A002D43DB154241D0AA433FD030469B
:100AD0000BB0F0BD06180D464D41174C7642AC41A7
:100AE0001AD395181C465C41134A6D42A24113D398
:100AF000012252054C00D4420AD15C00D4420BD0F2
:100B00004B4002D592021143E2E749004908DFE772
:100B10005940C90FC90718E000200849D8E705481F
:100B200001420DD10342F7D0F2E700000000FF07B9
:100B3000585300000000F07F0000E0FF0000F87F45
:100B4000114859400143C01241400020C0E7012331
:100B5000089A9B069A4205DC032252078918C90F9E
:100B6000C907B5E7052252078918074A1143D2126F
:100B70005140ADE770B515461C4602460B46284667
:100B80002146FFF7DFFD70BDFFFFFF7F30B5034655
:100B9000CA02400D1043164D164C0A1502D02043D0
:100BA000002A06DBAA1A002A12DDD040FF2A0BDC3D
:100BB00030BD5205520D01D140004008AA1A07D499
:100BC000D0404042FF2A01DD002030BD0028FCDD7E
:100BD0004A00002B01D0012000E000201018012263
:100BE0005205D042F0D8C817C043604030BD000065
:100BF0001E040000000000800346CA02400D10B52C
:100C000010430A1504D00124E4072043002A05DB21
:100C10000A4CA21A04D4D040FF2A00DD002010BDE7
:100C20004A00002B01D0012000E000201018012212
:100C30005205D042F2D8C817C04310BD1E040000B0
:100C40001F22030C02D10F22000402D0030E03D096
:100C500004E00020014670470002083A030F01D16A
:100C60000001121F830F01D18000921E002801DBBA
:100C70004000521E120551184205C012411810467C
:100C80007047C10FC90700D04042012292071143AB
:100C9000D6E701218907D3E710B50B1E01D0202329
:100CA00001E0011E2BD00C0C01D10904103B0C0EED
:100CB00001D10902083B0C0F01D109011B1F8C0F48
:100CC00001D189009B1E002901DB49005B1E0446FF
:100CD000DC4021431C05A4182022D21A90404B0569
:100CE000C20AC90A1A430919830501D143081840E9
:100CF0001623984002D30020521C4141104610BDDB
:100D0000CA0FD20703D00B46002140429941024B43
:100D10001A43C1E7004ABFE70000D041F0B58B4C51
:100D20000F09254689B0BD437BD01D092646AE4339
:100D3000FAD00E465E402740F60F3E43254071D064
:100D400024012142FBD0FF24AD19A4042D1B0395DF
:100D500001252D05DB02DB0AC9022B43C90A294301
:100D60001E010901040F130F050121431701880B10
:100D7000820391432D098C46A90B1E438A03954398
:100D8000B30B9A0396433F09BA0B9403A743029609
:100D90002E467E430497B6464E19D7190C46019647
:100DA000544305977E43371B7646BF1B3601B64634
:100DB000BE0B361900967646BC043719009C01D349
:100DC000641C00946400002F01D001263443029E6D
:100DD000049F754366467E430496760034196E0080
:100DE00034190094029C019E1C196643751BAE4683
:100DF000069465464519059C05956C43594375460F
:100E00000891691A0191049E01465143A41B049163
:100E1000611A009C0791E10605D061090122114386
:100E200002E072E06EE06109089D00272C0A2D06A1
:100E30006918049D7C412A0A2D066918019D6241AA
:100E4000AC0DAD026D185441079A910D92025519DF
:100E50006141029A644658435443069B059A5A439B
:100E6000121A131B9A0E9B015B187A41010B0005A5
:100E7000C3185141220A200644195A419A4200D20D
:100E8000491C01204002814203D315230226F64368
:100E900002E014230326F6432020C51AA940174672
:100EA000AF40DA400A4320460399D840091473182A
:100EB00019055118039A3843D2075140AC4009D064
:100EC0000122944006D30022401C5141002C01D144
:100ED000400840001E4A934212D301220398920612
:100EE000904207DB0520400709181A480143C01249
:100EF000414004E0032040070818C10FC907002043
:100F000009B0F0BD0020F107FAE705180C464C4186
:100F100011486D42A04115D394181A465A410E4803
:100F2000644290410ED301204A004005824209D319
:100F30005A00824206D35940C90F084AC907002007
:100F40001143DDE700200649DAE700000000FF0753
:100F5000FE070000FFFFFF7F0000E0FF0000F07FC2
:100F60000000F87F70B505464800440D124B002084
:100F7000002C0AD0634008D09A4206DA6642B24298
:100F800003DD12054019514170BD002C08D0002B23
:100F900009D0C90FC907002AF6DB084A114370BD02
:100FA000C90FC90770BD28460A03104302D00020AC
:100FB000034970BD284670BDFF0700000000F07FA8
:100FC0000000F87F0121C9050123411842001B06DA
:100FD000D3185B0E0AD0C1100722D2068918400729
:100FE0005242D14201D5520089187047090208D5F2
:100FF0000146002A03D0C10FC907002070471046E0
:101000007047420202D000200249704707210905BB
:101010000143F4E70000F87FF0B5FF252D04C60971
:10102000C209FF2704462E400137CB093E43484002
:101030002A402B400746002A6BD0002B69D0AA42D9
:1010400067D0AB4265D0002800DA32460125ED05B5
:1010500029432C4309022002090AD21A4B0C7F248F
:10106000E31A434C000A7C44E35C7D2424041219F7
:1010700014145B00A218884201D3521C00E0400007
:1010800049420C465C4324115C43DB016415E318C0
:10109000040A5C43C502200D0C4644436419250A2A
:1010A0005D432303EC0C0D46654300030019EB1868
:1010B0004C42A34201D35B18401CD4052018002BDE
:1010C00007D05B00C91804D3401C002901D1400897
:1010D00040003F2189048A4209D3002A08DC110616
:1010E000090F04D0032149074018C00FC007F0BD05
:1010F00001224100120689187F2252069142F6D23F
:1011000005214907C84201D59010F0BDFF20C00558
:10111000F0BD002F00DA32461648AA4207D2AB4291
:1011200005D21902090E17D0F80FC007F0BDFF2530
:1011300063002D06AB42F9D84900A942F6D8AB426C
:1011400001D1A942F2D0A94201D1002101E0610000
:101150004908D0050843F0BD1102090EFBD0FF205D
:101160000243D005F0BD0A460146104654E7000090
:101170001E4B00000000C07F10B501469E240002F7
:10118000CA15A307002A02D01843002A04DBA21ABA
:10119000002A0CDDD04010BD1206120E01D1400015
:1011A0004008A21A03D4D04040420028F3DDFF22B9
:1011B00048001206904201D9002010BDC817C04354
:1011C000584010BD1F22030C02D10F2200041CD076
:1011D000030E01D10002083A030F01D10001121FD2
:1011E000830F01D18000921E002801DB4000521EB7
:1011F000D2055118021251181922904004D3491CEB
:10120000002801D14908490008467047C10FC907A5
:1012100000D04042012292071143D3E70121890700
:10122000D0E7FEB5054610460C46184373D0AE46CF
:101230008C460020AD1A01469C4167D366460027C4
:1012400001243D46B61A9D4102D313463A46212455
:10125000654676462F04360C3E432D0CB61A9D414A
:1012600004D3150C1B042B43120410346546764638
:101270002F06360A3E432D0AB61A9D4104D3150E99
:101280001B022B4312020834654676462F073609A7
:101290003E432D09B61A9D4104D3150F1B012B4364
:1012A0001201241D65467646AF07B6083E43AD08D9
:1012B000B61A9D4104D3950F9B002B439200A41CAA
:1012C00065467646EF0776083E436D08B61A9D419F
:1012D0001AD392185B41641C16E0001876466546E6
:1012E0004941B71A9D410191009009D36046B11A56
:1012F00098418E468446009801990025401C69411A
:10130000DD0752082A435B08641EE6D57246634631
:1013100003B0F0BDFFE700200146C046C0462A46A4
:101320002346F5E7F8B5224C4E00069DA6420AD8A2
:10133000A64201D1002806D15E00A64203D8A642EB
:101340000AD1002A08D00D24240425422CD0294695
:10135000002000F02FF8F8BD0C461C430CD4994235
:1013600002D0EFF30080F8BD904202D0EFF300808E
:10137000F8BDEFF30080F8BD09242407E5008B4297
:1013800006D0EFF30080A043591A06D2284304E0A8
:10139000101A05D3EFF30080A04380F30088F8BD56
:1013A000EFF30080A043F1E7009500F01BF8F8BDD3
:1013B0000000E0FFC80212D54803400F002804D007
:1013C000C803C043012188407047EFF3008000014B
:1013D000000903210907084380F3008870470020B3
:1013E0007047000010B500200249029A00F02BF867
:1013F00010BD00000000F87F754600F053F8AE46BF
:10140000050069465346C008C000854618B020B59F
:10141000FEF7A8FE60BC00274908B6460026C0C5F6
:10142000C0C5C0C5C0C5C0C5C0C5C0C5C0C5403D9C
:1014300049008D46704710B50446C046C046204658
:10144000FEF77BFE10BD10B50C461107090F0929E8
:1014500004D00A290AD008290CD104E0114608203A
:10146000FFF7A8FF06E0510606D501E0510601D5B9
:101470000120C007214610BDD10607D50101090989
:10148000CC084907000E0006044309E0410F200282
:101490004907000A0143200E00061D22D1410143E5
:1014A0000846E7E7004870472C070020014918204C
:1014B000ABBEFEE726000200704770B58C180578B9
:1014C000401C6B075B0F01D10378401C2A1106D129
:1014D0000278401C03E00678401C0E70491C5B1E1D
:1014E000F9D12B0705D40023521E0DD40B70491CD3
:1014F000FAE70378401CCB1A921C03E01D780D70AC
:10150000491C5B1C521EF9D5A142D8D3002070BDE6
:1015100070B5234E308B234C60802348C16A032270
:101520001143C162214800F031FC204D2888401C45
:1015300028801F49012088701B48403800891D49B8
:1015400048842220085E00F053FB287907280CD13C
:10155000194A1A49174800F0EDF919480021415E6F
:10156000184A0020105E00F0D7FC174D287D6875E2
:101570000B48FF210131E03001F08AFC2875697DBC
:10158000884208D12178491CC9B22170032902D1AF
:10159000E87400202070308B6188401AA08070BDF4
:1015A000200701402C00002040040140B001002031
:1015B000A0010020C001002054000020540400209D
:1015C0006C04002078000020E005002070B505467E
:1015D0000C460121080202F02DFF2088A866A178A0
:1015E000608A89020843217DE288090312011143C0
:1015F0000843217C0902084380B26865618920891B
:1016000009010843A189E289090212031143084331
:10161000286570BD0748827C07487A21002A03D0DC
:10162000064A026041607047FF2229320260416031
:10163000704700005C06002040040140208100004B
:101640000021018041808180C180018141818181AF
:10165000C181018241828182C182018341837047BD
:1016600010B588B001A8FFF7EBFF01200024694600
:10167000CC8006228A81CC81C8820C838C828880AF
:1016800001A90A48FFF7A2FF0848FF214030C162C4
:101690004169C21411434161FFF7BCFF0548044989
:1016A0008162C1058C61846208B010BD00040140F4
:1016B000837A000080000040024A118892784843F3
:1016C0001041704704040020024A1189927A48436D
:1016D00010417047040400201CB5154803214160E7
:1016E0004168890723D50021009101910AE04169F1
:1016F000890703D56A461178491C00916A46117919
:10170000491C0191694609790529F0D3684600789A
:1017100003280CD90021074802F016FC05493020A7
:1017200080314861044801880222114301801CBDB8
:1017300000020140000701405200002070B504463D
:101740000121082002F098FE6069616C40020143AB
:10175000A06CA26900025200104301432B480160B3
:10176000216862680901D2001143A26811438160B7
:10177000E169226AC90192011143626A520111436F
:10178000A26A12011143E26CD2001143226D920051
:101790001143626D52001143A26D1143C160616B30
:1017A000A26BC90192011143E26B52011143226CF9
:1017B00012011143626ED2001143A26E92001143D6
:1017C000E26E52001143226F11430161114A104928
:1017D000916243055969104D2940E56A2D0329435B
:1017E000E568ED022943E56D2D0229432569ED01E8
:1017F0002943256B246E2D012943A40021435961FF
:10180000002191620321416070BD0000000201408F
:10181000837A0000800000404380000000210160C6
:10182000012242608160C260016141618161C161E8
:10183000016241628162C162016341638163C1638C
:10184000016441648164C164016541658165C1656C
:10185000016641668166C1660167704700B59DB04B
:101860006846FFF7DBFF01200021400302F0E2FDA4
:101870000121880302F0DEFD0A200090022102917E
:1018800001220692099200200A900C9103230B93E7
:1018900011901590169018910520179004926846A3
:1018A000FFF74CFF1DB000BD10B504460846991A5D
:1018B000801A19225043FEF7F3FC201A00B210BD23
:1018C00070B50D4E0E4C0E4D307800220B4B0C496E
:1018D000603C803D002808D0308AB081F08970815A
:1018E0000B63208028630A6370BD0648408BB0817B
:1018F0000548C06A8089F2E7F4000020ADDE0000F0
:101900008007014074060020400200200748064975
:101910008162C1050A69C3131A430A610168044A56
:101920001143016070470000837A0000800000408E
:10193000FF01000010B50021415E002901DB0B46CC
:1019400000E04B420024145FA34203DD002900DACB
:10195000494211800221415E002901DB0B4600E073
:101960004B420224145FA34203DD002900DA4942FE
:1019700051800421415E002901DB084600E0484215
:101980000423D35E984203DD002900DA49429180A6
:1019900010BD000010B50D4810221421825E415E7A
:1019A0000B4B8A4206DDDC8A121B12B202828A428B
:1019B00000DC01821022825E8A4206DC9B8AD218F9
:1019C00012B202828A4200DB018210BD00020020B6
:1019D000EC02002010B50D480E221221825E415EFD
:1019E0000B4B8A4206DDDC8A121B12B2C2818A428C
:1019F00000DCC1810E22825E8A4206DC9B8AD218FC
:101A000012B2C2818A4200DBC18110BD00020020F7
:101A1000EC02002010B50446204640300E230C2175
:101A2000C35E615E02465B1A403003601023D35EE2
:101A30000E22A25E9A1AC261074841802046703089
:101A400000F08CF8A08220468C3000F087F8E0820D
:101A500001F082FD10BD00007800002070B586B056
:101A600072B60026364C66616069E51428436061F1
:101A7000FFF7D0FD334846858685C68501F0C0FB5B
:101A80000121314802F060FA0596304802E00599DC
:101A9000491C059105998142F9D300960196049657
:101AA000039600202A4AA261E16AC907FCD0E16AD4
:101AB00003231943E1626169294361612049009B65
:101AC000403900268E5F9B1900930C268E5F019B88
:101AD0009B19019314268E5F029B9B1902930C267F
:101AE0008E5F039B99190391401C80B2012149022A
:101AF0008842D8D3FFF7B4FDFFF78CFD62B600989B
:101B0000401201B20F484030C180019A521213B204
:101B10000381029A521212B242810E4C09196000DE
:101B2000814205D81919814202D81119814205D97B
:101B300009490888FF2201321043088006B070BDB1
:101B400040040140C001002000070140FFFF0700E2
:101B5000A55A0000AC0D0000520000200269416946
:101B60000389511A59434389090153435918C368DA
:101B70005918C1600368994201DDC36003E04368FE
:101B8000994200DAC360C16809144261084670478F
:101B900010B50121C80202F04DFC32204107C86295
:101BA00010BD704710B50E480069002800DA4042A9
:101BB0000C4A0421515E0C4B0C4C884205DDD88A3E
:101BC000E083988AA083012007E04910814205DD67
:101BD000588AE083188AA08300205080002010BD1E
:101BE00030030020F4000020AC0200209406002006
:101BF0000F49104A896A4143C8130104906C091ABD
:101C00004910081890640014012800DA012001230B
:101C100009491B060B624862896A084B89B299839D
:101C2000074BD886074B594309135164704700008E
:101C3000AC020020F4000020000B014074060020DC
:101C4000C0010020354F0200F0B58446184D1748FA
:101C5000A862174B174E40339913B2420FD1164862
:101C60001861164C164F54407C40276815480740B1
:101C70002760604648602068CF0338432060B24246
:101C80000BD10D4818611048104C4240624010487A
:101C900010600868400040080860002018610A6869
:101CA000520052080A60A862F0BD0000837A00006A
:101CB000800000401F360D9ACA8F00000A060CB043
:101CC0001530002AFF7FFF7F1A3401B015020D2A5C
:101CD000BADC547638B50E48C17D012916D10D49BC
:101CE000C978002912D1C17572B60B4A3F2464022B
:101CF00000212046FFF7A8FF0849054A009100236C
:101D000048320421204602F003FA62B638BD0000D2
:101D10007C000020B00100201F360D9A0CA4FD9A13
:101D2000F0B516481449C162154A014693894039F5
:101D30000B87D3894B870346124E803B5E67774201
:101D40001F670024DC67158985825289C28206617B
:101D5000C76084610C4A02630246203A14737D22F4
:101D60005201DA860C83642181872C22C28740309D
:101D700001834283F0BD0000D258000040020020E1
:101D8000AC020020000090E8013200007CB5034660
:101D9000344C354A20464030C1881588491B09B269
:101DA0006D46298000899289801A02B26A802F4E7E
:101DB000706A4143C8132080706A4243D113618026
:101DC00020884018404201B2A1800220205E401AC3
:101DD00027494843001460820021615E218212205D
:101DE0001C22205EA25E50431E22A25E5143401A76
:101DF000C013A08110201C21205E615E1E2248437A
:101E00001221615EA25E51434018C013E08118792F
:101E10002546803504280FD003280DD007280BD085
:101E2000092808D100206085A085E085208660868D
:101E3000A086286B80477CBDFFF742FD2046FFF758
:101E4000E9FD204602F0E0F9286B804702F0E6F851
:101E500001F0B4FF306A000C00B203F079F9E061E0
:101E60007CBD0000C001002000040140AC02002045
:101E7000CE93000070B521490E20085E052802DAD5
:101E8000401CC88101E00120C8810E240C5F1D495F
:101E90001B4D1D480A790C21695E4068230003F040
:101EA000D4FB060D040E0D19240D184800780028E7
:101EB00004D12220285E164900F018FB70BD072AC5
:101EC000FCD1144A927A124B0C4A3833123200F089
:101ED000BDF970BD072AFCD10D4A08488C32114665
:101EE000E039123000F0C2F870BD072AFCD1084B6F
:101EF000024AA833123200F091FA70BD420000206D
:101F0000C0010020B00100203003002000060020A6
:101F1000A80400205C06002010B50F4A884213DD9B
:101F2000508800280CD00020508000210B4802F07F
:101F30000BF809481030018801221143018010BDBF
:101F40005088401C508010BD50880028FBD050881D
:101F5000401E508010BD00004200002000070140DC
:101F600070B5364803F004FBFFF7A6FB344D28801C
:101F70003448002404804480848028463C30048017
:101F80004480314803F014FB6880304803F010FBB4
:101F9000A8802846583004802D4803F0E9FAFFF75E
:101FA0008BFB68812846743004804480848044829E
:101FB000284803F0DDFAFFF77FFB2882264803F06C
:101FC000E7FAFFF781FB6861244803F0E1FAFFF7C5
:101FD0007BFBA861224803F0CBFAFFF76DFB288456
:101FE000204803F0D5FAFFF76FFBE861AC854E207F
:101FF0002885752068852846C8300480E03804703C
:10200000048244828482448044608460C4601648B0
:102010000480448084802846AC30048044808480DE
:10202000C4808460C460048244828482C482048345
:1020300038300480448044822C8770BD00004040CA
:102040006C040020C00100200000AF43000070437A
:102050009A99193E3333B33F008009450000484246
:10206000CDCCCC3D0000F0415400002070B50446BA
:102070000020105E282802DA401C108070BD002568
:102080001580605F0221615E82108A4207DC8A103F
:102090000421615E8A4202DC891081420BDD00214D
:1020A000074801F051FF0748018840221143018091
:1020B00005490120088625806580A58070BD000047
:1020C00000070140520000206C040020F0B5464893
:1020D0000021007801280ED1444A1170444A117041
:1020E000444A117091819180D18011815181424A7D
:1020F0001170424A11703F4A103213885B0702D4B4
:1021000013881B072AD53F4F3D4C22230826E35E48
:10211000BE5F3D463C350424B34215DB0626BE5F58
:10212000B34211DC1023EB5EFF262D36B34202DAF8
:102130005B1C2B8209E01388A343138013880826B5
:10214000B3431380298200E02982012806D1118837
:10215000A1431180138808218B43138011888907BC
:1021600002D41188C90708D0012806D1118802239A
:10217000994311801188814311801188C90605D5C2
:10218000012803D111881023994311801188490631
:1021900005D5012803D11188402399431180118866
:1021A000090605D5012803D11188802399431180A0
:1021B0001188890505D5012803D111884302994367
:1021C00011801188490502D4118809050AD5012812
:1021D00008D11088012189028843108010884900A5
:1021E00088431080F0BD000000060020CE000020D3
:1021F0007D00002042000020CD000020CC00002007
:10220000C00100206C04002010B50C49002008809B
:102210000B4908821C3108821C310882888254399B
:10222000088270310882074803F0C2F9044C583C18
:10223000E080054803F0BCF9208110BD5200002069
:10224000C40400200080B64300007F43FFB583B084
:1022500005460F461C461220205E282803DA401C43
:10226000608207B0F0BD68420290002D01DB284675
:1022700000E00298654900264969884223DDA05F95
:102280000A2802DA401C20801EE060493420085EE3
:10229000022808DA401C888600215D4801F054FEBF
:1022A0005C4806710BE00021594801F04DFE268084
:1022B000594A108810210843108054488686534894
:1022C0000121818500E02680002D01DB284600E009
:1022D00002984E49CA697942019190422EDA002F44
:1022E00001DB384600E00198484920228A5E90428E
:1022F00024DD0220205E142802DA401C60801EE0EB
:1023000042493420085E022808DA401C88860021F1
:102310003F4801F019FE3F4806710BE000213C48A0
:1023200001F012FE66803C4A10881021084310809C
:102330003648868635480221818500E0668005980A
:102340000022825E31491020085E824209DC059934
:1023500002228A5E824204DC059904228A5E82425D
:102360001BDD2A493420085E022808DA401C8886D2
:102370000021274801F0E8FD264806710AE0002107
:10238000234801F0E1FD2448018810221143018017
:102390001E4886861D48032181851C494869C2174D
:1023A000920F10188010002D00DA029DA8422ADA40
:1023B000002F00DA019F2020085E4000874222DAC9
:1023C0000420205E322802DA401CA08049E7342035
:1023D000085E0D46022808DA401CA88600210C4839
:1023E00001F0B2FD0B4806710AE00021084801F037
:1023F000ABFDA68008480188102211430180AE86FB
:102400000420A8852DE7A6802BE700006C0400209F
:1024100000070140B001002052000020F8B52B4811
:102420002B4E008800242B4F2B4D002804D05C82BB
:102430003879072820D025E01220185E642802DAB7
:10244000401C5882F4E73220285E022807DA401C3C
:1024500068860021214801F077FD3C71E8E7002102
:102460001E4801F071FD3088012149020843308087
:102470000120E8856C86DBE73820285E642801DAD5
:10248000401C2887288F642813D11548007800281D
:102490000FD1144814494068884214DA3220285E6B
:1024A000022807DA401C688600210C4801F04CFD28
:1024B0003C71F8BD30880121490208433080022078
:1024C000E8856C86F8BD6C86F8BD0000F60000203B
:1024D00052000020B00100206C04002000070140E1
:1024E000000600203003002088130000F8B50C46D9
:1024F000184902228A5E0025824203DC2088401CA3
:10250000208009E004228A5E824203DD6088401C4C
:10251000608001E0258065800020205E0E4F0F4E18
:10252000642808DB0021384601F00EFD2580308844
:102530000421084330800220205E642808DB00214B
:10254000384601F001FD658030880821084330805D
:10255000F8BD00006C04002000070140520000207C
:102560000246002001235B031146814089B2994253
:1025700003D8401C00B20D28F6DB704770B51E482A
:102580000022028242821D490180AF2189004180E0
:102590007D21090181801A49C1801A4CA57D6423DF
:1025A0001949002D03D0A47D012C09D010E0174C4F
:1025B000CC60174C0C611924A4018482C38207E00B
:1025C000144CCC60144C0C614B2424018482C382D3
:1025D000416312498163124C9620E086A28611481D
:1025E000A08100F023F8FFF79BFB1E20A0810520AF
:1025F000A0730D48608670BDAC02002094110000ED
:10260000102700005C0600200000002008BD030029
:10261000FC0800000AB60300FD090000E4580000B1
:1026200094060020F055000066060000F0B5FF4E4D
:102630000A20756B8BB0285EB46BFEF7E7FD07468A
:10264000FB49206903F0E8F86169FEF7E5FCA16940
:10265000FEF7E2FC3946FEF7DFFCFEF78DFD706207
:102660000020205EFEF7D2FDF24F0090394620692F
:1026700003F0D2F8E169FEF7CFFC0099FEF7CCFC3D
:10268000FEF77AFDB062012000076968FDF708FED9
:10269000F0620020205EFEF7B9FD00903946206907
:1026A00003F0BAF8216AFEF7B7FC0099FEF7B4FC14
:1026B000FEF762FD3063A289642042436868D31745
:1026C000C117C608490731434007FDF787FD0A05D2
:1026D000010BD94F1143398364216868FDF7E0FD90
:1026E0000004A189FDF7DCFDD44E7883B081D44885
:1026F000C06A808970813846203081890091490004
:10270000D048FDF7C3FDF08164216868FDF7C8FD7E
:1027100000040099FDF7C4FD30822A690092D317A6
:10272000019319214904E86802F05FFF019B009AB8
:10273000FDF754FDA2890023FDF750FD0121C903D7
:10274000081A3860C049E868695E02F04EFF020F5F
:10275000090111430022A25E0001D317FDF73EFDDF
:10276000706564216868FDF79BFD069002900A2061
:10277000285E0490C017059002980026C0170390A9
:1027800068690090C0170190A05F0890C017099079
:10279000324603990298FDF7F9FC019B009AFDF778
:1027A00005FD059B049AFDF701FD099B089AFDF7BD
:1027B00015FDA64A0023FDF711FDA549884202DA5E
:1027C000761C36B2E4E79D4A1065D684A148029093
:1027D00000980199C70C2A694E033E43D317400362
:1027E0003146FDF7FBFC80B2069F00260090F817EB
:1027F0000390A0890190384632460399FDF7C6FC44
:10280000012252030023FDF7E9FC0023019AFDF7A2
:10281000E5FC7D218901884202DA761C36B2EAE7BE
:10282000C1170023029AFDF7C1FC0023009AFDF7AF
:10283000BDFCCA00410F8048114341601E3E01218A
:1028400046738902818200262A690020D3170093EB
:102850001746205E804902F0C8FE3246FDF796FC1E
:102860003A46009BFDF7BAFC0A22AA5ED317FDF791
:10287000B5FCA2890023FDF7B1FC7D21C901884286
:1028800002DA761C36B2DFE7744902F0AEFE0903C5
:10289000000D084368490E3E886008468673002292
:1028A000A25E6F48A9695043FDF7F0FC6349C86414
:1028B0000020205EFEF7AAFC06466A49206902F065
:1028C000ABFF216AFEF7A8FB3146FEF7A5FBFEF73A
:1028D00053FC564908630020205E634948430214B4
:1028E0000A200092285E6149484306147D21A08990
:1028F000C900FDF7CBFC5E49F31788834B480021E4
:10290000008832460293FDF751FC2A69D317FDF780
:102910004DFCFF23009A87335A430092D21701924D
:10292000019B009AFDF75AFC404980B2088104904F
:10293000A089FEF7AEF903913C49074649880498FF
:1029400002F06BFEFEF7DCF900224A4BFEF7E6F9D7
:102950003A46039BFDF7F6FEFEF74EF93349324641
:102960004881084600880021029BFDF71FFC6A6928
:10297000D317FDF71BFC019B009AFDF72FFC2B4999
:1029800080B288810090A089FEF783F90F4627491D
:1029900006464988009802F040FEFEF7B1F9002291
:1029A000344BFEF7BBF932463B46FDF7CBFEFEF754
:1029B00023F91E490822C8810846825E1F480A235F
:1029C00082850846C35E1D480E26C38508460C2135
:1029D000415E1A48194F01861448865F174846869B
:1029E0001248808842439212BA86104A4843D288DD
:1029F000801253439B12FB8639460887724390121C
:102A000048870A4801890C485830018107484289A3
:102A100009485830034642811C3319815A81642188
:102A200015480A22818002837D2327E0AC02002022
:102A30000046E2460000204774060020F400002013
:102A400040020020006CDC020A000000CFFD000004
:102A50001027000010C9000040420F002F88060018
:102A6000F266010080908A47CE9300000A6A010056
:102A70008803002000002440C4030020DB00038002
:102A800001818281018283820021418041814182D2
:102A9000C181C182C1804183605EA0214843010C95
:102AA000604E0846B183FFF75BFDF08300230146CB
:102AB000E35EA02043431027781AC340B38300206D
:102AC0003083FFF74DFD7083391AE1200001C840C3
:102AD00030830A20285E54494843800C3080FFF739
:102AE0003FFD014670800A20285E4F4A5043122263
:102AF000511AC84030800020205E4C494843800D68
:102B0000B080FFF72DFDF08001460023E35E4748CB
:102B100043431620401AC340B3806868010C3181DA
:102B20000846FFF71DFD70816A68381AC24032817D
:102B30000A21695E3E48FDF7A9FB010C3D4E08469F
:102B40003180FFF70DFD708000900A21695E3848E2
:102B5000FDF79CFB00990346781AC340338000219F
:102B6000615E3548FDF792FB000CB080FFF7F8FC82
:102B7000F08000900021615E2F48FDF787FB014641
:102B80000098381AC140B1803F0338466968FDF7A4
:102B90007DFB80B23081FFF7E3FC70813B468340D0
:102BA00018466968FDF772FB308112203083FFF709
:102BB000D7FC87407083E12109013846FDF766FBA9
:102BC00030830021615E0A20012541432D03284600
:102BD000FDF766FB80B2B083FFF7C2FCF0830021F3
:102BE000615E0A22514385402846FDF74FFBB083C2
:102BF0001248134AC18E5143090CC186818E92102E
:102C00005143104A09149180042181730220114616
:102C1000C880A0890A2148438009114608810BB069
:102C2000F0BD0000E40300205B2300001817000043
:102C30008DF61C0004040020B172C5029406002029
:102C4000402F0200F400002007480022418E01813D
:102C50004260818E0B045B42836109040262416120
:102C6000024842667047000094060020F4000020ED
:102C7000F0B52848857A28490127CB8D274C0022BA
:102C8000022D0BD0867AE1252D01012E12D0867AF5
:102C9000002E1BD0817A032928D02BE05B1C9BB22D
:102CA000CB857D25ED00AB4224D9827202743C2392
:102CB000CB851FE0067C6423012E01D18272CB8577
:102CC000868AAE4216D98272CB8513E0002B02D0E1
:102CD0005B1ECB850EE0818AA9420BD2017C0129C3
:102CE00001D0877206E00221817203E02188002969
:102CF00000D182722188002901D003218172817A5A
:102D0000012904D0817A022900D18274F0BD877430
:102D1000F0BD00005C0600207C0000205200002076
:102D2000704770B5002301252A469A400C6814406C
:102D3000944230D10C79002C04D0012C0AD0022C02
:102D400010D012E004681646264306604468944397
:102D500044600AE0046894430460466814463443BF
:102D6000446002E04468944344604C79012C04D0F0
:102D7000022C0AD0002C05D007E004691646264331
:102D8000066102E004699443046184698E68012E3F
:102D900005D0944384615B1C102BC5D370BD1443D4
:102DA000F8E70000F0B5384F1401150216030B00C8
:102DB00002F04BFC10090E151B21262D33393E4520
:102DC0004B51565D630D016A394089180162F0BDAF
:102DD000016A2D4AE13A114061180162F0BD016AB1
:102DE0002A4A114069180162F0BD016A0905090DFE
:102DF00071180162F0BD416A394089184162F0BD25
:102E0000416A214AE13A114061184162F0BD416ACC
:102E10001E4A114069184162F0BD416A0905090D59
:102E200071184162F0BD816A394089188162F0BD34
:102E3000816A154AE13A114061188162F0BD816AE8
:102E4000124A114069188162F0BD816A0905090DB5
:102E500071188162F0BDC16A39408918C162F0BD44
:102E6000C16A094AE13A11406118C162F0BDC16A04
:102E7000064A11406918C162F0BDC16A0905090D11
:102E80007118C162F0BD0000F0FF0000FFF000000B
:102E90000246002092680A4200D001207047416338
:102EA00070470163704700210160017141718160C9
:102EB000704700003EB56846FFF7F5FF0120694600
:102EC00008713F2080020090114C2046FFF729FF37
:102ED00003220A212046FFF765FF03220B2120462B
:102EE000FFF760FF03220C212046FFF75BFF032260
:102EF0000D212046FFF756FF03220E212046FFF743
:102F000051FF03220F212046FFF74CFF3EBD00007A
:102F10000008014070B52B482B4CC08E0101606C3D
:102F2000091A891208186064001100B2E084274A67
:102F30000125AD02904201DBE5870FE0AF23FF21C1
:102F40001B01F531984208DB101A8322920050438E
:102F5000FDF7A6F9281AE08700E0E1871C4802F097
:102F600017FBFEF7B1FB80021A4D800A28601A4851
:102F7000AF2100888900194E884202D820780228A3
:102F800014D0174802F004FBFEF79EFB3E21615E61
:102F90004843800A6860304602F0FAFAFEF794FB74
:102FA0003E21615E4843800AA86070BD304602F051
:102FB000EFFAFEF789FB3E21615E4843800A6860B4
:102FC000E9E70000C00100207C000020E40C0000C4
:102FD0000000B144500600206200002000C0DC4424
:102FE0000080D6447047000010B572B61E481F49D5
:102FF000886220481E4901600F218902416001203A
:1030000000040168C200114301600121001201F0B7
:1030100033FA02F09BF9FEF723FB00F035FA02F0D9
:1030200081FAFFF747FFFEF7B3FD00F00DFFFEF753
:1030300015FC642001F034FA0221082002F01EFB86
:1030400001210A2002F01AFB0221012002F016FBE6
:103050000A2002F007FB012002F004FB082002F026
:1030600001FB62B610BD0000837A000080000040C2
:10307000B4A60000000C0140F8B549492820085EBC
:10308000FDF7FFFD0022474BFDF75CFB464A474B2F
:10309000FDF758FB464A474BFDF740FEFDF7ACFDF8
:1030A0003F4C403CE06644483126017843480025C7
:1030B0000078002902D0012922D02AE0012807D077
:1030C000022811D025876587E564A565256520E080
:1030D000362000F049FE2087362060871020E0640B
:1030E000A5651220206514E05B2000F03DFE2087DE
:1030F0005B2060872320E064A5652520206508E02B
:1031000001281BD0022825D025876587E564A565A1
:1031100025652B49206DE76E48433946FDF7B6F823
:103120003946FDF7B3F800B22065312800D926658D
:1031300022480078002800D12565F8BD332000F032
:1031400013FE2087332060871120E064A5651320DB
:103150002065DEE71B49C888401C80B2C880AF22CA
:103160009200904209D8962000F0FEFD208796201C
:103170006087E664A5652665CBE719225201904277
:1031800001D9501DC8805F2000F0EEFD20875F2030
:1031900060872820E064A56529202065B9E7000044
:1031A00020060020C0FFDF4072DF92CEF66A7D3F2E
:1031B000CDCCCCCCCCCC0C407E0000207C000020C0
:1031C000998301005C0000207047000010B50A4C94
:1031D0006069C00602D4606980060BD506480021EC
:1031E000803800F0B1FE302060610448018802227E
:1031F0001143018010BD00008007014052000020F3
:10320000F0B51048877C104A2E25555F2A24145F9C
:103210002C236942D35E0EB261425A420B4809B276
:1032200012B2002F06D00680858002818381018240
:103230008482F0BD06808580018184810282838240
:10324000F0BD00005C060020C00100200007014026
:1032500070470000F8B506460D460121102001F028
:103260000BF930468249803001636A7929799200EE
:103270001143AA7AEB7A12015B011A431143AA792E
:1032800092011143EA79D20111432A7B12021143C0
:103290006A7B52021143F16729883163698871633F
:1032A000E98B3162298C7162698CB162A98CF162FF
:1032B000697A2A7A09021143316729462031CB7D88
:1032C0008A7D5B001A438B7FEC8A9B01E4012343D8
:1032D0001A430B7E1B021A434B7E5B021A43CB7FC1
:1032E0009B031A432B8BDB031A430262CB7E8A7E3D
:1032F0005B002C461A43403423786F8B9B01FF01FF
:103300003B431A430B7F497F1B021A4349020A437E
:10331000617889030A43A98BC9030A434262A27BED
:10332000217B92001143A27AE37A12015B011A43D6
:103330001143627B52001143E27BD2001143227C95
:10334000D2011143227E12021143E27D5202114347
:10335000A27E92021143627ED2021143227F1203A7
:103360001143E27E520311438162627DE17C92004F
:103370001143627CA37C12015B011A431143227D3D
:1033800052001143A27DD2001143227CD20111438D
:10339000627F12021143A27F52021143C16222795D
:1033A000A178120111436279237A52019B011A43D9
:1033B0001143E27812021143A27912031143E27918
:1033C00052031143627A920311437167E98C3165AC
:1033D000298D7165A18EB167E989B164298AF1648B
:1033E0001221695EB1631421695EF16360352A7848
:1033F000E17F520011436A78AB789202DB021A43F4
:10340000114301602A79E978520011436A79AB7956
:103410009202DB021A4311438160E97B2A7C090195
:10342000520111436A7C92011143AA7CD2011143DB
:1034300001612A7AE979520011436A7AAB7A9200E3
:10344000DB001A431143EA7A120111432A7B52012D
:1034500011436A7B92011143AA7BD201114381611E
:10346000044931644160C160416103490163F8BDB1
:10347000ADDE0000FFFF0000FECA000010B576219F
:10348000FCF700FF10BD000000B59FB001A8FFF7DA
:10349000F5FF00206B461872012159729972D9729A
:1034A00058839883D8831E4A10AB1A870C226B4628
:1034B0001A7359730F2292019A80DA80194A5A843A
:1034C0009F22D2439A843E225A859A85DA851A86AB
:1034D0005A869A8608AB9876D8760F9010AB98707B
:1034E000D8701871D876179018AB187010AB187583
:1034F000197258729972D87218ABD870D87419753D
:1035000010ABD9735974D87401A90748FFF7A2FE0C
:1035100005488030006A054988831FB000BD00005F
:10352000FF1F0000B6030000000701402404002034
:103530000849C86C0007000F8875032802D90020CD
:1035400008707047032801D0087070470120C870C8
:10355000704700007C000020F8B52D4D16222D4C40
:10356000AA5E22851421695E6185E88E2A4B2A4E67
:1035700058432B46DB8E001473431B145B4282427C
:1035800001DD024602E09A4200DA1A4612B22285B2
:10359000814201DD014602E0994200DA19464043CA
:1035A0005243801A09B21D4A61851063506B00298D
:1035B00000B201DB0A4600E04A42824203DD0029F4
:1035C00000DC404260851648216C006A40180014F7
:1035D00001F0BEFDE8611C221E21AA5E2826695E5C
:1035E0002A20A65F205E17460B4677434343FB1A0B
:1035F000714342438818C01301B2606CDB131BB2E5
:103600004343DA1341432A83C8136883F8BD00009B
:10361000C0010020F400002000130100000B014055
:10362000AC020020F8B564488088644C60810A20B0
:10363000205E0025002800DA65810A20205EA1892D
:103640004018C003000CA081A1895D485D4E5E4F0B
:10365000814200D9A081A089FDF71BFB5B4A5C4B2E
:1036600002F0A6F870D8A089FDF713FB594A5A4B0F
:1036700002F06CF808D2FF23A189163332461920D4
:10368000FEF712F9208194E0A089FDF702FB534A6E
:10369000534B02F05BF807D2A18933463A463220F9
:1036A000FEF702F9208184E0A089FDF7F2FA4D4A85
:1036B0004D4B02F04BF807D24C4AA1893B464B20B8
:1036C000FEF7F2F8208174E0A089FDF7E2FA484A9B
:1036D000484B02F03BF807D2444B474AA18964208B
:1036E000FEF7E2F8208164E0A089FDF7D2FA434AB0
:1036F000434B02F02BF807D23F4B424AA1897D2071
:10370000FEF7D2F8208154E0A089FDF7C2FA3E4AC4
:103710003E4B02F01BF807D23A4B3D4AA189962056
:10372000FEF7C2F8208144E0A089FDF7B2FA394AD9
:10373000394B02F00BF808D2354B384AA189AF203B
:10374000FEF7B2F8208134E032E0A089FDF7A1FA5B
:10375000334A344B01F0FAFF07D2304B324AA18989
:10376000C820FEF7A1F8208123E0A089FDF791FA97
:103770002E4A2F4B01F0EAFF07D22B4B2D4AA1898D
:10378000E120FEF791F8208113E0A089FDF781FA8E
:10379000294A2A4B01F0DAFF07D2264B284AA18991
:1037A000FA20FEF781F8208103E0FA20208100E072
:1037B00025810820205EF8BD000401405C00002047
:1037C000FF7F0000730300002F09000039AD2BA21A
:1037D0009E567140406C88AE789D8B404355E8E51D
:1037E000D85FA24073C16A5B7139B44039140000DC
:1037F0005DD4027B6A9DC2403A25000099A49F8255
:103800003E84CC40083900005BD6ADA2C80DD34041
:10381000374C0000957E228F7266D6409959000081
:1038200083CD8BEBC6DED8407B6300006F96593C9E
:103830008B7BDA40EE690000ABA8DCCED592DB4092
:103840004B6E000070B5014600261D31F643F34C67
:10385000132911D81E30FDF714FAF14AF14BFDF788
:103860005DFA3246FDF77EFB0022EF4BFCF73AFF94
:10387000FDF78CF9A061CEE10146093109290ED886
:103880000A30FDF7FEF90022E84BFDF747FA002267
:10389000E74BFCF727FFFDF779F9A061BBE1411E7B
:1038A0001D2911D8FDF7EDF9E24AE34BFDF736FA91
:1038B0000022E24BFCF746FF0022E14BFCF712FF2F
:1038C000FDF764F9A061A6E101461F39132911D85B
:1038D0001E38FDF7D6F9DB4ADB4BFDF71FFA3246FF
:1038E000FDF740FBD94ADA4BFCF7FCFEFDF74EF939
:1038F000A06190E10146333909290FD83238FDF72C
:10390000C0F9D24AD34B521CFDF708FA0022D24B21
:10391000FCF7E8FEFDF73AF9A0617CE101463D398C
:1039200009290ED83C38FDF7ACF9CC4ACC4BFDF751
:10393000F5F90022CB4BFCF7D5FEFDF727F9A06186
:1039400069E101464739C84D09290FD84638FDF7C6
:1039500098F92A46C54BFDF7E1F9BC4AC44BD2435E
:10396000FCF7C0FEFDF712F9A06154E101465139A0
:1039700009290ED85038FDF784F9BE4ABE4BFDF731
:10398000CDF90022BD4BFCF7ADFEFDF7FFF8A061BD
:1039900041E101465B3909290ED85A38FDF771F922
:1039A000B74AB84BFDF7BAF9B74AB84BFCF79AFEDD
:1039B000FDF7ECF8A0612EE10146653909290ED822
:1039C0006438FDF75EF9B24AB24BFDF7A7F9002261
:1039D000B14BFCF787FEFDF7D9F8A0611BE101466A
:1039E0006F3909290ED86E38FDF74BF9AB4AAC4B4D
:1039F000FDF794F9AB4AAC4BFCF774FEFDF7C6F843
:103A0000A06108E10146793909290ED87838FDF717
:103A100038F9A64AA64BFDF781F92A46A54BFCF7D3
:103A200061FEFDF7B3F8A061F5E00146833909298D
:103A30000FD88238FDF725F99F4AA04BFDF76EF9A4
:103A40007C4A9F4B921EFCF74DFEFDF79FF8A0614C
:103A5000E1E001468D3909290ED88C38FDF711F9BE
:103A6000984A994BFDF75AF9984A994BFCF73AFE58
:103A7000FDF78CF8A061CEE00146973909290FD8EF
:103A80009638FDF7FEF8934A934BFDF747F9644AE1
:103A9000924B5242FCF726FEFDF778F8A061BAE09F
:103AA0000146A13909290FD8A038FDF7EAF88C4A58
:103AB0008C4BFDF733F9634A8B4B5242FCF712FEF5
:103AC000FDF764F8A061A6E00146AB39132911D8CF
:103AD000AA38FDF7D6F8854A854BFDF71FF932461F
:103AE000FDF740FA834A844BFCF7FCFDFDF74EF8E6
:103AF000A06190E00146D339132911D8D238FDF7DF
:103B0000C0F87E4A7E4BFDF709F93246FDF72AFAE6
:103B10007C4A7D4BFCF7E6FDFDF738F8A0617AE0C2
:103B20000146E739132912D8E638FDF7AAF8774A93
:103B3000774BFDF7F3F83246FDF714FA654A754BFB
:103B4000D243FCF7CFFDFDF721F8A06163E0014609
:103B5000FB3909290ED8FA38FDF793F86E4A6F4BF6
:103B6000FDF7DCF86E4A6F4BFCF7BCFDFDF70EF875
:103B7000A06150E0C11FFE3909290ED8481CFDF78D
:103B800080F8694A694BFDF7C9F8694A694BFCF747
:103B9000A9FDFCF7FBFFA0613DE00146FF391039AC
:103BA00009290ED8481CFDF76CF8634A634BFDF7F2
:103BB000B5F8634A634BFCF795FDFCF7E7FFA0619E
:103BC00029E00146FF391A3909290ED8481CFDF7AA
:103BD00058F85D4A5D4BFDF7A1F85D4A5D4BFCF777
:103BE00081FDFCF7D3FFA06115E00146FF392439C0
:103BF00009290ED8481CFDF744F8574A574BFDF7E2
:103C00008DF8574A574BFCF76DFDFCF7BFFFA061DD
:103C100001E00120A061A06970BD00005C000020EF
:103C20009A999999994792C000C7D04000E06BC01B
:103C30000069B5402085EB51B8966EC00000084081
:103C40000066A940B81E85EB515846C03333333364
:103C5000331F8940333326C000507640400AD7A333
:103C6000703D1DC000C06E40C2F5285C8FC213C0FD
:103C7000CC9C6540FCA9F1D24D620BC000E05E40D7
:103C80006ABC7493180403C0E17A14AE47515640DD
:103C9000643BDF4F8D97FABF0060504060E5D02253
:103CA000DBF9F2BF703D0AD7A37048407C14AE47E1
:103CB000E17AECBF8F8242401C5A643BDF4FE5BF84
:103CC000B81E3C4060105839B4C8DEBFF6285C8F7F
:103CD000C2753540105839B4C876D6BF66A6304094
:103CE000A445B6F3FDD4D0BFAE472A40DE718A8E1C
:103CF000E4F2D7BF85EB51B81E05254012363CBD16
:103D00005296C1BFDD24068195431240B6627FD929
:103D10003D79B8BF37890940DCE00B93A982A1BF88
:103D200016D9CEF753E30140F8B0506B9A779CBF99
:103D3000E8FBA9F1D24DFE3F4C37894160E5A0BFB9
:103D40004160E5D022DBF93F50C1A8A44E4083BFBB
:103D5000FA7E6ABC7493F43F58A835CD3B4E91BFB0
:103D6000DF4F8D976E12F33F10B5FFF76BFD0B4CD5
:103D70006061FCF786FF0022094BFCF7B3FC0022D0
:103D8000084BFCF7AFFC02460B4600200649FCF747
:103D9000D9FCFCF7FBFE00B2E08110BD5C00002006
:103DA0000000244000003440F0C62B4102480021AE
:103DB000C1608161816070478803002030B50D4883
:103DC0000D4A0E4B047998691169042C0DD20C4DE3
:103DD00014682D8B64106C43DD696419DC61186212
:103DE000516008490120487030BD18625160D861A7
:103DF00030BD0000B001002030030020AC020020E4
:103E000074060020F40000200421415EC90082688D
:103E10008A4206DA0023C35ED21882608A4200DB3F
:103E2000816082688A4206DD0223C35ED21A826004
:103E30008A4200DA81608268D310C3808A4201D14D
:103E4000012070470020704710B50121480200F0A2
:103E5000F1FA064904488862C805016989088900A1
:103E600001610169016110BD837A0000800000409A
:103E700070B5334A918D4B1C9385002364290FD96B
:103E80009385118D814202D2547A002C27D00121D2
:103E90005172118D002902D0547A012C22D0537214
:103EA000518D491C89B25185814200D35385254DDE
:103EB000508D118D234C4035884233D8907A032899
:103EC00021D2137002212046FEF7EBFF1021284675
:103ED000FEF7E5FF08212046FEF7E1FF70BD491C13
:103EE0001185D6E7491E89B211850029D8D1917A6A
:103EF000052903D2491C91725372D1E70529CFD10C
:103F000093725372CCE70220107002212046FEF714
:103F1000C6FF10212846FEF7C2FF08212046FEF703
:103F2000C0FF70BD02212046FEF7B9FF10212846D0
:103F3000FEF7B5FF08212046FEF7B1FF70BD000077
:103F40007C00002000080140084A803002630129FB
:103F500006D0816A064A11408162064901637047B2
:103F6000816A402211438162F7E70000ADDE000064
:103F7000BFFF0000FECA000070B5214D2148698ACC
:103F80000181A98A418100241F49182204608A5EA8
:103F9000C460514241602C706C83AC831430046067
:103FA0001A49C4604160E98A0181298B4181154920
:103FB000174838390A46434209C11C32D46009C245
:103FC0000B463220603B4C60D882124806890E8036
:103FD00046894E8081891180C1895180EC650E4AE5
:103FE0002C661168696684611161AC651C610A21E7
:103FF000AC66C1872C64FEF727FE6C8070BD0000A4
:10400000F40000200407002000020020E0FCFFFF75
:1040100000007017AC02002030030020F0B5344ED1
:1040200022213046415E26227588825E046D436DF2
:10403000C9003048AC46012D00682F4D3FD04035B7
:104040000E27EF5F67437C131027EF5F5F437B13FF
:10405000C91A60431041081828494042884202DCCE
:104060004942884200DA0846F08330842148202102
:10407000C28B715E036A4A439A180262838B5213A1
:104080004B4319138A180260C18E8A4202DC016018
:10409000490301620068716E0203521A92115118AD
:1040A0007166174A09131161B189164A4843F16BC9
:1040B0000918F16391616146002907D007E00C27D8
:1040C000EF5F67437C130E27EF5FBFE7002030648C
:1040D000308D7084084A16201421105E515E4043D2
:1040E0004943411808480163406B08490882F0BD04
:1040F000F400002094060020C0010020E02E000003
:1041000030030020AC020020000B01408803002097
:10411000FEB5089B01240094334C324DA562334C0C
:1041200001263604A3424FD12F4C314D40346561F6
:10413000304D314C6B4063401C68304D2C401C604E
:1041400070601C68F5022C431C601346C91C8F0864
:10415000BF000197029015E00299890889007160FB
:1041600019785C78240209199C78DD7824042D06DE
:1041700064190919B1601B1D0199091F0191029968
:10418000091D029101990029E6D10197029018E0DA
:104190000298800880007060107853781B02C01865
:1041A0009378D4781B0424061B19C018F368834243
:1041B00000D00091121D0198001F01900298001D6F
:1041C000029001980028E3D107490020403148615E
:1041D00031680B4A114031600349886268460078B3
:1041E000FEBD0000837A0000800000400CA4FD9A10
:1041F000358F00000F045C6A03A0A0F0FF7FFF7FF3
:10420000FFF7FFF770470000F0B5418B85B04942DA
:104210000AB242831826865F69468E818149824BA5
:104220004A43B10351184942CA17520C5118C913D5
:104230000DB26946CD81711949420AB269460A82B6
:1042400001462031AE425BDC964230DC954204DC14
:1042500001244C760C76144603E002244C760C764E
:104260002C463419E70F3C196410361B36B22D1B4F
:104270006F462DB2121BBE81FD81AC1B012512B20F
:10428000AD033A82641BBB80AC4201DD2C4602E0E8
:104290009C4200DA1C46921B521BFC80AA4201DDA4
:1042A0002A4602E09A4200DA1A463B465EE054197A
:1042B000E70F3C196410361B36B22D1B6F46121BDC
:1042C000BE8112B2B41A01262DB2B603FD81A41B21
:1042D0003A82B44201DD344602E09C4200DA1C46D8
:1042E000AA1A921BBC80B24201DD324602E09A4219
:1042F00000DA1A46FA803B8103224A7602225FE006
:10430000954235DC964205DC04244C7601240C767B
:10431000144604E005244C7603240C7634462C190C
:10432000E70F3C196410361B36B22D1B6F462DB2B9
:10433000121BBE81741B0126B603FD8112B2A41BA1
:104340003A82B44201DD344602E09C4200DA1C4667
:1043500027466C46521BA780921BE380B24201DDC8
:10436000324602E09A4200DA1A4623461A8128E0D1
:104370009419E70F3C196410361B36B22D1B6F469B
:10438000121BBE8112B2B41A01262DB2B603FD81F2
:10439000A41B3A82B44201DD344602E09C4200DABA
:1043A0001C46AA1A921BBC80B24201DD324602E0D2
:1043B0009A4200DA1A46FA803B8106224A760322A4
:1043C0000A766C22125C002A03D1049B039A0293A2
:1043D00001926B4604229A5E144B0125AD031B88A3
:1043E00052195A43D4131A46643A944200DD1446D3
:1043F00044856E460624345F64195C43E41394429A
:1044000000DD144684850824345F64195C43E3139B
:10441000934200DC1A46C285012048760220887645
:1044200005B0F0BDDA6E000000C0FFFFFE00002006
:104430007047000010B50F4C0D4AA26223151A05F3
:1044400001290BD0410503D51169194311611843A6
:104450001169814311610020A06210BD410503D59F
:104460001169994311619843116901431161F2E7A0
:10447000837A000080000040084A074B93620029BD
:1044800003D0D1690143D16102E0D1698143D16197
:104490000020906270470000837A00008000004096
:1044A00008B50021009103E000BF0099491C00916C
:1044B00000998142F8D308BD10B542680168891A95
:1044C0004162084A914201DD114604E0054A524228
:1044D000914200DA11464162183000F01BF802499F
:1044E000C88110BDFF7F0000000200200268C16883
:1044F0008A4205DA836BD21802608A4200DB0160CF
:1045000002688A4205DDC36BD21A02608A4200DC6F
:1045100001607047F1B588B008980068C117820A39
:104520008D051543840508984068C117820A8F05D8
:10453000174386050898089AC0680790C117069126
:1045400052890023FBF732FE089AD16190610591F0
:1045500004900898059903694269049818184A411B
:1045600008994A6108611146039202900A46294659
:10457000201A914103DA08984561046107E0029925
:104580000398891BB84102DA089847610661089AC6
:104590000023128906990798FBF708FE420EC9010D
:1045A0001143C001089A13695269C0185141089A11
:1045B000D1619061019100902A46201A8A4103DA64
:1045C0000898C561846107E000990198891BB8418A
:1045D00002DA0898C761866108988169007F8202C3
:1045E000880D104300B209B0F0BDC168C90142692D
:1045F0008A4206DA1023C35ED21842618A4200DB87
:10460000416142698A4206DD1223C35ED21A4261C9
:104610008A4200DC4161704770B51648002404608E
:10462000154A0220105E154B411C154D09B20A288F
:1046300003DA51809888A88009E0142803DA5180B1
:104640001888A88003E00F490420087154800E4E9A
:10465000304600F08DFF2880304600F089FF6880EA
:104660000748FFF7D1FB0948C48144828482048251
:1046700070BD00003003002044040020EC02002044
:10468000AC030020B00100200AD7233C0002002028
:10469000F8B53C4E3C4FB07B3D46803500240028A9
:1046A0000BD03A493A4B085F3A493B4A002814D0AC
:1046B000642823D0C82829D02FE00120B073FF2020
:1046C00021307885B885F885404238867886B88666
:1046D000286B80472D48048045E00B63908B2F4B5F
:1046E00018430862908B0C22104348620C632948DF
:1046F00001218038FFF728FC00BF0EE00B63908B90
:10470000274A104308620C6300BF06E00B63908BDE
:104710000822104348620C6300BF1C490020085E59
:10472000FF222D32904202DA401C08801BE019481B
:1047300000218038FFF708FC72B67C85BC85FC85BB
:104740003C867C86BC86286B80471249FF20403916
:104750000860FEF799FE13484169C2141143416194
:1047600062B60120F073F07B01280AD1B4730748C8
:104770000480F47300F028F8064801218038FFF720
:10478000E3FBF8BDEC020020C0010020440400203F
:10479000ADDE00008007014024040020080C00006A
:1047A0000C0800004004014010B505490020C87005
:1047B00000210448FFF7C8FBFDF788FC10BD00008E
:1047C000B001002000070140F8B500218448FFF740
:1047D000BBFB844800F0DCFE83490882834800F07C
:1047E000D7FE814948828248002484778049782016
:1047F00008840C20488408468480448004808460B7
:10480000846144610482C460FFF7D0FA794FBC70C0
:1048100075488473C473002000F098FE7249888143
:10482000754D284600F0A4FEFCF746FF6E498882CD
:10483000284600F09DFEFCF73FFF6B49C882FF2031
:104840006E4DE13028806880A8802E468036306B1F
:104850008047284640300482C481EC81AC812C82A0
:104860006C82848244822C806C80AC802C866C8626
:10487000AC86B4613462EC6774602C836C83EC8228
:10488000AC82AC84EC842C85002000F071FE56498B
:1048900008605B4800F06CFE534948605948048248
:1048A0004482446184808460C480574800F070FE74
:1048B0004D498860084684778483544884800A2060
:1048C000F8807D20524D40012884524868840021A0
:1048D000A962E962504E304600F04AFEFCF7ECFE59
:1048E000A861304600F044FEFCF7E6FE4042E86175
:1048F0006C622C60EC60494E304600F049FEFCF7DB
:10490000E3FEA863304600F043FEFCF7DDFEE863FB
:104910006C606C64334800F03BFEFCF7D5FE286405
:104920003F48A8643F48007C002807D13E4800F07B
:104930001FFEFCF7C1FE29464031C8813B4800F00C
:1049400027FEFCF7C1FE2865394804608460002119
:10495000016241620521018304614461FDF70EFE9D
:10496000FFF70AFB284800F013FEFCF7ADFE3149C3
:104970008887314800F00CFEFCF7A6FE1A4DE8636C
:104980002E4800F005FEFCF79FFE28642C480480AA
:1049900044808480C480048144818481FDF7E0FAEE
:1049A00000257D5FFCF75CFE3888401B02D4388808
:1049B000401B01E03888281A0228F5DB2148F02145
:1049C000C180C82101814181AA2181818484C4845C
:1049D00032210171094960310C730482F8BD000075
:1049E0000007014000002041EC0200200000A0412F
:1049F00088030020B0010020CDCC4C3EC001002037
:104A0000CDCC0C3FAC0300200000704234000020ED
:104A100030030020701700009A99193F00004040B1
:104A2000390400005C060020CDCC0CBF0000AF4371
:104A300070050020AC0200200000F0410000484357
:104A400044040020E0050020F8B5304DA87F002880
:104A50005BD12F4C2846A17880682E4E002927D0A4
:104A60004042F060002000F093FD30822A4800F0C0
:104A70008FFD70822748FFF7B8FD7069274EC0117F
:104A8000F060FCF721FE306025488169C069081A92
:104A90002862002800DA40420014286221490026DA
:104AA00040182149884205D2A88C401CA88402E005
:104AB000F060D7E7AE84072020710120A877A178A5
:104AC0001A481B4C002902D0012906D00BE000F047
:104AD0004FFDFCF7F1FD608205E000F049FDFCF7B9
:104AE000EBFD40426082134F384600F041FDFCF779
:104AF000E3FDA882384600F03BFDFCF7DDFDE882CF
:104B0000FCF748FFFCF766FFA682F8BDEC02002028
:104B1000B0010020AC0300200000A04130030020C1
:104B2000AC0200202FF8FFFF7F3E0000CDCC0C3FF1
:104B300000020020CDCC4C3EF8B5754A0C21515EE8
:104B4000744B0026744D754C022911DA74480088A4
:104B5000012809D12869002800DA40421B6C9842DC
:104B600002DD491C918100E09681FCF733FF5CE097
:104B700006206949105E496802280EDA401CD08080
:104B80000E20205EC217830A92051A438005EA624E
:104B9000A8622960FCF71EFF47E09F8B7F1C3FB295
:104BA0009F83002F41DB9E8302280DD10320D080FC
:104BB0001222A25ED017930A800518439205AA62BA
:104BC000E8622960FCF706FF5648827A5649012AB6
:104BD00003D0807A022806D007E05448007880008D
:104BE0000858E86001E00868E860514880780028CB
:104BF00002D0012806D00AE0E868002807DA40421F
:104C0000E86004E0E868002801DD4042E8604948C7
:104C1000494F0178012911D0012141703E48FFF729
:104C200065FC3D48FFF748FC3E8044480078012879
:104C30000AD03C48807A002806D008E04048068028
:104C40003E80FCF7C7FEF0E73A490120087039487A
:104C5000017832484030012904D02969002928DB35
:104C60000A4627E0818F2187C18F61872B498031D8
:104C70000A8B8282498BC1822A48007C264F4037AA
:104C8000012806D12F4800F073FCFCF715FD8010B9
:104C9000F881F88960822869002800DA4042296D8D
:104CA000884230DA22480921017122480670867054
:104CB00029E04A42244D254BAA420CDC9D892587D8
:104CC000DA89628719898182C1821A48C18001818B
:104CD0004581828117E0002900DA49421C4A91424D
:104CE00011DB99897D2292025143090C2187D989D0
:104CF000184A5143090C618719897D229202514358
:104D0000090C8182C182A682FCF744FEF8BD000036
:104D100044040020EC0200203003002000020020A8
:104D2000F60000205C060020500600207E000020D7
:104D3000B0010020340000200E01002000060020F9
:104D400010010020CDCC0CBF70170000AC02002079
:104D50001027000000C4090006490A20085EFA284E
:104D600002DA401C488170470020488102490871DE
:104D7000C870704744040020B00100207047000054
:104D8000F8B5474C474E20790025474F030000F007
:104D90005CFC0C07211C2A2D55553055474A4F55B0
:104DA0003078002806D14148807A002802D0414955
:104DB0003F480860FFF708FDE07800283ED03D49F5
:104DC0003B4808600220207138E0FFF761FC0120B9
:104DD000207133E0FFF7F8FC01213748FFF7B4F802
:104DE000032020712AE0FFF717FC27E0FFF72CFED5
:104DF00024E02C494B222039088A1201904201D22A
:104E0000401C0882FFF798FEE078002816D1388809
:104E1000002813D100212848FFF796F825710DE0EE
:104E2000FFF79AFF0AE0E088002807D0257105E027
:104E3000FFF7BAFC3888002800D12571E0780028F7
:104E400009D13888002806D100211B48FFF77CF8DB
:104E5000C820E08025713888002805D00021164838
:104E6000FFF772F80B2020713078012804D1134825
:104E700085864586124805800F4C80346069C006DF
:104E800002D46069800609D500210B48FFF75CF861
:104E9000302060613888022108433880F8BD000066
:104EA000B001002000060020520000205C06002017
:104EB000C0DA0000C0000020000701406C040020A0
:104EC0004C00002000B5FCF721FD00BD704700003C
:104ED00010B51948016A042211430162174801798B
:104EE000491C0171C188491CC1800189491C01818B
:104EF0004189491C418112480078002816D1114887
:104F00000088000612D41048007800280ED10F48FF
:104F1000007801280BD00E49002008800D49088038
:104F20000D4908800D4908700D49087010BD6420B6
:104F3000FEF79EFF10BD000000060140A00100200A
:104F400000060020520000207D0000207F0000208D
:104F5000A4000020A6000020A8000020850000205A
:104F60008600002070B505460C462748854203D1CF
:104F700001212020FFF780FA2448854203D1012136
:104F80004020FFF779FA20782179C007C906084345
:104F9000217A89060843217B09060843218A0905ED
:104FA0000843A18A09040843E16909030843216A07
:104FB000C9020843616A89020843A16A4902084399
:104FC000E16A09020843616B09010843A16BC9004A
:104FD0000843E16B89000843216C49000843616C78
:104FE00008432860A0696860E06CA860A06CE86075
:104FF000206B2861206D6861606DA861A06DE8611B
:105000000720286270BD0000000501400006014035
:105010000021016041608160C16001614161816185
:105020000122C261026241628162C1620163416325
:105030008263C163016441648164C1640165416547
:105040008165704710B51648047C0022012315497C
:10505000012C04D00A73447C012C07D007E0447C67
:10506000012C01D00B7302E00A7300E04274807AD5
:10507000032812D04A730B48FD2216300270437089
:10508000022282700A7BC2704B7B0371D218D2B2AB
:105090008A824271FC21817110BD4B73EBE70000E5
:1050A0005C060020D000002070B5FF20214916309A
:1050B0000880214D002428790A2819D32C711F4E0D
:1050C000F088002801D0401EF080FCF7D3FE00F0ED
:1050D00079F9FDF71FFF1A480088002801D00B203E
:1050E0003071FFF74DFE17492220085EFCF75AFD8C
:1050F000E888642804D3EC80FEF794FA00F05CF9A9
:1051000028897D21C900884206D32C810E48807CE5
:10511000012801D1FDF7B0FF68890C49884204D30A
:105120006C8100F0F9FA00F051F9A878002800D05D
:10513000AC7070BD32000020A0010020B001002042
:1051400052000020C0010020E0050020881300006C
:1051500018B50121C903411809048A0D0321090268
:105160000A400121C90340188004010E4800FF24B1
:10517000611A154B4900002A16D0FF3A013A1BD09C
:10518000FF3A013A03D0FF3A013A1BD105E0185A21
:105190006A465080585A108014E0595A6A46518025
:1051A000185A404210800DE0185A6A46404250801A
:1051B000585A4042108005E0595A6A464942518087
:1051C000185A1080009818BD08590000F8B5FFF76C
:1051D00039FF2A4C00252078012802D0A079002828
:1051E00038D1264B1D33D8781A798118C9B2E1819C
:1051F0005E78012E08D19E78022E05D19E79FA2E76
:1052000002D15B798B4202D00120607019E0E0711D
:10521000283A62828707BF0F277201078B0F6372DC
:10522000C106C90FA1728006C00FE072144EB2878A
:10523000144A93731174002801D0D57301E07F1CC8
:10524000D77325700D48163001780F4800F06CF8C0
:105250000120A070A078012802D1208A401C208261
:10526000A079012809D1208A642806D9034816307C
:105270000178054800F058F82582F8BDD0000020DC
:10528000E00500205C060020000901407047000096
:10529000F8B506460C4601210420FFF7EDF800257D
:1052A0001E482168FAF7F2FF00901D4F04E06D1CC4
:1052B000691C0098FAF7EAFFB842F8D819498D61DD
:1052C000401EC1B2B1600004000E7060E079012898
:1052D0001ED002281FD000210020637922795B00B4
:1052E0001A43A379C0009B0003431A4308010243F9
:1052F000207A400102433260E17BA07B49000843F1
:10530000706260893061607BB061207BF061F8BDC4
:1053100001210020E1E701210120DEE7006CDC0231
:10532000FFFF000080000040C16070474B21C901B1
:1053300001600021017141718171C171017241737C
:10534000418101738173C1737047000030B587B02C
:1053500004A8FDF7A8FD01206946087510200490F7
:10536000134D04A92846FDF7DCFC002469460C75A2
:105370002021049104A92846FDF7D3FC04221146FC
:105380002846FDF70FFD042205212846FDF70AFDFA
:105390006846FFF7CBFF4B204002009001940320AA
:1053A000694608730348FFF773FF07B030BD00007C
:1053B000000801400009014010B5FDF759FCFFF756
:1053C00005FF10BD10B5FCF785FC10BDF0B53C48DD
:1053D00000240178002971D13A49098800296DD14A
:1053E000394B1978002969D05D7B1D73374A115FED
:1053F000CAB25A73AA4201D99C7306E0AA4202D2E9
:1054000001229A7301E002229A732D4D3A22203D27
:105410002D4EAA5EF57B6D1CEFB20B2575578A42A7
:1054200016DD9E7B002E2BD0521A0C2A02DB6D1D3E
:10543000DD7225E02449C97A491C49B2052A01DDFB
:10544000D9721DE0DF73082F1AD1D972DC7317E00F
:105450008A4215DA9E7B012E12D08A1A0C2A02DBB0
:105460006D1FDD720CE01849C97A491E49B2052A40
:1054700001DBD97204E0DF73082F01D1D972DC732C
:105480000B229A563021C9438A4200DAD9720B2185
:105490005956022901DD0221D972094ADB7A203AE4
:1054A000D16CC91849B2C172002901DAC472F0BDC9
:1054B000126D9142FBD9C272F0BDFFE7C472FBE7E7
:1054C00000060020520000207C0000206400002024
:1054D0000EB56846FDF7E7FC002069460871487183
:1054E000FF20013000900248FDF71BFC0EBD0000BC
:1054F0000008014000B5084800218175012282742E
:10550000817281820548C1863F20400204490068BB
:10551000C864FEF70DF800BD5C0600206C04002096
:105520007C00002000B597B06846FFF771FD0120B0
:1055300000904B2080010690042016906946024896
:10554000FFF710FD17B000BD0006014070B505461D
:10555000064C208BFBF762FE294600F05DF9FBF755
:105560000BFEA17E084180B270BD0000C403002084
:1055700070B50546054C2088FBF750FE294600F023
:105580004BF9FBF7F9FDA178084170BDC403002079
:1055900070B50546054C2089FBF740FE294600F012
:1055A0003BF9FBF7E9FDA17A084170BDC403002077
:1055B00010B5FBF707FD074A074BFBF7AFFB0022CF
:1055C000064BFBF7ABFB064A064BFBF7BBF8FBF7BA
:1055D000DDFA10BD72DF92CEF66A7D3FC0FFDF407C
:1055E000CDCCCCCCCCCC0C407047F8B504148BB2ED
:1055F000264682B25E430D141046371458433604D3
:1056000080190021794116466E43371436048019FB
:10561000794126466E438919F8BDF8B5040C8BB262
:10562000264682B25E430D0C1046370C58433604B2
:1056300080190021794116466E43370C36048019D3
:10564000794126466E438919F8BD30B47446641E0C
:105650002578641CAB4200D21D46635D5B00E318F5
:1056600030BC1847002805DBC106C90E0120884060
:10567000014908607047000000E100E08307FF2255
:10568000DB0E9A408907090E9940002808DB830841
:1056900009489B001818036893430B430360704745
:1056A0000007000F0838830804489B001818C369D6
:1056B00093430B43C361704700E400E000ED00E05A
:1056C00009488168021411438160FFF701FFFDF76B
:1056D0008BFCFFF70FFF00F00DF805490348088029
:1056E00062B6FFF7E1FCFCE780000040C40900005F
:1056F0006201002010B5FCF7B1F9FCF73FFFFCF7A1
:105700002FFCFCF781FD03490148C86010BD000073
:10571000C8580000A001002010B50B4A0123D17821
:10572000012906D1907D032803D003209075906451
:10573000D375947D1078844204D0002902D19075ED
:105740009064D37510BD00007C00002070B5012569
:105750000C002D051C4310D4EC4206D4AC420AD4F4
:10576000994200D070BD904270BDE94217D4EB421F
:1057700015D4994270BD894270BDEC4206D5AC4249
:10578000F9D58B4200D070BD824270BD6D004C00D7
:10579000EC4204D25C00EC4201D28B4270BD034C5F
:1057A00030B4FBF7BFFD30BC70BD00BF190016045C
:1057B00070B501251C002D050C4310D4EC4206D415
:1057C000AC420AD48B4200D070BD824270BDEB4225
:1057D00017D4E94215D48B4270BD9B4270BDEC4298
:1057E00006D5AC42F9D5994200D070BD904270BD4B
:1057F0006D005C00EC4204D24C00EC4201D29942B4
:1058000070BD0FB4034C0CBC03BC30B4FBF78AFD75
:1058100030BC70BD1900160470B5420064414B00E5
:105820005C41120E39D01B0E38D0FF2A3CD0FF2B22
:105830003AD040024902400A490A060045184E4340
:10584000000A090AD2184843ED017F3A0104731A8D
:105850004019190C4318990F04D001215B0849071E
:105860005B1A521CD80904D3401CF50301D19D06D4
:1058700007D0FF2A08D2D50506D0E40720434019F7
:1058800070BD0125A843F4E7002A01DCE00770BDE4
:105890002402FF202043C00570BD1B0EFF2A03D049
:1058A000FF2B01D0E00770BDFF2645003606B5424C
:1058B00006D84D00B54203D8D218FF2A00D0E7E73A
:1058C000004870BD0000C07F5665725F332E3900FE
:1058D0000000000000000000000000000000C00305
:1058E000660200001C0C000000001405E093040098
:1058F000A861000066666640CDCCCC3DA4709141A5
:10590000B657EB3B5E06A33B0000C90092015B0269
:105910002403ED03B6047F0548061107D907A20842
:105920006A09330AFB0AC40B8C0C540D1C0EE30EDF
:10593000AB0F72103A110112C8128F1355141C15B7
:10594000E215A8166E173318F918BE19821A471BEC
:105950000B1CCF1C931D571E1A1FDD1F9F2061219A
:105960002322E522A62367242825E825A8266727E1
:105970002628E528A329612A1F2BDC2B992C552DDD
:10598000112ECC2E872F4130FB30B5316E322633AD
:10599000DF3396344D350436BA366F372438D9386C
:1059A0008C39403AF23AA53B563C073DB83D683E3B
:1059B000173FC53F73402141CE417A422543D04332
:1059C0007A442445CD4575461C47C34769480F496D
:1059D000B449584AFB4A9D4B3F4CE04C814D204E08
:1059E000BF4E5D4FFB4F97503351CE51685202531B
:1059F0009B533254C9546055F5558A561D57B057BC
:105A00004258D3586459F359825A0F5B9C5B285C07
:105A1000B35C3E5DC75D4F5ED75E5D5FE35F686010
:105A2000EB606E61F0617162F1627063EE636C64F1
:105A3000E8646365DD655666CF664667BC673268B5
:105A4000A66819698B69FD696D6ADC6A4A6BB76B78
:105A5000236C8E6CF86C616DC96D306E966EFB6E4A
:105A60005E6FC16F22708370E27040719D71F97139
:105A70005472AE7207735E73B5730A745F74B27456
:105A800004755575A575F37541768D76D8762277B0
:105A90006B77B377FA773F788478C77809794A7952
:105AA0008979C879057A417A7C7AB67AEE7A267B4A
:105AB0005C7B917BC57BF87B297C597C887CB67CA0
:105AC000E37C0E7D397D627D897DB07DD57DFA7D5B
:105AD0001D7E3E7E5F7E7E7E9C7EB97ED57EEF7E85
