:020000040000FA
:10000000580D00205901000067010000690100003F
:1000100000000000000000000000000000000000E0
:100020000000000000000000000000006B01000064
:1000300000000000000000006D01000025430000EA
:10004000794400007D440000D52F000059300000A5
:10005000D12F0000AD370000652A0000192D0000E7
:10006000D14800000D14000059120000C118000012
:10007000654B0000D93900000000000000000000BE
:100080000000000000000000000000000000000070
:100090000000000000000000000000000000000060
:1000A0000000000000000000000000000000000050
:1000B0000000000000000000000000000000000040
:1000C00000F002F800F038F80CA030C80838241806
:1000D0002D18A246671EAB4654465D46AC4201D180
:1000E00000F02AF87E460F3E0FCCB646012633427A
:1000F00000D0FB1AA246AB463343184744590000D0
:10010000645900000023002400250026103A01D382
:1001100078C1FBD8520700D330C100D50B607047BF
:1001200010B5642902D100F0DDF810BD002010BD2B
:100130001FB51FBD10B510BD01F036F81146FFF711
:10014000F7FF04F08BFD01F04EF803B4FFF7F2FF68
:1001500003BC04F073FD0000094880F308880948D7
:10016000804709480047FEE7FEE7FEE7FEE7FEE7B7
:10017000FEE7000005480649064A074B70470000A5
:10018000580D002071440000C100000058070020F5
:10019000580D0020580900205809002010B5202AC9
:1001A00004DB0146203A9140002010BD91402023FD
:1001B0009C1A0346E3401943904010BD434351430A
:1001C00030B55C18010C130C0D4692B25D4380B241
:1001D00051432C19054655430A0C09044D19624137
:1001E0005843010C00044019514130BD70B5002541
:1001F0002C46AD1A9C4112DA00252C462D1A8C4152
:1002000002DA00F0B4FE70BD002440428C41214669
:1002100000F0ADFE002440428C41214619E000254B
:100220002C462D1A8C410ADA002452429C41234666
:1002300000F09DFE002440428C41214670BD002408
:1002400052429C414042234600248C41214600F00A
:100250008EFE002452429C41234670BD0FB40549D6
:1002600010B503AA029800F05BFF10BC08BC04B0F4
:10027000184700002C000020F8B50E460446002068
:1002800020622046E1688847002829D0252802D02E
:100290006268A16820E0E1682046002788470500E1
:1002A0001ED028464138192802D80127FF022035E0
:1002B0003246204627602946FFF732FF002808D043
:1002C000012804D0F61DF608F6000836D9E7361DD9
:1002D000D7E762682846A1689047206A401CCFE7AC
:1002E000206AF8BDF7B5002575291068009914A695
:1002F00011D0C046C046002802DA404211A608E0EC
:10030000009909688A0701D50FA602E0490704D5BC
:100310000EA6012501E0C046C046009F00242437F8
:1003200004E000F011FF30313955641C0028F8D189
:100330002B4632462146009800F09AFEFEBD000092
:10034000000000002D0000002B0000002000000035
:1003500001E004C0091F0429FBD28B0701D50280EC
:10036000801CC90700D00270704700290BD0C3075A
:1003700002D00270401C491E022904D3830702D513
:100380000280801C891EE3E70022EEE70022DFE7FF
:10039000002203098B422CD3030A8B4211D3002382
:1003A0009C464EE003460B433CD4002243088B425C
:1003B00031D303098B421CD3030A8B4201D39446E9
:1003C0003FE0C3098B4201D3CB01C01A52418309DC
:1003D0008B4201D38B01C01A524143098B4201D396
:1003E0004B01C01A524103098B4201D30B01C01AC1
:1003F0005241C3088B4201D3CB00C01A524183083B
:100400008B4201D38B00C01A524143088B4201D367
:100410004B00C01A5241411A00D2014652411046C7
:1004200070475DE0CA0F00D04942031000D340423C
:10043000534000229C4603098B422DD3030A8B4272
:1004400012D3FC22890112BA030A8B420CD3890110
:1004500092118B4208D3890192118B4204D38901F6
:100460003AD0921100E08909C3098B4201D3CB0134
:10047000C01A524183098B4201D38B01C01A5241E9
:1004800043098B4201D34B01C01A524103098B42ED
:1004900001D30B01C01A5241C3088B4201D3CB00D8
:1004A000C01A524183088B4201D38B00C01A5241BB
:1004B000D9D243088B4201D34B00C01A5241411A92
:1004C00000D20146634652415B10104601D34042C0
:1004D000002B00D54942704763465B1000D3404271
:1004E00001B50020C046C04602BD70477047704746
:1004F000F0B5F94D0C091E092C402E402F468BB04B
:10050000A7437DD0B543FCD0002E7AD0002CFCD080
:100510000D465D40ED0F2543AC1BFF25AD0464196E
:100520000894C502440DC9022143500DDC02044366
:100530000120C00701430443D2020191200C110C99
:1005400000958C46010423468B430A9161460904B9
:10055000E24D8A430991010A7D444919803909789D
:1005600005464D4301266D18F605751B6943C90CF8
:10057000640B891C4C436418B5012C1B250C2E04FC
:10058000B4434C434D43210C691889090591009DE2
:10059000E90701D00121C90704912C460199670898
:1005A000CD072F434C08059DE10B4D432D0C2946EB
:1005B0006646754302950D4645432E46029D7D1BBA
:1005C000B44100950D465D4301942C0C2F040D465B
:1005D0005543AE462D0C3D43029503947546049C4D
:1005E0002D04641B049406D2029C039D641C002607
:1005F00075410395029401AC70CC009F7D1B01E016
:100600003EE162E1B4410904009507910194059926
:10061000A4086143090C0C464443650BE7040C46EF
:1006200066467443A646640B3C43039502947446A5
:10063000049DE4042C1B049406D2029C039D641CBC
:10064000002675410395029401AC70CC009F7D1B80
:10065000B44101940C465C430095650FE7000C46DD
:100660005443A646640F3C43039502947446049D8C
:10067000E4002C1B049406D2029C039D641C0026FB
:1006800075410395029401AC70CC009F7D1BB44171
:10069000AE09AF06049DC900AD092F43049DA40611
:1006A000AD060495079D344369180791059DE10B3C
:1006B0004D432D0C29466646754302950D4645432C
:1006C0002E46029D7D1BB44100950D465D4301946D
:1006D0002C0C2F040D465543AE462D0C3D43029580
:1006E00003947546049C2D04641B049406D2029C5A
:1006F000039D641C002675410395029401AC70CCE7
:10070000009F7D1BB44101948C050694079C890AC7
:10071000611800950791019C0599A4086143090C93
:100720000D464543680BEF040D46644665436C0B6C
:100730003C43049FED047D1BAC4602D20025641CA3
:100740006841009E019D371B85410846584301952D
:100750000C46460FC5005443600F28436546E4002D
:100760002C1B02D20025401C6E41019D3F1AB54151
:100770002846BD09800628438446A009BF064E02CC
:100780000699A40676180743079D002068410A9938
:10079000079019430020099B00906046FF191343FE
:1007A0004041E20F64003A43A4460446D71A8C4104
:1007B000A04203D90120009020463A46C70F941862
:1007C00040416246D20F2243644664000494009C78
:1007D000BE466400D71AA446044602978C41774669
:1007E000002F01D1A04204D96046401C8446029AE1
:1007F0002046C40FA64694184041049A0546D20FDD
:10080000224364466400D31A8D417146002901D108
:10081000A84202D928461A46641C10430122002827
:1008200000D0164361020020079B891904465C41F1
:100830000223002C02DB491813466441089DCE0AAE
:100840002D145D194B056705E10A2C050D19089952
:100850003E43C9076940002B08D0934006D30022CD
:10086000761C5141002B01D1760876001C4A002DE0
:1008700043DB154241D0AA433FD030460BB0F0BD18
:1008800006180D464D41174C7642AC411AD39518C7
:100890001C465C41134A6D42A24113D3012252050A
:1008A0004C00D4420AD15C00D4420BD04B4002D55C
:1008B00092021143E2E749004908DFE75940C90FB6
:1008C000C90718E000200849D8E7054801420DD1C2
:1008D0000342F7D0F2E700000000FF0724540000B5
:1008E0000000F07F0000E0FF0000F87F1148594051
:1008F0000143C01241400020C0E70123089A9B0633
:100900009A4205DC032252078918C90FC907B5E7C7
:10091000052252078918074A1143D2125140ADE708
:1009200070B515461C4602460B4628462146FFF781
:10093000DFFD70BDFFFFFF7F30B50346CA02400DEB
:100940001043164D164C0A1502D02043002A06DB30
:10095000AA1A002A12DDD040FF2A0BDC30BD520556
:10096000520D01D140004008AA1A07D4D04040429D
:10097000FF2A01DD002030BD0028FCDD4A00002BED
:1009800001D0012000E00020101801225205D042C1
:10099000F0D8C817C043604030BD00001E040000FE
:1009A000000000800346CA02400D10B510430A152E
:1009B00004D00124E4072043002A05DB0A4CA21AD4
:1009C00004D4D040FF2A00DD002010BD4A00002BD7
:1009D00001D0012000E00020101801225205D04271
:1009E000F2D8C817C04310BD1E0400001F22030C1C
:1009F00002D10F22000402D0030E03D004E0002035
:100A0000014670470002083A030F01D10001121F8E
:100A1000830F01D18000921E002801DB4000521E8E
:100A2000120551184205C012411810467047C10FF7
:100A3000C90700D04042012292071143D6E70121A5
:100A40008907D3E710B50B1E01D0202301E0011E5A
:100A50002BD00C0C01D10904103B0C0E01D1090262
:100A6000083B0C0F01D109011B1F8C0F01D189001C
:100A70009B1E002901DB49005B1E0446DC4021432C
:100A80001C05A4182022D21A90404B05C20AC90A9C
:100A90001A430919830501D14308184016239840C9
:100AA00002D30020521C4141104610BDCA0FD2078C
:100AB00003D00B46002140429941024B1A43C1E743
:100AC000004ABFE70000D041F0B58B4C0F09254626
:100AD00089B0BD437BD01D092646AE43FAD00E46F1
:100AE0005E402740F60F3E43254071D0240121424D
:100AF000FBD0FF24AD19A4042D1B039501252D0562
:100B0000DB02DB0AC9022B43C90A29431E01090182
:100B1000040F130F050121431701880B8203914332
:100B20002D098C46A90B1E438A039543B30B9A03E8
:100B300096433F09BA0B9403A74302962E467E4381
:100B40000497B6464E19D7190C460196544305979B
:100B50007E43371B7646BF1B3601B646BE0B3619A1
:100B600000967646BC043719009C01D3641C00949F
:100B70006400002F01D001263443029E049F754378
:100B800066467E430496760034196E00341900944C
:100B9000029C019E1C196643751BAE460694654671
:100BA0004519059C05956C43594375460891691A8A
:100BB0000191049E01465143A41B0491611A009CBB
:100BC0000791E10605D061090122114302E072E0BC
:100BD0006EE06109089D00272C0A2D066918049D06
:100BE0007C412A0A2D066918019D6241AC0DAD02B7
:100BF0006D185441079A910D920255196141029A5C
:100C0000644658435443069B059A5A43121A131BD1
:100C10009A0E9B015B187A41010B0005C3185141E4
:100C2000220A200644195A419A4200D2491C012046
:100C30004002814203D315230226F64302E0142327
:100C40000326F6432020C51AA9401746AF40DA40D4
:100C50000A4320460399D8400914731819055118FE
:100C6000039A3843D2075140AC4009D00122944046
:100C700006D30022401C5141002C01D14008400005
:100C80001E4A934212D3012203989206904207DB38
:100C90000520400709181A480143C012414004E0EA
:100CA000032040070818C10FC907002009B0F0BD94
:100CB0000020F107FAE705180C464C4111486D4237
:100CC000A04115D394181A465A410E4864429041E7
:100CD0000ED301204A004005824209D35A008242C5
:100CE00006D35940C90F084AC90700201143DDE760
:100CF00000200649DAE700000000FF07FE070000B9
:100D0000FFFFFF7F0000E0FF0000F07F0000F87FA2
:100D10000121C9050123411842001B06D3185B0EAF
:100D20000AD0C1100722D206891840075242D14288
:100D300001D5520089187047090208D50146002ADA
:100D400003D0C10FC9070020704710467047420208
:100D500002D0002002497047072109050143F4E74A
:100D60000000F87FF0B5FF252D04C609C209FF2752
:100D700004462E400137CB093E4348402A402B40D1
:100D80000746002A6BD0002B69D0AA4267D0AB423D
:100D900065D0002800DA32460125ED0529432C43B1
:100DA00009022002090AD21A4B0C7F24E31A434C91
:100DB000000A7C44E35C7D242404121914145B00B3
:100DC000A218884201D3521C00E0400049420C4660
:100DD0005C4324115C43DB016415E318040A5C43A3
:100DE000C502200D0C4644436419250A5D432303C4
:100DF000EC0C0D46654300030019EB184C42A3426E
:100E000001D35B18401CD4052018002B07D05B00D1
:100E1000C91804D3401C002901D1400840003F21DB
:100E200089048A4209D3002A08DC1106090F04D07C
:100E3000032149074018C00FC007F0BD012241003F
:100E4000120689187F2252069142F6D205214907DF
:100E5000C84201D59010F0BDFF20C005F0BD002FA5
:100E600000DA32461648AA4207D2AB4205D219022E
:100E7000090E17D0F80FC007F0BDFF2563002D063F
:100E8000AB42F9D84900A942F6D8AB4201D1A942F8
:100E9000F2D0A94201D1002101E061004908D0054A
:100EA0000843F0BD1102090EFBD0FF200243D0051C
:100EB000F0BD0A460146104654E700004A4C0000C7
:100EC0000000C07F10B501469E240002CA15A3078A
:100ED000002A02D01843002A04DBA21A002A0CDDE3
:100EE000D04010BD1206120E01D140004008A21AD7
:100EF00003D4D04040420028F3DDFF224800120610
:100F0000904201D9002010BDC817C043584010BD01
:100F10001F22030C02D10F2200041CD0030E01D1AA
:100F20000002083A030F01D10001121F830F01D103
:100F30008000921E002801DB4000521ED20551188D
:100F4000021251181922904004D3491C002801D1E3
:100F50004908490008467047C10FC90700D0404200
:100F6000012292071143D3E701218907D0E7FEB59B
:100F7000054610460C46184373D0AE468C460020FA
:100F8000AD1A01469C4167D36646002701243D46C1
:100F9000B61A9D4102D313463A4621246546764649
:100FA0002F04360C3E432D0CB61A9D4104D3150C6C
:100FB0001B042B4312041034654676462F06360A6E
:100FC0003E432D0AB61A9D4104D3150E1B022B4336
:100FD00012020834654676462F0736093E432D092E
:100FE000B61A9D4104D3150F1B012B431201241D7A
:100FF00065467646AF07B6083E43AD08B61A9D4132
:1010000004D3950F9B002B439200A41C65467646A3
:10101000EF0776083E436D08B61A9D411AD3921821
:101020005B41641C16E00018764665464941B71AD4
:101030009D410191009009D36046B11A98418E46B6
:101040008446009801990025401C6941DD0752083B
:101050002A435B08641EE6D57246634603B0F0BDC2
:10106000FFE700200146C046C0462A462346F5E772
:10107000FFB504460D4681B02430009021688806F3
:1010800004D51022E0699143216000E00120A842CC
:1010900001DD471B00E000270498A1697A191018A8
:1010A000081AA0612078C00602D42046C046C04677
:1010B000002608E003986268A168805D9047206A76
:1010C000401C761C206204988642F3DB2078C00620
:1010D0000AD52046C046C04606E06268A1683020B6
:1010E0009047206A401C206238467F1E0028F4DCAE
:1010F00007E000986268A168405D9047206A401C44
:10110000206228466D1E0028F3DC2046C046C046FB
:101110002078000602D5022005B0F0BD0120FBE7D3
:10112000084B70B50D467B4400F027F8044628466E
:1011300000F036F8002802D00020C04370BD2046E1
:1011400070BD0000173B000001468008081A020924
:101150001018020A1018020C1018C0088200121889
:101160005200891A01E0401C0A390A29FBD2704753
:1011700001694A1C02610878704700B58FB002917E
:10118000002105910549019379440391114604908A
:101190006846FFF771F80FB000BD0000E5FFFFFFE4
:1011A000C068802108407047754600F025F8AE46BB
:1011B000050069465346C008C000854618B020B5F2
:1011C000FEF7D8FF60BC00274908B6460026C0C518
:1011D000C0C5C0C5C0C5C0C5C0C5C0C5C0C5403DEF
:1011E00049008D46704710B50446C046C0462046AB
:1011F000FEF7ABFF10BD000000487047F40600206A
:1012000070B58C180578401C6B075B0F01D1037813
:10121000401C2A1106D10278401C03E00678401CCD
:101220000E70491C5B1EF9D12B0705D40023521EFA
:101230000DD40B70491CFAE70378401CCB1A921CA2
:1012400003E01D780D70491C5B1C521EF9D5A142AC
:10125000D8D3002070BD000010B51F48C16A03221A
:101260001143C1621D4800F021FC1C4C2088401C29
:1012700020801B490120887017484038008919498F
:1012800048842220085E00F043FB207907280CD117
:10129000154A1649134800F0DBF915480021415E54
:1012A000144A0020105E00F0C7FC01F0F1FD124C62
:1012B0006069C00602D4606980060BD50E48002123
:1012C000803802F015F9302060610C480188022254
:1012D0001143018010BD000040040140780100204E
:1012E0006801002088010020520000201C0400201A
:1012F00034040020740000208007014050000020CA
:1013000070B505460C460121080202F067FB2088F3
:10131000A866A178608A89020843217DE2880903D2
:10132000120111430843217C0902084380B2686519
:101330006189208909010843A189E2890902120310
:1013400011430843286570BD0748C27C07484A21FD
:10135000002A03D0064A0260416070476522D2002D
:1013600002604160704700002406002040040140F4
:10137000208300000021018041808180C1800181A3
:1013800041818181C181018241828182C182018347
:101390004183704710B588B001A8FFF7EBFF01202B
:1013A00000246946CC8006228A81CC81C8820C83C5
:1013B0008C82888001A90A48FFF7A2FF0848FF2114
:1013C0004030C1624169C21411434161FFF7BCFF63
:1013D000054804498162C1058C61846208B010BD72
:1013E00000040140837A000080000040024A118816
:1013F0009278484310417047CC030020024A11897B
:10140000927A484310417047CC0300201CB5154820
:10141000032141604168890723D500210091019192
:101420000AE04169890703D56A461178491C009191
:101430006A461179491C0191694609790529F0D359
:101440006846007803280CD90021074802F050F8BC
:101450000549302080314861044801880222114347
:1014600001801CBD00020140000701405000002027
:1014700070B504460121082002F0D2FA6069616C5F
:1014800040020143A06CA2690002520010430143D4
:101490002B480160216862680901D2001143A268EB
:1014A00011438160E169226AC90192011143626AB4
:1014B00052011143A26A12011143E26CD20011439E
:1014C000226D92001143626D52001143A26D1143CF
:1014D000C160616BA26BC90192011143E26B5201C1
:1014E0001143226C12011143626ED2001143A26EAD
:1014F00092001143E26E52001143226F11430161C9
:10150000114A1049916243055969104D2940E56A15
:101510002D032943E568ED022943E56D2D0229439A
:101520002569ED012943256B246E2D012943A40073
:1015300021435961002191620321416070BD000087
:1015400000020140837A00008000004043800000D8
:1015500000210160012242608160C260016141613D
:101560008161C161016241628162C1620163416363
:101570008163C163016441648164C1640165416543
:101580008165C165016641668166C1660167704714
:1015900000B59DB06846FFF7DBFF01200021400346
:1015A00002F01CFA0121880302F018FA0A200090C8
:1015B0000221029101220692099200200A900C91C8
:1015C00003230B93119015901690189105201790F6
:1015D00004926846FFF74CFF1DB000BD70B50D4E7C
:1015E0000E4C0E4D307800220B4B0C49603C803D78
:1015F000002808D0308AB081F08970810B63208088
:1016000028630A6370BD0648408BB0810548C06AF4
:101610008089F2E7BC000020ADDE000080070140B9
:101620003C06002008020020074806498162C105E7
:101630000A69C3131A430A610168044A114301602D
:1016400070470000837A000080000040FF01000026
:1016500010B50021415E002901DB0B4600E04B4242
:101660000024145FA34203DD002900DA49421180FF
:101670000221415E002901DB0B4600E04B420224BF
:10168000145FA34203DD002900DA4942518004219E
:10169000415E002901DB084600E048420423D35E96
:1016A000984203DD002900DA4942918010BD000014
:1016B00010B50D4810221421825E415E0B4B8A4208
:1016C00006DDDC8A121B12B202828A4200DC018231
:1016D0001022825E8A4206DC9B8AD21812B20282F3
:1016E0008A4200DB018210BDC8010020B402002044
:1016F00010B50D480E221221825E415E0B4B8A42CC
:1017000006DDDC8A121B12B2C2818A4200DCC18172
:101710000E22825E8A4206DC9B8AD21812B2C281F5
:101720008A4200DBC18110BDC8010020B402002044
:1017300010B50446204640300E230C21C35E615E86
:1017400002465B1A403003601023D35E0E22A25E75
:101750009A1AC261074841802046703000F08CF828
:10176000A08220468C3000F087F8E08201F0F8FD7E
:1017700010BD00007400002070B586B072B600265F
:10178000364C66616069E51428436061FFF7DCFD53
:10179000334846858685C68501F036FC01213148EF
:1017A00001F0A6FE0596304802E00599491C059116
:1017B00005998142F9D3009601960496039600207C
:1017C0002A4AA261E16AC907FCD0E16A03231943EE
:1017D000E1626169294361612049009B403900262B
:1017E0008E5F9B1900930C268E5F019B9B190193C2
:1017F00014268E5F029B9B1902930C268E5F039B1F
:1018000099190391401C80B2012149028842D8D322
:10181000FFF7C0FDFFF798FD62B60098401201B2D5
:101820000F484030C180019A521213B20381029ACC
:10183000521212B242810E4C09196000814205D841
:101840001919814202D81119814205D9094908881C
:10185000FF2201321043088006B070BD40040140F1
:101860008801002000070140FFFF0700A55A000083
:10187000AC0D000050000020026941690389511A33
:1018800059434389090153435918C3685918C16022
:101890000368994201DDC36003E04368994200DABE
:1018A000C360C168091442610846704710B5012140
:1018B000C80202F093F81E2001218907C86210BDFA
:1018C0007047000010B50E480069002800DA404259
:1018D0000C4A0421515E0C4B0C4C884205DDD88A21
:1018E000E083988AA083012007E04910814205DD4A
:1018F000588AE083188AA08300205080002010BD01
:10190000F8020020BC000020740200205C060020C9
:101910000F49104A896A4143C8130104906C091A9F
:101920004910081890640014012800DA01200123EE
:1019300009491B060B624862896A084B89B2998380
:10194000074BD886074B5943091351647047000071
:1019500074020020BC000020000B01403C06002067
:1019600088010020354F0200F0B58446184D174815
:10197000A862174B174E40339913B2420FD1164845
:101980001861164C164F54407C4027681548074094
:101990002760604648602068CF0338432060B24229
:1019A0000BD10D4818611048104C4240624010485D
:1019B00010600868400040080860002018610A684C
:1019C000520052080A60A862F0BD0000837A00004D
:1019D000800000401F360D9ACA8F00000A060CB026
:1019E0001530002AFF7FFF7F1A3401B015020D2A3F
:1019F000BADC547638B50E484179012916D10D4923
:101A0000C978002912D1417172B60B4A3F24640291
:101A100000212046FFF7A8FF0849054A009100234E
:101A200010320421204601F047FE62B638BD0000A6
:101A300078000020780100201F360D9A0CA4FD9A32
:101A4000F0B516481449C162154A014693894039D8
:101A50000B87D3894B870346124E803B5E677742E4
:101A60001F670024DC67158985825289C28206615E
:101A7000C76084610C4A02630246203A14737D22D7
:101A80005201DA860C83642181872C22C287403080
:101A900001834283F0BD0000864D00000802002053
:101AA00074020020000090E8093000007CB5034675
:101AB000344C354A20464030C1881588491B09B24C
:101AC0006D46298000899289801A02B26A802F4E61
:101AD000706A4143C8132080706A4243D113618009
:101AE00020884018404201B2A1800220205E401AA6
:101AF00027494843001460820021615E2182122040
:101B00001C22205EA25E50431E22A25E5143401A58
:101B1000C013A08110201C21205E615E1E2248435C
:101B20001221615EA25E51434018C013E081187912
:101B30002546803504280FD003280DD007280BD068
:101B4000092808D100206085A085E0852086608670
:101B5000A086286B80477CBDFFF740FD2046FFF73D
:101B6000E7FD204601F024FE286B804701F02AFDA6
:101B700001F064FC306A000C00B202F0B3FDE061D9
:101B80007CBD000088010020000401407402002098
:101B9000CE93000070B521490E20085E052802DAB8
:101BA000401CC88101E00120C8810E240C5F1D4942
:101BB0001B4D1D480A790C21695E4068230003F023
:101BC00002F8060D040E0D19240D1848007800289F
:101BD00004D12220285E164900F018FB70BD072AA8
:101BE000FCD1144A927A124B0C4A3833123200F06C
:101BF000BDF970BD072AFCD10D4A08488C32114648
:101C0000E039123000F0C2F870BD072AFCD1084B51
:101C1000024AA833123200F091FA70BD4000002051
:101C20008801002078010020F8020020C80500206B
:101C3000700400202406002010B50F4A884213DDEE
:101C4000508800280CD00020508000210B4801F063
:101C50004FFC09481030018801221143018010BD5A
:101C60005088401C508010BD50880028FBD0508800
:101C7000401E508010BD00004000002000070140C1
:101C800070B5364802F032FFFFF7B0FB344D2880C4
:101C90003448002404804480848028463C300480FA
:101CA0004480314802F042FF6880304802F03EFF35
:101CB000A8802846583004802D4802F017FFFFF70F
:101CC00095FB688128467430048044808480448277
:101CD000284802F00BFFFFF789FB2882264802F014
:101CE00015FFFFF78BFB6861244802F00FFFFFF739
:101CF00085FBA861224802F0F9FEFFF777FB2884F4
:101D0000204802F003FFFFF779FBE861AC854E2025
:101D10002885752068852846C8300480E03804701E
:101D2000048244828482448044608460C460164893
:101D30000480448084802846AC30048044808480C1
:101D4000C4808460C460048244828482C482048328
:101D500038300480448044822C8770BD00004040AD
:101D600034040020880100200000AF4300007043CD
:101D70009A99193E3333B33F008009450000484229
:101D8000CDCCCC3D0000F0415200002070B504469F
:101D90000020105E282802DA401C108070BD00254B
:101DA0001580605F0221615E82108A4207DC8A1022
:101DB0000421615E8A4202DC891081420BDD002130
:101DC000074801F095FB0748018840221143018034
:101DD00005490120088625806580A58070BD00002A
:101DE000000701405000002034040020F0B54648B0
:101DF0000021007801280ED1444A1170444A117024
:101E0000444A117091819180D18011815181424A5F
:101E10001170424A11703F4A103213885B0702D496
:101E200013881B072AD53F4F3D4C22230826E35E2B
:101E3000BE5F3D463C350424B34215DB0626BE5F3B
:101E4000B34211DC1023EB5EFF262D36B34202DADB
:101E50005B1C2B8209E01388A34313801388082698
:101E6000B3431380298200E02982012806D111881A
:101E7000A1431180138808218B431380118889079F
:101E800002D41188C90708D0012806D1118802237D
:101E9000994311801188814311801188C90605D5A5
:101EA000012803D111881023994311801188490614
:101EB00005D5012803D11188402399431180118849
:101EC000090605D5012803D1118880239943118083
:101ED0001188890505D5012803D11188430299434A
:101EE00011801188490502D4118809050AD50128F5
:101EF00008D1108801218902884310801088490088
:101F000088431080F0BD0000C80500209300002029
:101F1000900000204000002092000020910000204E
:101F2000880100203404002010B50C4900200880EE
:101F30000B4908821C3108821C310882888254397E
:101F4000088270310882074802F0F0FD044C583CCA
:101F5000E080054802F0EAFD208110BD500000201D
:101F60008C0400200080B64300007F43FFB583B09F
:101F700005460F461C461220205E282803DA401C26
:101F8000608207B0F0BD68420290002D01DB284658
:101F900000E00298654900264969884223DDA05F78
:101FA0000A2802DA401C20801EE060493420085EC6
:101FB000022808DA401C888600215D4801F098FA62
:101FC0005C4806710BE00021594801F091FA268027
:101FD000594A108810210843108054488686534877
:101FE0000121818500E02680002D01DB284600E0EC
:101FF00002984E49CA697942019190422EDA002F27
:1020000001DB384600E00198484920228A5E904270
:1020100024DD0220205E142802DA401C60801EE0CD
:1020200042493420085E022808DA401C88860021D4
:102030003F4801F05DFA3F4806710BE000213C4843
:1020400001F056FA66803C4A10881021084310803F
:102050003648868635480221818500E066800598ED
:102060000022825E31491020085E824209DC059917
:1020700002228A5E824204DC059904228A5E824240
:102080001BDD2A493420085E022808DA401C8886B5
:102090000021274801F02CFA264806710AE00021A9
:1020A000234801F025FA24480188102211430180B9
:1020B0001E4886861D48032181851C494869C21730
:1020C000920F10188010002D00DA029DA8422ADA23
:1020D000002F00DA019F2020085E4000874222DAAC
:1020E0000420205E322802DA401CA08049E7342018
:1020F000085E0D46022808DA401CA88600210C481C
:1021000001F0F6F90B4806710AE00021084801F0D9
:10211000EFF9A68008480188102211430180AE869D
:102120000420A8852DE7A6802BE7000034040020BA
:10213000000701407801002050000020F8B52B482E
:102140002B4E008800242B4F2B4D002804D05C829E
:102150003879072820D025E01220185E642802DA9A
:10216000401C5882F4E73220285E022807DA401C1F
:1021700068860021214801F0BBF93C71E8E70021A5
:102180001E4801F0B5F9308801214902084330802A
:102190000120E8856C86DBE73820285E642801DAB8
:1021A000401C2887288F642813D115480078002800
:1021B0000FD1144814494068884214DA3220285E4E
:1021C000022807DA401C688600210C4801F090F9CB
:1021D0003C71F8BD3088012149020843308002205B
:1021E000E8856C86F8BD6C86F8BD0000BE00002056
:1021F0005000002078010020340400200007014036
:10220000C8050020F802002088130000F8B50C462D
:10221000184902228A5E0025824203DC2088401C85
:10222000208009E004228A5E824203DD6088401C2F
:10223000608001E0258065800020205E0E4F0F4EFB
:10224000642808DB0021384601F052F925803088E7
:102250000421084330800220205E642808DB00212E
:10226000384601F045F96580308808210843308000
:10227000F8BD000034040020000701405000002099
:102280000246002001235B031146814089B2994236
:1022900003D8401C00B20D28F6DB704770B5224C05
:1022A00000252582658221482080AF208000608043
:1022B0007D200001A0801E48E0801E4EB17D1EA042
:1022C000FDF7CCFFB07D012800D9B575B27D642142
:1022D0001E48002A03D0B27D012A09D010E01C4A12
:1022E000C2601C4A026119229201A282E18207E0C7
:1022F000194AC260194A02614B221201A282E1828C
:1023000060631748A063174C9620E086A5861648A0
:10231000A08100F02DF8FFF793FB1E20A08105207F
:10232000A0731248608670BD7402002094110000F2
:102330001027000024060020B3F5CABCBBAFB5E7E8
:10234000BBFA3A20202564200D0A0000000000207E
:1023500008BD0300FC0800000AB60300FD090000E8
:10236000984D00005C060020F05500006606000055
:10237000F0B5FF4E0A20756B8BB0285EB46BFEF78C
:10238000EBFD0746FB49206902F0A0FC6169FEF7FE
:10239000E9FCA169FEF7E6FC3946FEF7E3FCFEF72F
:1023A00091FD70620020205EFEF7D6FDF24F009096
:1023B0003946206902F08AFCE169FEF7D3FC0099F6
:1023C000FEF7D0FCFEF77EFDB062012000076968D1
:1023D000FDF7E8FFF0620020205EFEF7BDFD0090F3
:1023E0003946206902F072FC216AFEF7BBFC0099B5
:1023F000FEF7B8FCFEF766FD3063A2896420424315
:102400006868D317C117C608490731434007FDF76D
:10241000EDFE0A05010BD94F114339836421686829
:10242000FDF7C0FF0004A189FDF7BCFFD44E7883FF
:10243000B081D448C06A8089708138462030818953
:1024400000914900D048FDF7A3FFF081642168683E
:10245000FDF7A8FF00040099FDF7A4FF30822A6968
:102460000092D317019319214904E86802F07BFB1D
:10247000019B009AFDF7BAFEA2890023FDF7B6FE84
:102480000121C903081A3860C049E868695E02F092
:102490006AFB020F090111430022A25E0001D3175B
:1024A000FDF7A4FE706564216868FDF77BFF069068
:1024B00002900A20285E0490C0170590029800261A
:1024C000C017039068690090C0170190A05F089042
:1024D000C0170990324603990298FDF75FFE019BF1
:1024E000009AFDF76BFE059B049AFDF767FE099BBA
:1024F000089AFDF77BFEA64A0023FDF777FEA54963
:10250000884202DA761C36B2E4E79D4A1065D6842A
:10251000A148029000980199C70C2A694E033E43D6
:10252000D31740033146FDF761FE80B2069F0026B7
:102530000090F8170390A08901903846324603991D
:10254000FDF72CFE012252030023FDF74FFE00236E
:10255000019AFDF74BFE7D218901884202DA761C43
:1025600036B2EAE7C1170023029AFDF727FE0023DF
:10257000009AFDF723FECA00410F804811434160D5
:102580001E3E012146738902818200262A690020AD
:10259000D31700931746205E804902F0E4FA3246D2
:1025A000FDF7FCFD3A46009BFDF720FE0A22AA5EDD
:1025B000D317FDF71BFEA2890023FDF717FE7D212F
:1025C000C901884202DA761C36B2DFE7744902F0AC
:1025D000CAFA0903000D084368490E3E88600846A0
:1025E00086730022A25E6F48A9695043FDF7D0FEB2
:1025F0006349C8640020205EFEF7AEFC06466A49C7
:10260000206902F063FB216AFEF7ACFB3146FEF75E
:10261000A9FBFEF757FC564908630020205E63497A
:10262000484302140A200092285E61494843061478
:102630007D21A089C900FDF7ABFE5E49F3178883B1
:102640004B480021008832460293FDF7B7FD2A6906
:10265000D317FDF7B3FDFF23009A87335A43009247
:10266000D2170192019B009AFDF7C0FD404980B24C
:1026700008810490A089FEF7E2F903913C490746DE
:102680004988049802F087FAFEF710FA00224A4BB4
:10269000FEF71AFA3A46039BFDF72AFFFEF782F986
:1026A000334932464881084600880021029BFDF7E5
:1026B00085FD6A69D317FDF781FD019B009AFDF73F
:1026C00095FD2B4980B288810090A089FEF7B7F96B
:1026D0000F46274906464988009802F05CFAFEF743
:1026E000E5F90022344BFEF7EFF932463B46FDF7A1
:1026F000FFFEFEF757F91E490822C8810846825E90
:102700001F480A2382850846C35E1D480E26C385DE
:1027100008460C21415E1A48194F01861448865F0D
:10272000174846861248808842439212BA86104A59
:102730004843D288801253439B12FB863946088750
:102740007243901248870A4801890C485830018129
:102750000748428909485830034642811C33198191
:102760005A81642115480A22818002837D2327E053
:10277000740200200046E246000020473C0600208C
:10278000BC00002008020020006CDC020A000000EF
:10279000CFFD00001027000010C9000040420F00CC
:1027A0002F880600F266010080908A47CE930000D1
:1027B0000A6A010050030020000024408C0300201E
:1027C000DB000380018182810182838200214180BC
:1027D00041814182C181C182C1804183605EA0216B
:1027E0004843010C604E0846B183FFF749FDF08372
:1027F00000230146E35EA02043431027781AC3401C
:10280000B38300203083FFF73BFD7083391AE1204A
:102810000001C84030830A20285E54494843800C98
:102820003080FFF72DFD014670800A20285E4F4A58
:1028300050431222511AC84030800020205E4C497B
:102840004843800DB080FFF71BFDF0800146002358
:10285000E35E474843431620401AC340B38068688C
:10286000010C31810846FFF70BFD70816A68381A48
:10287000C24032810A21695E3E48FDF789FD010CA4
:102880003D4E08463180FFF7FBFC708000900A2126
:10289000695E3848FDF77CFD00990346781AC3400D
:1028A00033800021615E3548FDF772FD000CB08079
:1028B000FFF7E6FCF08000900021615E2F48FDF7F5
:1028C00067FD01460098381AC140B1803F03384681
:1028D0006968FDF75DFD80B23081FFF7D1FC708142
:1028E0003B46834018466968FDF752FD308112204F
:1028F0003083FFF7C5FC87407083E121090138462A
:10290000FDF746FD30830021615E0A200125414329
:102910002D032846FDF746FD80B2B083FFF7B0FCDB
:10292000F0830021615E0A22514385402846FDF76D
:102930002FFDB0831248134AC18E5143090CC18642
:10294000818E92105143104A0914918004218173A1
:1029500002201146C880A0890A21484380091146F7
:1029600008810BB0F0BD0000AC0300205B23000029
:10297000181700008DF61C00CC030020B172C502B0
:102980005C060020402F0200BC0000200748002207
:10299000418E01814260818E0B045B428361090498
:1029A0000262416102484266704700005C060020F6
:1029B000BC000020F0B52848857A284901270B89FA
:1029C000274C0022022D0BD0867AE1252D01012E05
:1029D00012D0867A002E1ED0817A032928D02BE0CF
:1029E0005B1C9BB20B817D25ED00AB4224D982722A
:1029F00002743C230B811FE0067C6423012E02D06D
:102A0000467C012E01D182720B81868AAE4213D997
:102A100082720B8110E0002B02D05B1E0B810BE059
:102A2000818AA94208D2417C002905D1877203E03E
:102A30002188002900D182722188002901D0032138
:102A40008172817A012904D0817A022900D1C2746D
:102A5000F0BDC774F0BD00002406002078000020FF
:102A600050000020704770B5002301252A469A4087
:102A70000C681440944230D10C79002C04D0012C05
:102A80000AD0022C10D012E00468164626430660D5
:102A90004468944344600AE00468944304604668D0
:102AA00014463443446002E04468944344604C79E3
:102AB000012C04D0022C0AD0002C05D007E00469B8
:102AC00016462643066102E0046994430461846962
:102AD0008E68012E05D0944384615B1C102BC5D3F6
:102AE00070BD1443F8E70000F0B5384F140115022B
:102AF00016030B0002F067F810090E151B21262D96
:102B000033393E454B51565D630D016A3940891892
:102B10000162F0BD016A2D4AE13A1140611801627B
:102B2000F0BD016A2A4A114069180162F0BD016ACC
:102B30000905090D71180162F0BD416A3940891813
:102B40004162F0BD416A214AE13A11406118416297
:102B5000F0BD416A1E4A114069184162F0BD416AE8
:102B60000905090D71184162F0BD816A3940891863
:102B70008162F0BD816A154AE13A114061188162B3
:102B8000F0BD816A124A114069188162F0BD816A04
:102B90000905090D71188162F0BDC16A39408918B3
:102BA000C162F0BDC16A094AE13A11406118C162CF
:102BB000F0BDC16A064A11406918C162F0BDC16A20
:102BC0000905090D7118C162F0BD0000F0FF000099
:102BD000FFF000004163704701637047002101600E
:102BE00001714171816070473EB56846FFF7F6FF9D
:102BF0000120694608717D2040020090114C20465A
:102C0000FFF731FF032209212046FFF76DFF032262
:102C10000B212046FFF768FF03220C212046FFF717
:102C200063FF03220D212046FFF75EFF03220E21E2
:102C30002046FFF759FF03220F212046FFF754FFDC
:102C40003EBD00000008014070B52B482B4CC08EE3
:102C50000101E068091A89120818E060001100B249
:102C6000E080274A0125AD02904201DB65810FE03B
:102C7000AF23FF211B01F531984208DB101A832294
:102C800092005043FDF78EFB281A608100E06181BD
:102C90001C4801F03BFFFEF7B1FB80021A4D800A91
:102CA00028601A48AF2100888900194E884202D84E
:102CB0002078022814D0174801F028FFFEF79EFB69
:102CC0000A21615E4843800A6860304601F01EFFB9
:102CD000FEF794FB0A21615E4843800AA86070BD3C
:102CE000304601F013FFFEF789FB0A21615E48437D
:102CF000800A6860E9E70000880100207800002071
:102D0000E40C00000000B144180600205E00002022
:102D100000C0DC440080D6447047000010B5044673
:102D20000121022000F07CFEA078218800040143EC
:102D3000E0782279000512061043014360794006CD
:102D40000143A07980060143E07900070143207A1E
:102D500040070143207C8007014303480160E1688C
:102D6000C1600021416010BD0003014000B585B085
:102D70000121022000F054FE684600F015F8012001
:102D800040026946088000208870C87001200871E0
:102D9000C8710872034803906846FFF7BFFF05B08B
:102DA00000BD0000007C9200074901800021817075
:102DB0000122C2700271C2714171817101727D2262
:102DC000D200C26001747047FF03000010B572B6F4
:102DD0002B482C4988622D482B4901600F2189021C
:102DE0004160012000040168C2001143016001211B
:102DF000001200F015FE01F0E5FDFEF7CBFA00F041
:102E000047FA01F04DFEFFF7EFFEFEF74FFD00F031
:102E10005BFBFEF7BDFBFFF7A9FF01F055FC64204B
:102E200000F012FE0221082001F0E6FE01210A2036
:102E300001F0E2FE0221072001F0DEFE0221084639
:102E400001F0DAFE0021092001F0D6FE0221002067
:102E500001F0D2FE0221012001F0CEFE0A2001F095
:102E6000BFFE022001F0BCFE012001F0B9FE0820E7
:102E700001F0B6FE092001F0B3FE62B610BD0000FD
:102E8000837A000080000040B4A60000000C0140DE
:102E9000F8B5454800250079444E072815D1444827
:102EA00044490069884210DD4348008800280CD15D
:102EB000308A4B210901884207D34048807A012893
:102EC00003D13F480078002806D0B574374CB07D58
:102ED0002034012803D01FE00120B074F6E7F07C15
:102EE000002819D1B07C012816D1A070E078401CD0
:102EF000C1B2E1702D4F0B2020373856A27A32270D
:102F0000304B7843012A1DD0632900D9E570E17860
:102F100049084018185C2073B07C2B4F012819D049
:102F200010212A48FFF758FE3563A570387800282D
:102F300037D0308D002801D0401E3085308D0028DC
:102F40002AD02EE0312900D9E570E178C018085C5C
:102F50002073E1E7A0780128E8D1306B401C306392
:102F600031793229E2D1B18C8842DFD33563207BBD
:102F7000012806D010211548FFF72EFEA5703D70E0
:102F8000D4E710211148FFF725FEA5700120387005
:102F9000FF200F303085C9E710210C48FFF71CFED9
:102FA0003D70F07CB075F8BD78010020A8050020C8
:102FB000F8020020983A000050000020240600206B
:102FC00090000020BC4D0000580000200008014087
:102FD0007047000010B50A4C6069C00602D46069F1
:102FE00080060BD506480021803800F081FA302099
:102FF00060610448018802221143018010BD000075
:103000008007014050000020F0B51048C77C104AEE
:103010002A25555F2C24145F2E236942D35E0EB2FD
:1030200061425A420B4809B212B2002F06D0018009
:1030300084800681858102828382F0BD068085803E
:103040000181848102828382F0BD00002406002079
:10305000880100200007014070470000F8B50646CF
:103060000D460121102000F0DBFC30468249803003
:1030700001636A79297992001143AA7AEB7A1201E5
:103080005B011A431143AA7992011143EA79D201F3
:1030900011432A7B120211436A7B52021143F167EA
:1030A0002988316369887163E98B3162298C716287
:1030B000698CB162A98CF162697A2A7A090211439A
:1030C000316729462031CB7D8A7D5B001A438B7F97
:1030D000EC8A9B01E40123431A430B7E1B021A4333
:1030E0004B7E5B021A43CB7F9B031A432B8BDB0384
:1030F0001A430262CB7E8A7E5B002C461A43403420
:1031000023786F8B9B01FF013B431A430B7F497F61
:103110001B021A4349020A43617889030A43A98BB7
:10312000C9030A434262A27B217B92001143A27A27
:10313000E37A12015B011A431143627B520011438F
:10314000E27BD2001143227CD2011143227E120283
:103150001143E27D52021143A27E92021143627E2C
:10316000D2021143227F12031143E27E5203114324
:103170008162627DE17C92001143627CA37C12013A
:103180005B011A431143227D52001143A27DD200FC
:103190001143227CD2011143627F12021143A27FAC
:1031A00052021143C1622279A1781201114362795E
:1031B000237A52019B011A431143E2781202114310
:1031C000A27912031143E27952031143627A920306
:1031D00011437167E98C3165298D7165A18EB167E5
:1031E000E989B164298AF1641221695EB16314210D
:1031F000695EF16360352A78E17F520011436A7895
:10320000AB789202DB021A43114301602A79E97814
:10321000520011436A79AB799202DB021A431143DF
:103220008160E97B2A7C0901520111436A7C920189
:103230001143AA7CD201114301612A7AE979520033
:1032400011436A7AAB7A9200DB001A431143EA7A9F
:10325000120111432A7B520111436A7B92011143EF
:10326000AA7BD20111438161044931644160C1608C
:10327000416103490163F8BDADDE0000FFFF0000BE
:10328000FECA000010B57621FDF77EF810BD0000E3
:1032900000B59FB001A8FFF7F5FF00206B4618723C
:1032A000012159729972D97258839883D8831E4A22
:1032B00010AB1A870C226B461A7359730F229201B6
:1032C0009A80DA80194A5A849F22D2439A843E22F5
:1032D0005A859A85DA851A865A869A8608AB987630
:1032E000D8760F9010AB9870D8701871D876179068
:1032F00018AB187010AB1875197258729972D87291
:1033000018ABD870D874197510ABD9735974D874B8
:1033100001A90748FFF7A2FE05488030006A054969
:1033200088831FB000BD0000FF1F0000B60300002F
:1033300000070140EC0300200749087D0007000F4B
:103340000871064A012803D900200870907570475B
:103350009075087070470000780000202406002057
:10336000F8B52D4D16222D4CAA5E22851421695EDA
:103370006185E88E2A4B2A4E58432B46DB8E00147B
:1033800073431B145B42824201DD024602E09A4213
:1033900000DA1A4612B22285814201DD014602E0BE
:1033A000994200DA194640435243801A09B21D4A35
:1033B00061851063506B002900B201DB0A4600E012
:1033C0004A42824203DD002900DC40426085164803
:1033D000216C006A4018001401F084F9E8611C2295
:1033E0001E21AA5E2826695E2A20A65F205E174657
:1033F0000B4677434343FB1A714342438818C0137B
:1034000001B2606CDB131BB24343DA1341432A83DE
:10341000C8136883F8BD000088010020BC000020AC
:1034200000130100000B014074020020024800213B
:10343000C1608161816070475003002030B50D4844
:103440000D4A0E4B047998691169042C0DD20C4D6C
:1034500014682D8B64106C43DD696419DC6118629B
:10346000516008490120487030BD18625160D86130
:1034700030BD000078010020F80200207402002016
:103480003C060020BC0000200421415EC900826887
:103490008A4206DA0023C35ED21882608A4200DBC9
:1034A000816082688A4206DD0223C35ED21A82608E
:1034B0008A4200DA81608268D310C3808A4201D1D7
:1034C000012070470020704710B50121480200F02C
:1034D00085FA064904488862C80501698908890097
:1034E00001610169016110BD837A00008000004024
:1034F000084A80300263012906D0816A064A1140D9
:103500008162064901637047816A402211438162EA
:10351000F7E70000ADDE0000BFFF0000FECA0000BC
:1035200070B5214D2148698A0181A98A4181002411
:103530001F49182204608A5EC460514241602C70A9
:103540006C83AC83143004601A49C4604160E98A1A
:103550000181298B41811549174838390A46434270
:1035600009C11C32D46009C20B463220603B4C605A
:10357000D882124806890E8046894E808189118042
:10358000C1895180EC650E4A2C66116869668461B8
:103590001161AC651C610A21AC66C1872C64FFF720
:1035A000F5F96C8070BD0000BC000020CC06002046
:1035B000C8010020E0FCFFFF00007017740200202B
:1035C000F8020020F0B5344E22213046415E26221A
:1035D0007588825E046D436DC9003048AC46012D8C
:1035E00000682F4D3FD040350E27EF5F67437C13B7
:1035F0001027EF5F5F437B13C91A6043104108181F
:1036000028494042884202DC4942884200DA0846A2
:10361000F083308421482021C28B715E036A4A43C3
:103620009A180262838B52134B4319138A18026053
:10363000C18E8A4202DC0160490301620068716E3A
:103640000203521A921151187166174A0913116137
:10365000B189164A4843F16B0918F16391616146DB
:10366000002907D007E00C27EF5F67437C130E2784
:10367000EF5FBFE700203064308D7084084A162069
:103680001421105E515E40434943411808480163CC
:10369000406B08490882F0BDBC0000205C06002099
:1036A00088010020E02E0000F802002074020020B3
:1036B000000B014050030020FEB5089B012400943C
:1036C000334C324DA562334C01263604A3424FD110
:1036D0002F4C314D40346561304D314C6B4063406F
:1036E0001C68304D2C401C6070601C68F5022C4337
:1036F0001C601346C91C8F08BF000197029015E09B
:10370000029989088900716019785C782402091986
:103710009C78DD7824042D0664190919B1601B1DFD
:103720000199091F01910299091D0291019900292E
:10373000E6D10197029018E002988008800070603E
:10374000107853781B02C0189378D4781B04240691
:103750001B19C018F368834200D00091121D019814
:10376000001F01900298001D029001980028E3D1EB
:10377000074900204031486131680B4A11403160EF
:103780000349886268460078FEBD0000837A000025
:10379000800000400CA4FD9A358F00000F045C6A85
:1037A00003A0A0F0FF7FFF7FFFF7FFF77047000047
:1037B000F0B5418B85B049420AB242831826865F34
:1037C00069468E818149824B4A43B103511849426F
:1037D000CA17520C5118C9130DB26946CD8171191F
:1037E00049420AB269460A8201462031AE425BDC98
:1037F000964230DC954204DC01244C760C7614466B
:1038000003E002244C760C762C463419E70F3C1961
:103810006410361B36B22D1B6F462DB2121BBE81B3
:10382000FD81AC1B012512B2AD033A82641BBB8043
:10383000AC4201DD2C4602E09C4200DA1C46921BA1
:10384000521BFC80AA4201DD2A4602E09A4200DABD
:103850001A463B465EE05419E70F3C196410361BCC
:1038600036B22D1B6F46121BBE8112B2B41A01264E
:103870002DB2B603FD81A41B3A82B44201DD344669
:1038800002E09C4200DA1C46AA1A921BBC80B2429B
:1038900001DD324602E09A4200DA1A46FA803B81A4
:1038A00003224A7602225FE0954235DC964205DC2F
:1038B00004244C7601240C76144604E005244C764E
:1038C00003240C7634462C19E70F3C196410361B80
:1038D00036B22D1B6F462DB2121BBE81741B012602
:1038E000B603FD8112B2A41B3A82B44201DD344614
:1038F00002E09C4200DA1C4627466C46521BA78019
:10390000921BE380B24201DD324602E09A4200DAC5
:103910001A4623461A8128E09419E70F3C196410CF
:10392000361B36B22D1B6F46121BBE8112B2B41A63
:1039300001262DB2B603FD81A41B3A82B44201DDFB
:10394000344602E09C4200DA1C46AA1A921BBC8054
:10395000B24201DD324602E09A4200DA1A46FA80AB
:103960003B8106224A7603220A766C22125C002AE8
:1039700003D1049B039A029301926B4604229A5E40
:10398000144B0125AD031B8852195A43D4131A4610
:10399000643A944200DD144644856E460624345F42
:1039A00064195C43E413944200DD144684850824C2
:1039B000345F64195C43E313934200DC1A46C2850A
:1039C000012048760220887605B0F0BDDA6E00004E
:1039D00000C0FFFFC60000207047000010B50F4C6C
:1039E0000D4AA26223151A0501290BD0410503D502
:1039F0001169194311611843116981431161002054
:103A0000A06210BD410503D5116999431161984326
:103A1000116901431161F2E7837A000080000040E0
:103A2000084A074B9362002903D0D1690143D16151
:103A300002E0D1698143D1610020906270470000AB
:103A4000837A00008000004008B50021009103E067
:103A500000BF0099491C009100998142F8D308BD2C
:103A600010B542680168891A4162084A914201DD35
:103A7000114604E0054A5242914200DA1146416281
:103A8000183000F01BF80249C88110BDFF7F00000C
:103A9000C80100200268C1688A4205DA836BD21827
:103AA00002608A4200DB016002688A4205DDC36B66
:103AB000D21A02608A4200DC01607047F1B588B01A
:103AC00008980068C117820A8D0515438405089877
:103AD0004068C117820A8F05174386050898089A1F
:103AE000C0680790C117069152890023FCF766FB56
:103AF000089AD1619061059104900898059903692D
:103B00004269049818184A4108994A6108611146A7
:103B1000039202900A462946201A914103DA089836
:103B20004561046107E002990398891BB84102DAF4
:103B3000089847610661089A002312890699079838
:103B4000FCF73CFB420EC9011143C001089A1369FE
:103B50005269C0185141089AD16190610191009059
:103B60002A46201A8A4103DA0898C561846107E071
:103B700000990198891BB84102DA0898C7618661EB
:103B800008988169007F8202880D104300B209B055
:103B9000F0BDC168C90142698A4206DA1023C35EDA
:103BA000D21842618A4200DB416142698A4206DDE5
:103BB0001223C35ED21A42618A4200DC416170471F
:103BC00070B5164800240460154A0220105E154B9B
:103BD000411C154D09B20A2803DA51809888A88043
:103BE00009E0142803DA51801888A88003E00F49FF
:103BF0000420087154800E4E304600F077FF288074
:103C0000304600F073FF68800748FFF73DFC094825
:103C1000C48144828482048270BD0000F8020020C6
:103C20000C040020B402002074030020780100205E
:103C30000AD7233CC8010020F8B53C4E3C4FB07B6E
:103C40003D468035002400280BD03A493A4B085FA6
:103C50003A493B4A002814D0642823D0C82829D0E8
:103C60002FE00120B073FF2021307885B885F885DA
:103C7000404238867886B886286B80472D48048075
:103C800045E00B63908B2F4B18430862908B0C22FE
:103C9000104348620C63294801218038FFF728FC53
:103CA00000BF0EE00B63908B274A104308620C6341
:103CB00000BF06E00B63908B0822104348620C6340
:103CC00000BF1C490020085EFF222D32904202DA1C
:103CD000401C08801BE0194800218038FFF708FCD1
:103CE00072B67C85BC85FC853C867C86BC86286B50
:103CF00080471249FF2040390860FFF7C9FA13488E
:103D00004169C2141143416162B60120F073F07B36
:103D100001280AD1B47307480480F47300F028F82E
:103D2000064801218038FFF7E3FBF8BDB40200200C
:103D3000880100200C040020ADDE00008007014057
:103D4000EC030020080C00000C08000040040140B7
:103D500010B505490020C87000210448FFF7C8FBD2
:103D6000FEF744F810BD0000780100200007014074
:103D7000F8B500218448FFF7BBFB844800F0C6FE7D
:103D800083490882834800F0C1FE81494882824805
:103D9000002484778049782008840C2048840846D1
:103DA0008480448004808460846144610482C460AF
:103DB000FFF73CFB794FBC7075488473C4730020D7
:103DC00000F082FE72498881754D284600F08EFE13
:103DD000FDF70CFB6E498882284600F087FEFDF750
:103DE00005FB6B49C882FF206E4DE130288068805A
:103DF000A8802E468036306B8047284640300482AB
:103E0000C481EC81AC812C826C82848244822C80BF
:103E10006C80AC802C866C86AC86B4613462EC67B6
:103E200074602C836C83EC82AC82AC84EC842C8533
:103E3000002000F05BFE564908605B4800F056FE2B
:103E400053494860594804824482446184808460B4
:103E5000C480574800F05AFE4D4988600846847770
:103E60008483544884800A20F8807D20524D40018C
:103E70002884524868840021A962E962504E304685
:103E800000F034FEFDF7B2FAA861304600F02EFED5
:103E9000FDF7ACFA4042E8616C622C60EC60494E80
:103EA000304600F033FEFDF7A9FAA863304600F073
:103EB0002DFEFDF7A3FAE8636C606C64334800F0F4
:103EC00025FEFDF79BFA28643F48A8643F48007C24
:103ED000002807D13E4800F009FEFDF787FA294681
:103EE0004031C8813B4800F011FEFDF787FA286594
:103EF0003948046084600021016241620521018328
:103F000004614461FEF7CAF9FFF70AFB284800F094
:103F1000FDFDFDF773FA31498887314800F0F6FD61
:103F2000FDF76CFA1A4DE8632E4800F0EFFDFDF73F
:103F300065FA28642C48048044808480C48004810D
:103F400044818481FDF79CFE00257D5FFDF722FA08
:103F50003888401B02D43888401B01E03888281A72
:103F60000228F5DB2148F021C180C821018141816F
:103F7000AA2181818484C48432210171094960317C
:103F80000C730482F8BD00000007014000002041CE
:103F9000B40200200000A04150030020780100205E
:103FA000CDCC4C3E88010020CDCC0C3F74030020CA
:103FB0000000704232000020F8020020701700005C
:103FC0009A99193F0000404039040000240600205F
:103FD000CDCC0CBF0000AF43380500207402002098
:103FE0000000F041000048430C040020A805002018
:103FF000F8B5304DA87F00285BD12F4C2846A1781A
:1040000080682E4E002927D04042F060002000F04A
:104010007DFD30822A4800F079FD70822748FFF745
:10402000B8FD7069274EC011F060FDF7E7F9306008
:1040300025488169C069081A2862002800DA4042D0
:10404000001428622149002640182149884205D2DF
:10405000A88C401CA88402E0F060D7E7AE8407205B
:1040600020710120A877A1781A481B4C002902D0A2
:10407000012906D00BE000F039FDFDF7B7F96082A9
:1040800005E000F033FDFDF7B1F940426082134FC7
:10409000384600F02BFDFDF7A9F9A882384600F05C
:1040A00025FDFDF7A3F9E882FDF702FBFDF720FBF4
:1040B000A682F8BDB402002078010020740300201D
:1040C0000000A041F8020020740200202FF8FFFF3A
:1040D0007F3E0000CDCC0C3FC8010020CDCC4C3E33
:1040E000F8B5754A0C21515E744B0026744D754C21
:1040F000022911DA74480088012809D128690028AA
:1041000000DA40421B6C984202DD491C918100E0BC
:104110009681FDF7EDFA5CE006206949105E49687A
:1041200002280EDA401CD0800E20205EC217830ABF
:1041300092051A438005EA62A8622960FDF7D8FA61
:1041400047E09F8B7F1C3FB29F83002F41DB9E8304
:1041500002280DD10320D0801222A25ED017930A2C
:10416000800518439205AA62E8622960FDF7C0FA4B
:104170005648827A5649012A03D0807A022806D00E
:1041800007E05448007880000858E86001E00868BB
:10419000E86051488078002802D0012806D00AE063
:1041A000E868002807DA4042E86004E0E868002890
:1041B00001DD4042E8604948494F0178012911D0AA
:1041C000012141703E48FFF765FC3D48FFF748FC80
:1041D0003E804448007801280AD03C48807A002874
:1041E00006D008E0404806803E80FDF781FAF0E7FF
:1041F0003A49012008703948017832484030012995
:1042000004D02969002928DB0A4627E0818F21870D
:10421000C18F61872B4980310A8B8282498BC18291
:104220002A48007C264F4037012806D12F4800F04D
:104230005DFCFDF7DBF88010F881F8896082286961
:10424000002800DA4042296D884230DA22480921EC
:10425000017122480670867029E04A42244D254BA0
:10426000AA420CDC9D892587DA89628719898182B7
:10427000C1821A48C18001814581828117E00029ED
:1042800000DA49421C4A914211DB99897D2292024F
:104290005143090C2187D989184A5143090C618778
:1042A00019897D2292025143090C8182C182A68222
:1042B000FDF7FEF9F8BD00000C040020B402002058
:1042C000F8020020C8010020BE00002024060020C3
:1042D0001806002094000020780100203200002001
:1042E000D6000020C8050020D8000020CDCC0CBF8F
:1042F00070170000740200201027000000C409009D
:1043000006490A20085EFA2802DA401C48817047F4
:104310000020488102490871C87070470C040020D1
:104320007801002070470000F8B5484C484E2079CD
:104330000025484F030000F046FC0C07231E2C2FDD
:1043400057573257494C51573078002808D14248C6
:10435000807A002804D00120E07041493F4808607D
:10436000FFF706FDE07800283ED03D493B48086055
:104370000220207138E0FFF75FFC0120207133E05C
:10438000FFF7F6FC01213748FFF7B2F80320207150
:104390002AE0FFF715FC27E0FFF72AFE24E02C496E
:1043A0004B222039088A1201904201D2401C088217
:1043B000FFF796FEE078002816D13888002813D140
:1043C00000212848FFF794F825710DE0FFF798FFCA
:1043D0000AE0E088002807D0257105E0FFF7B8FC67
:1043E0003888002800D12571E078002809D1388864
:1043F000002806D100211B48FFF77AF8C820E0808A
:1044000025713888002805D000211648FFF770F87C
:104410000B2020713078012804D113488586458609
:10442000124805800F4C80346069C00602D4606970
:10443000800609D500210B48FFF75AF8302060614B
:104440003888022108433880F8BD00007801002038
:10445000C80500205000002024060020C0DA00001B
:104460008400002000070140340400204A0000209E
:1044700000B5FDF7D9F800BD704700001648016A85
:1044800004221143016215480179491C0171C18858
:10449000491CC1800189491C01814189491C418114
:1044A0000F480078002816D10E480088000612D464
:1044B0000D48007800280ED10C48007801280AD059
:1044C0000B49002008800B4908800B4908800B49E4
:1044D00008700B4908707047000601406801002011
:1044E000C80500205000002090000020950000200A
:1044F00096000020980000209A0000209C000020D8
:104500009D00002070B505460C462748854203D122
:1045100001212020FFF784FA2448854203D101219C
:104520004020FFF77DFA20782179C007C9060843AB
:10453000217A89060843217B09060843218A090557
:104540000843A18A09040843E16909030843216A71
:10455000C9020843616A89020843A16A4902084303
:10456000E16A09020843616B09010843A16BC900B4
:104570000843E16B89000843216C49000843616CE2
:1045800008432860A0696860E06CA860A06CE860DF
:10459000206B2861206D6861606DA861A06DE86185
:1045A0000720286270BD00000005014000060140A0
:1045B0000021016041608160C160016141618161F0
:1045C0000122C261026241628162C1620163416390
:1045D0008263C163016441648164C16401654165B2
:1045E0008165704710B51049887A01230F4A032866
:1045F00017D00020D0710D48FD2410300470437096
:10460000FA2383708B7DC370897D094B1970D17932
:104610000171C3785918C9B2D1814171FC218171EE
:1046200010BDD371E7E70000240600209E000020A3
:104630007800002070B5FF201D49163008801D4D00
:10464000002428790A2819D32C711B4EF0880028E1
:1046500001D0401EF080FDF79DFA00F0CBF9FEF787
:10466000F3FA16480088002801D00B203071FFF7BC
:104670005BFE13492220085EFDF724F9E8886428D0
:1046800002D3EC8000F0B0F928897D21C90088426E
:1046900000D32C8168890B49884204D36C8100F0D7
:1046A00009FB00F0ABF9A878002800D0AC7070BD11
:1046B0003000002068010020780100205000002018
:1046C000880100208813000010B50549034888625E
:1046D00001210803FFF782F910BD0000837A000072
:1046E0008000004018B50121C903411809048A0D52
:1046F000032109020A400121C90340188004010E68
:104700004800FF24611A154B4900002A16D0FF3AD1
:10471000013A1BD0FF3A013A03D0FF3A013A1BD1CC
:1047200005E0185A6A465080585A108014E0595AC9
:104730006A465180185A404210800DE0185A6A4665
:1047400040425080585A4042108005E0595A6A460B
:1047500049425180185A1080009818BD80570000B7
:10476000F8B5FFF73FFF2B4C2B4D2078012802D0E6
:10477000A079002825D1274E1736F17830790A180C
:10478000D2B2628173780127012B08D1B378022B52
:1047900005D1B379FA2B02D17379934201D06770B6
:1047A00008E02172607200290FD0012913D01BA0EC
:1047B000FBF754FD00202070A97D1CA0FBF74EFDE7
:1047C000A770A07801280DD00FE0002801D00128A3
:1047D000F0D1A875EEE7002802D000206874E9E760
:1047E0000120FBE7A089401CA081A079012810D1FD
:1047F000A08964280DD9A97D0CA0FBF72FFDE079D5
:10480000002804D00F4801880FA0FBF727FD0020E7
:10481000A081F8BD9E00002024060020C3FCC1EE4C
:10482000B4EDCEF32021200D0A000000B5B1C7B0D1
:10483000B5E7BBFAC4A3CABD3A20202564200D0AFF
:104840000000000050000020B4EDCEF3207374721D
:10485000755F4661756C74732E52203D2025640D82
:104860000A000000F8B5134C1348E17827461737C3
:104870000026012500290ED000F090F8E178785448
:10488000491CE170E078062804D9E6702570A5710E
:10489000A670A681F8BD00F081F8C0B23870E1784A
:1048A0000029EFD1552801D06570EBE76670E570FF
:1048B000E8E700009E000020000901400162704707
:1048C000006A002801D001207047002070470000D6
:1048D00010B50B4C2046FFF7F3FF002805D002214E
:1048E0002046FFF7EBFFFFF7BDFF2046FFF7E8FF8D
:1048F000002803D001212046FFF7E0FF10BD000093
:1049000000090140F8B506460C4601210420FFF7D6
:1049100087F800251E482168FBF73AFD00901D4FDF
:1049200004E06D1C691C0098FBF732FDB842F8D812
:1049300019498D61401EC1B2B1600004000E706063
:10494000E07901281ED002281FD0002100206379C1
:1049500022795B001A43A379C0009B0003431A43EA
:1049600008010243207A400102433260E17BA07BD0
:1049700049000843706260893061607BB061207BD0
:10498000F061F8BD01210020E1E701210120DEE70F
:10499000006CDC02FFFF000080000040C068704730
:1049A000C16070474B21C901016000210171417153
:1049B0008171C17101724173418101738173C1734E
:1049C000704700001FB56846FFF7ECFF4B20C001A1
:1049D0000090002001900220694608730148FFF70B
:1049E00091FF1FBD0009014010B5FDF7E3FFFFF780
:1049F000B7FE10BD10B5FCF7FDFF10BD70470000FD
:104A0000FEB56846FEF7EAF8002468460471447172
:104A1000FF2001300090144E69463046FEF723F81F
:104A20006846FEF7DBF801256846057145712020D0
:104A3000009069463046FEF716F86846FEF7CEF855
:104A40006846047145711020009069463046FEF7B3
:104A50000AF8042205213046FEF746F804221146E2
:104A60003046FEF741F8FEBD0008014000B5094898
:104A70000021417481750122C274817281820648CD
:104A8000C1863F204002054900684861FEF754FC9A
:104A900000BD00002406002034040020780000201F
:104AA00000B597B06846FFF783FD012000904B20CA
:104AB000800106900420169069460248FFF722FD07
:104AC00017B000BD0006014070B50546064C208BAE
:104AD000FCF74AFA294600F0F9F8FCF7F3F9A17E51
:104AE000084180B270BD00008C03002070B50546FF
:104AF000054C2088FCF738FA294600F0E7F8FCF767
:104B0000E1F9A178084170BD8C03002070B505461D
:104B1000054C2089FCF728FA294600F0D7F8FCF765
:104B2000D1F9A17A084170BD8C03002010B5FCF7C3
:104B3000EFF8074A074BFBF7C7FF0022064BFBF7CE
:104B4000C3FF064A064BFBF7D3FCFBF7F5FE10BD8F
:104B500072DF92CEF66A7D3FC0FFDF40CDCCCCCC79
:104B6000CCCC0C407047F8B504148BB2264682B208
:104B70005E430D1410463714584336048019002143
:104B8000794116466E43371436048019794126461A
:104B90006E438919F8BDF8B5040C8BB2264682B273
:104BA0005E430D0C1046370C584336048019002123
:104BB000794116466E43370C3604801979412646F2
:104BC0006E438919F8BD30B47446641E2578641CA0
:104BD000AB4200D21D46635D5B00E31830BC184752
:104BE000002805DBC106C90E012088400149086084
:104BF0007047000000E100E08307FF22DB0E9A40CF
:104C00008907090E9940002808DB830809489B00A2
:104C10001818036893430B43036070470007000FA5
:104C20000838830804489B001818C36993430B4352
:104C3000C361704700E400E000ED00E07047000051
:104C400070B50546044CE9B22046FFF7A9FE60693D
:104C5000C007FCD0284670BD0009014009488168A2
:104C6000021411438160FFF7CBFEFEF7AFF8FFF7A8
:104C7000FDFE00F00DF805490348088062B6FFF715
:104C8000D9FCFCE780000040C40900002A01002094
:104C900010B5FCF771FDFDF701FBFCF7F1FFFDF727
:104CA00043F903490148C86010BD00007C4D000075
:104CB0006801002004490A790878824203D008710B
:104CC00008610120487170477800002070B54200EB
:104CD00064414B005C41120E39D01B0E38D0FF2AC4
:104CE0003CD0FF2B3AD040024902400A490A060054
:104CF00045184E43000A090AD2184843ED017F3A8D
:104D00000104731A4019190C4318990F04D001219A
:104D10005B0849075B1A521CD80904D3401CF503F1
:104D200001D19D0607D0FF2A08D2D50506D0E40799
:104D30002043401970BD0125A843F4E7002A01DC97
:104D4000E00770BD2402FF202043C00570BD1B0E8C
:104D5000FF2A03D0FF2B01D0E00770BDFF264500DE
:104D60003606B54206D84D00B54203D8D218FF2A00
:104D700000D0E7E7004870BD0000C07F5665725F55
:104D8000332E390000000000000000000000000089
:104D90000000C003660200001C0C000000001405A7
:104DA000E0930400A861000066666640CDCCCC3D6F
:104DB000A4709141B657EB3B5E06A33B0000000098
:104DC00000000000000000000000000000000000E3
:104DD00000000000000000000000000000000000D3
:104DE00000000000000000000000000000000100C2
:104DF00000000000000000000000000000000000B3
:104E000000000000000000010000000000000000A1
:104E10000000000000000000000000000000000092
:104E20000100000000000000000000000000000081
:104E30000001000000000000000000000000000071
:104E40000000010000000000000000000000000061
:104E50000000010000000000000000000000010050
:104E60000000000000000000000000010000000041
:104E70000000000000000001000000000000000031
:104E80000000000001000000000000000000010020
:104E90000000000000000000010000000000000011
:104EA0000000010000000000000000000100000000
:104EB00000000000000001000000000000000100F0
:104EC00000000000000001000000000000000001E0
:104ED00000000000000100000000000000000001D0
:104EE00000000000000000000100000000000001C0
:104EF00000000000000001000000000000010000B0
:104F0000000000000100000000000001000000009F
:104F1000000001000000000000000100000000008F
:104F2000000100000000000100000000000100007E
:104F3000000000010000000000000100000000006F
:104F4000010000000000010000000000010000005E
:104F5000000001000000000100000000000100004E
:104F6000000001000000000001000000000100003E
:104F7000000000010000000001000000000001002E
:104F8000000000010000000001000000000100001E
:104F9000000001000000000100000000010000000E
:104FA00000010000000001000000000100000000FE
:104FB00001000000000100000001000000000100ED
:104FC00000000100000000010000000100000000DE
:104FD00001000000010000000001000000010000CD
:104FE00000000100000000010000000100000001BD
:104FF00000000001000000010000000100000000AE
:10500000010000000100000001000000010000009C
:10501000010000000100000100000001000000018B
:10502000000000010000000100000001000001007C
:10503000000001000000010000000100000001006C
:10504000000001000000010000000100000100005C
:10505000000100000100000001000001000000014B
:10506000000001000000010000010000000100003C
:10507000010000000100000001000000010000012B
:10508000000001000000010000010000010000001C
:10509000010000010000010000000100000100000B
:1050A00001000000010000010000010000000100FB
:1050B00000010000010000010000010000010000EB
:1050C00001000001000000010000010000010000DB
:1050D00001000001000001000001000001000001CA
:1050E00000000100000100000100000100000100BB
:1050F00000010000010000010000010000010000AB
:105100000100000100000100000100000100010099
:105110000100000100000100000100010000010089
:105120000001000001000001000100000100000179
:10513000000001000100000100000100000100006A
:105140000100010000010000010001000001000059
:105150000100010000010000010001000001000049
:105160000100010000010000010001000001000039
:105170000100010001000001000100000100010028
:105180000001000100000100010000010001000019
:105190000100010000010001000001000100000108
:1051A00000010000010000010001000100000100F9
:1051B00001000100000100010001000001000100E8
:1051C00001000001000100010000010001000100D8
:1051D00000010001000001000001000100010000C9
:1051E00001000100010001000001000100010001B7
:1051F00000000100010001000001000100010001A8
:105200000000010001000100010000010001000197
:105210000001000100010000010001000100010087
:105220000100010000010001000100010001000176
:105230000000010001000100010001000001000167
:105240000001000100010001000100010001000156
:105250000001000100000100010001000100010047
:105260000100010001000100010001000100010036
:105270000100010001000100010001000100010026
:105280000100010001000100010001000100010016
:105290000100010001000100010001000100010006
:1052A00001000100010001000100010001000100F6
:1052B00001000100010000010001000100010001E6
:1052C00000010001000100010001000100010000D7
:1052D00001010001000100010001000100010100C5
:1052E00001000100010001000100010100010001B5
:1052F00000010001000100010100010001000100A6
:105300000100010100010001000101000100010094
:105310000100010100010001000100010100010084
:105320000100010100010001000100010100010074
:105330000100010000010100010001000101000164
:105340000001000101000100010001010001000154
:105350000001010001000100010100010001000144
:105360000100010001010001000101000100010133
:105370000001000101000100010100010001010024
:105380000100010100010001010001000101000113
:105390000001010001000101000100010100010103
:1053A00000010001010001010001000101000101F3
:1053B00000010001010001010001000101000101E3
:1053C00000010001010001010001000100010100D4
:1053D00001010001010001000101000101000101C2
:1053E00000010100010001010001010001010001B3
:1053F00000010100010100010100010100010100A3
:105400000101000101000101000101000101000191
:105410000100010100010100010100010100010181
:105420000001010001010001010001010001000172
:105430000101000101000101000101000101000161
:105440000100010100010100010101000101000151
:105450000100010100010100010100010100010141
:105460000001010100010100010100010101000131
:105470000100010100010101000101000101000121
:105480000101000101000101000101010001010011
:105490000101000101010001010001010100010100
:1054A00000010101000101000101010001010001F1
:1054B00001010001010001010100010100010101E0
:1054C00000010101000101000101010001010100D1
:1054D00001010100010101000101010001010001C0
:1054E00001010001010100010101000101010001B0
:1054F00001010001010100010101010001010100A0
:10550000010101000101010001010100010101008F
:10551000010101010001010100010101000101017E
:10552000000101010001010100010101010001016F
:10553000010001010101000101010001010101005F
:10554000010101000101010100010101000101014E
:10555000010001010100010101010001010101003F
:10556000010101010001010101000101010100012E
:10557000010101000101010100010101010001011E
:10558000010100010101010001010101000101010E
:1055900001010001010101000101010101000101FE
:1055A00001010001010101010001010101000101EE
:1055B00001010100010101010001010101010001DE
:1055C00001010101010001010101010001010101CD
:1055D00001000101010101000101010101010001BE
:1055E00001010101000101010101000101010101AD
:1055F000000101010101010001010101010100019E
:10560000010101010100010101010101000101018C
:10561000010101000101010101010001010101017C
:10562000010100010101010101010001010101016C
:10563000010100010101010101010100010101015C
:10564000010001010101010101010100010101014C
:10565000010101010101010100010101010101013B
:10566000010100010101010101010101000101012C
:10567000010101010101000101010101010101011B
:10568000000101010101010001010101010101010C
:1056900001010100010101010101010101010101FB
:1056A00000010101010101010101010100010101EC
:1056B00001010101010101010100010101010101DB
:1056C00001010101010101010101000101010101CB
:1056D00001010101010101010101010001010101BB
:1056E00001010101010101010101010101010101AA
:1056F000010101010101010101010101010101019A
:10570000010100010101010101010101010101018A
:10571000010101010101010101010100010101017A
:105720000101010101010101010101010101010169
:105730000101010101010101010101010101010159
:10574000010101010101010101010101010001014A
:105750000101010101010101010101010101010139
:105760000101010101010101010101010101010129
:105770000101010101010101010101010101010119
:105780000000C90092015B022403ED03B6047F050B
:1057900048061107D907A2086A09330AFB0AC40B95
:1057A0008C0C540D1C0EE30EAB0F72103A1101124B
:1057B000C8128F1355141C15E215A8166E1733184E
:1057C000F918BE19821A471B0B1CCF1C931D571EBC
:1057D0001A1FDD1F9F2061212322E522A6236724B3
:1057E0002825E825A82667272628E528A329612A51
:1057F0001F2BDC2B992C552D112ECC2E872F4130B1
:10580000FB30B5316E322633DF3396344D350436F6
:10581000BA366F372438D9388C39403AF23AA53B3A
:10582000563C073DB83D683E173FC53F7340214198
:10583000CE417A422543D0437A442445CD4575462E
:105840001C47C34769480F49B449584AFB4A9D4B16
:105850003F4CE04C814D204EBF4E5D4FFB4F97506B
:105860003351CE51685202539B533254C954605540
:10587000F5558A561D57B0574258D3586459F359B5
:10588000825A0F5B9C5B285CB35C3E5DC75D4F5EDC
:10589000D75E5D5FE35F6860EB606E61F0617162CF
:1058A000F1627063EE636C64E8646365DD6556669F
:1058B000CF664667BC673268A66819698B69FD695F
:1058C0006D6ADC6A4A6BB76B236C8E6CF86C616D29
:1058D000C96D306E966EFB6E5E6FC16F2270837005
:1058E000E27040719D71F9715472AE7207735E730C
:1058F000B5730A745F74B27404755575A575F37544
:1059000041768D76D87622776B77B377FA773F78C2
:105910008478C77809794A798979C879057A417A8A
:105920007C7AB67AEE7A267B5C7B917BC57BF87BB2
:10593000297C597C887CB67CE37C0E7D397D627D38
:10594000897DB07DD57DFA7D1D7E3E7E5F7E7E7E2B
:105950009C7EB97ED57EEF7E097F217F377F4D7F8C
:10596000617F747F867F977FA67FB47FC17FCD7F65
:10597000D87FE17FE97FF07FF57FF97FFD7FFE7FB4
:1059800080807F7E7D7C7B7A79787776767574737C
:10599000727171706F6E6E6D6C6C6B6A6A6968683B
:1059A000676666656464636362616160605F5F5ED1
:1059B0005E5D5D5C5C5B5B5A5A5959585857575647
:1059C00056555555545453535252525151505050AC
:1059D0004F4F4F4E4E4D4D4D4C4C4C4B4B4B4A4AFE
:1059E0004A49494948484847474747464646454542
:1059F000454444444443434343424242424141417B
:105A00008182838485868788898B8C8D8E8F919205
:105A100093959697999A9C9D9FA0A2A3A5A7A8AAA3
:105A2000ACAEB0B2B3B5B7B9BCBEC0C2C5C7C9CCC5
:105A3000CED1D4D7D9DCDFE2E6E9ECF0F3F7FAFE19
:105A4000605A000000000020680100000012000001
:105A5000945A000068010020F00B000004010000CF
:105A60004114E09304120112081408BD03236C07CB
:105A700023FC0802628E220143AC0D033AC0DA43D4
:105A800010274B20030412C83A6404012A04653528
:045A90004F020000C1
:04000005000000C136
:00000001FF
