:020000040000FA
:10000000880D0020810100008F0100009101000097
:1000100000000000000000000000000000000000E0
:10002000000000000000000000000000930100003C
:10003000000000000000000095010000854900005C
:100040009D4A0000A14A0000FD3400006D3500000B
:10005000B13400003D3E0000B92C0000A92F000083
:10006000FD4C00000917000015120000B51B000030
:1000700069500000994000000000000000000000EE
:100080000000000000000000000000000000000070
:100090000000000000000000000000000000000060
:1000A0000000000000000000000000000000000050
:1000B0000000000000000000000000000000000040
:1000C00000F002F800F030F80CA030C8083824180E
:1000D0002D18A246671EAB4654465D46AC4201D180
:1000E00000F022F87E460F3E0FCCB6460126334282
:1000F00000D0FB1AA246AB4633431847885F000086
:10010000A85F00000023002400250026103A01D338
:1001100078C1FBD8520700D330C100D50B607047BF
:100120001FB51FBD10B510BD00F0E8FF1146FFF769
:10013000F7FF05F02BF801F000F803B4FFF7F2FF2A
:1001400003BC01F035F8000070B505460C461646B4
:1001500002E00FCC0FC5103E102EFAD2082E02D3AB
:1001600003CC03C5083E042E07D301CC01C5361FBE
:1001700003E021782970641C6D1C761EF9D270BDD5
:10018000094880F308880948804709480047FEE786
:10019000FEE7FEE7FEE7FEE7FEE70000054806494A
:1001A000064A074B70470000880D0020954A000062
:1001B000C100000088070020880D00208809002069
:1001C0008809002010B5202A04DB0146203A91401E
:1001D000002010BD914020239C1A0346E3401943A0
:1001E000904010BD4343514330B55C18010C130CD3
:1001F0000D4692B25D4380B251432C1905465543DA
:100200000A0C09044D1962415843010C00044019BD
:10021000514130BD70B500252C46AD1A9C4112DA13
:1002200000252C462D1A8C4102DA00F07CFE70BDB0
:10023000002440428C41214600F075FE00244042DB
:100240008C41214619E000252C462D1A8C410ADAF2
:10025000002452429C41234600F065FE00244042A7
:100260008C41214670BD002452429C4140422346AD
:1002700000248C41214600F056FE002452429C414D
:10028000234670BDF8B5042A2CD3830712D00B780F
:10029000491C0370401C521E83070BD00B78491C6D
:1002A0000370401C521E830704D00B78491C037056
:1002B000401C521E8B079B0F05D0C91ADF0020235C
:1002C000DE1B08C90AE0FFF73FFFF8BD1D4608C95D
:1002D000FD401C46B4402C4310C0121F042AF5D226
:1002E000F308C91A521EF0D40B78491C0370401C45
:1002F000521EEAD40B78491C0370401C012AE4D436
:1003000009780170F8BD01E004C0091F0429FBD27F
:100310008B0701D50280801CC90700D0027070478E
:1003200000290BD0C30702D00270401C491E0229CD
:1003300004D3830702D50280801C891EE3E70022D4
:10034000EEE70022DFE7002203098B422CD3030AE9
:100350008B4211D300239C464EE003460B433CD412
:10036000002243088B4231D303098B421CD3030A7A
:100370008B4201D394463FE0C3098B4201D3CB01AA
:10038000C01A524183098B4201D38B01C01A5241DA
:1003900043098B4201D34B01C01A524103098B42DE
:1003A00001D30B01C01A5241C3088B4201D3CB00C9
:1003B000C01A524183088B4201D38B00C01A5241AC
:1003C00043088B4201D34B00C01A5241411A00D25C
:1003D00001465241104670475DE0CA0F00D04942C5
:1003E000031000D34042534000229C4603098B4235
:1003F0002DD3030A8B4212D3FC22890112BA030ABD
:100400008B420CD3890192118B4208D3890192113E
:100410008B4204D389013AD0921100E08909C309C3
:100420008B4201D3CB01C01A524183098B4201D3C5
:100430008B01C01A524143098B4201D34B01C01AB0
:10044000524103098B4201D30B01C01A5241C30828
:100450008B4201D3CB00C01A524183088B4201D397
:100460008B00C01A5241D9D243088B4201D34B00B2
:10047000C01A5241411A00D20146634652415B10F4
:10048000104601D34042002B00D5494270476346D5
:100490005B1000D3404201B50020C046C04602BDFB
:1004A0007047704770470000F0B5F94D0C091E0900
:1004B0002C402E402F468BB0A7437DD0B543FCD0B7
:1004C000002E7AD0002CFCD00D465D40ED0F254368
:1004D000AC1BFF25AD0464190894C502440DC90284
:1004E0002143500DDC0204430120C00701430443B3
:1004F000D2020191200C110C00958C460104234678
:100500008B430A9161460904E24D8A430991010A2D
:100510007D4449198039097805464D4301266D18F7
:10052000F605751B6943C90C640B891C4C436418A0
:10053000B5012C1B250C2E04B4434C434D43210C18
:10054000691889090591009DE90701D00121C907B2
:1005500004912C4601996708CD072F434C08059D4F
:10056000E10B4D432D0C29466646754302950D4619
:1005700045432E46029D7D1BB44100950D465D43CB
:1005800001942C0C2F040D465543AE462D0C3D43D3
:10059000029503947546049C2D04641B049406D2B2
:1005A000029C039D641C002675410395029401ACD6
:1005B00070CC009F7D1B01E03EE162E1B441090483
:1005C0000095079101940599A4086143090C0C4614
:1005D0004443650BE7040C4666467443A646640B29
:1005E0003C43039502947446049DE4042C1B04943C
:1005F00006D2029C039D641C00267541039502945B
:1006000001AC70CC009F7D1BB44101940C465C434F
:100610000095650FE7000C465443A646640F3C4323
:10062000039502947446049DE4002C1B049406D2A6
:10063000029C039D641C002675410395029401AC45
:1006400070CC009F7D1BB441AE09AF06049DC9006C
:10065000AD092F43049DA406AD060495079D3443C0
:1006600069180791059DE10B4D432D0C29466646FF
:10067000754302950D4645432E46029D7D1BB441B0
:1006800000950D465D4301942C0C2F040D465543F7
:10069000AE462D0C3D43029503947546049C2D04F3
:1006A000641B049406D2029C039D641C00267541C1
:1006B0000395029401AC70CC009F7D1BB441019462
:1006C0008C050694079C890A611800950791019C86
:1006D0000599A4086143090C0D464543680BEF04D6
:1006E0000D46644665436C0B3C43049FED047D1B43
:1006F000AC4602D20025641C6841009E019D371B58
:1007000085410846584301950C46460FC5005443A1
:10071000600F28436546E4002C1B02D20025401CD4
:100720006E41019D3F1AB5412846BD098006284308
:100730008446A009BF064E020699A4067618074310
:10074000079D002068410A99079019430020099BE2
:1007500000906046FF1913434041E20F64003A43A2
:10076000A4460446D71A8C41A04203D90120009028
:1007700020463A46C70F941840416246D20F2243A2
:10078000644664000494009CBE466400D71AA446E4
:10079000044602978C417746002F01D1A04204D92C
:1007A0006046401C8446029A2046C40FA646941810
:1007B0004041049A0546D20F224364466400D31A8E
:1007C0008D417146002901D1A84202D928461A4616
:1007D000641C10430122002800D01643610200204F
:1007E000079B891904465C410223002C02DB49184F
:1007F00013466441089DCE0A2D145D194B0567050B
:10080000E10A2C050D1908993E43C9076940002BE0
:1008100008D0934006D30022761C5141002B01D111
:10082000760876001C4A002D43DB154241D0AA43CE
:100830003FD030460BB0F0BD06180D464D41174C69
:100840007642AC411AD395181C465C41134A6D425E
:10085000A24113D3012252054C00D4420AD15C00BC
:10086000D4420BD04B4002D592021143E2E749003B
:100870004908DFE75940C90FC90718E000200849B7
:10088000D8E7054801420DD10342F7D0F2E7000056
:100890000000FF07B05A00000000F07F0000E0FFFA
:1008A0000000F87F114859400143C0124140002028
:1008B000C0E70123089A9B069A4205DC03225207EF
:1008C0008918C90FC907B5E7052252078918074AD1
:1008D0001143D2125140ADE770B515461C46024691
:1008E0000B4628462146FFF7DFFD70BDFFFFFF7F67
:1008F00030B50346CA02400D1043164D164C0A157A
:1009000002D02043002A06DBAA1A002A12DDD040BA
:10091000FF2A0BDC30BD5205520D01D140004008CA
:10092000AA1A07D4D0404042FF2A01DD002030BD82
:100930000028FCDD4A00002B01D0012000E000204F
:10094000101801225205D042F0D8C817C0436040A9
:1009500030BD00001E040000000000800346CA02F3
:10096000400D10B510430A1504D00124E4072043BC
:10097000002A05DB0A4CA21A04D4D040FF2A00DD6D
:10098000002010BD4A00002B01D0012000E0002013
:10099000101801225205D042F2D8C817C04310BD2A
:1009A0001E0400001F22030C02D10F22000402D0FB
:1009B000030E03D004E00020014670470002083A0D
:1009C000030F01D10001121F830F01D18000921E7D
:1009D000002801DB4000521E120551184205C012CA
:1009E000411810467047C10FC90700D0404201228C
:1009F00092071143D6E701218907D3E710B50B1EF3
:100A000001D0202301E0011E2BD00C0C01D10904E0
:100A1000103B0C0E01D10902083B0C0F01D109015A
:100A20001B1F8C0F01D189009B1E002901DB49008F
:100A30005B1E0446DC4021431C05A4182022D21A68
:100A400090404B05C20AC90A1A430919830501D10E
:100A5000430818401623984002D30020521C4141FD
:100A6000104610BDCA0FD20703D00B4600214042EA
:100A70009941024B1A43C1E7004ABFE70000D04149
:100A8000F0B58B4C0F09254689B0BD437BD01D09BD
:100A90002646AE43FAD00E465E402740F60F3E4350
:100AA000254071D024012142FBD0FF24AD19A404BC
:100AB0002D1B039501252D05DB02DB0AC9022B4303
:100AC000C90A29431E010901040F130F050121431F
:100AD0001701880B820391432D098C46A90B1E43F5
:100AE0008A039543B30B9A0396433F09BA0B9403C9
:100AF000A74302962E467E430497B6464E19D71951
:100B00000C460196544305977E43371B7646BF1B20
:100B10003601B646BE0B361900967646BC04371928
:100B2000009C01D3641C00946400002F01D00126B6
:100B30003443029E049F754366467E4304967600C6
:100B400034196E0034190094029C019E1C196643EE
:100B5000751BAE46069465464519059C05956C4384
:100B6000594375460891691A0191049E0146514303
:100B7000A41B0491611A009C0791E10605D061094C
:100B80000122114302E072E06EE06109089D002736
:100B90002C0A2D066918049D7C412A0A2D06691825
:100BA000019D6241AC0DAD026D185441079A910D43
:100BB000920255196141029A644658435443069B78
:100BC000059A5A43121A131B9A0E9B015B187A411D
:100BD000010B0005C3185141220A200644195A414D
:100BE0009A4200D2491C01204002814203D31523BE
:100BF0000226F64302E014230326F6432020C51AFA
:100C0000A9401746AF40DA400A4320460399D8402E
:100C10000914731819055118039A3843D207514023
:100C2000AC4009D00122944006D30022401C51411F
:100C3000002C01D1400840001E4A934212D30122E9
:100C400003989206904207DB0520400709181A48CE
:100C50000143C012414004E0032040070818C10FBF
:100C6000C907002009B0F0BD0020F107FAE7051818
:100C70000C464C4111486D42A04115D394181A46B8
:100C80005A410E48644290410ED301204A0040056B
:100C9000824209D35A00824206D35940C90F084AFA
:100CA000C90700201143DDE700200649DAE700000C
:100CB0000000FF07FE070000FFFFFF7F0000E0FFCE
:100CC0000000F07F0000F87F0121C90501234118D1
:100CD00042001B06D3185B0E0AD0C1100722D206B1
:100CE000891840075242D14201D5520089187047F5
:100CF000090208D50146002A03D0C10FC907002008
:100D0000704710467047420202D0002002497047E7
:100D1000072109050143F4E70000F87FF0B5FF253E
:100D20002D04C609C209FF2704462E400137CB090E
:100D30003E4348402A402B400746002A6BD0002BF8
:100D400069D0AA4267D0AB4265D0002800DA3246AB
:100D50000125ED0529432C4309022002090AD21A74
:100D60004B0C7F24E31A434C000A7C44E35C7D2453
:100D70002404121914145B00A218884201D3521CD7
:100D800000E0400049420C465C4324115C43DB0117
:100D90006415E318040A5C43C502200D0C46444365
:100DA0006419250A5D432303EC0C0D4665430003DB
:100DB0000019EB184C42A34201D35B18401CD40528
:100DC0002018002B07D05B00C91804D3401C002951
:100DD00001D1400840003F2189048A4209D3002AFA
:100DE00008DC1106090F04D0032149074018C00F81
:100DF000C007F0BD01224100120689187F22520669
:100E00009142F6D205214907C84201D59010F0BDA4
:100E1000FF20C005F0BD002F00DA32461648AA4276
:100E200007D2AB4205D21902090E17D0F80FC0073E
:100E3000F0BDFF2563002D06AB42F9D84900A94259
:100E4000F6D8AB4201D1A942F2D0A94201D100218A
:100E500001E061004908D0050843F0BD1102090E08
:100E6000FBD0FF200243D005F0BD0A4601461046E4
:100E700054E70000D65200000000C07F10B50146C4
:100E80009E240002CA15A307002A02D01843002A94
:100E900004DBA21A002A0CDDD04010BD1206120E8F
:100EA00001D140004008A21A03D4D040404200289B
:100EB000F3DDFF2248001206904201D9002010BD48
:100EC000C817C043584010BD1F22030C02D10F2287
:100ED00000041CD0030E01D10002083A030F01D117
:100EE0000001121F830F01D18000921E002801DB38
:100EF0004000521ED205511802125118192290407A
:100F000004D3491C002801D149084900084670470C
:100F1000C10FC90700D04042012292071143D3E715
:100F200001218907D0E7FEB5054610460C46184357
:100F300073D0AE468C460020AD1A01469C4167D363
:100F40006646002701243D46B61A9D4102D313464A
:100F50003A462124654676462F04360C3E432D0C36
:100F6000B61A9D4104D3150C1B042B4312041034F4
:100F7000654676462F06360A3E432D0AB61A9D412F
:100F800004D3150E1B022B43120208346546764625
:100F90002F0736093E432D09B61A9D4104D3150F7C
:100FA0001B012B431201241D65467646AF07B60888
:100FB0003E43AD08B61A9D4104D3950F9B002B43C9
:100FC0009200A41C65467646EF0776083E436D08FE
:100FD000B61A9D411AD392185B41641C16E00018A2
:100FE000764665464941B71A9D410191009009D363
:100FF0006046B11A98418E468446009801990025B2
:10100000401C6941DD0752082A435B08641EE6D58F
:101010007246634603B0F0BDFFE700200146C046BC
:10102000C0462A462346F5E7F8B5224C4E00069DF9
:10103000A6420AD8A64201D1002806D15E00A642E7
:1010400003D8A6420AD1002A08D00D242404254240
:101050002CD02946002000F02FF8F8BD0C461C4388
:101060000CD4994202D0EFF30080F8BD904202D038
:10107000EFF30080F8BDEFF30080F8BD09242407EA
:10108000E5008B4206D0EFF30080A043591A06D248
:10109000284304E0101A05D3EFF30080A04380F347
:1010A0000088F8BDEFF30080A043F1E7009500F061
:1010B0001BF8F8BD0000E0FFC80212D54803400F3E
:1010C000002804D0C803C043012188407047EFF3D3
:1010D00000800001000903210907084380F300880C
:1010E000704700207047000010B500200249029AA6
:1010F00000F02BF810BD00000000F87F754600F0EE
:1011000053F8AE46050069465346C008C000854600
:1011100018B020B5FFF742F860BC00274908B64672
:101120000026C0C5C0C5C0C5C0C5C0C5C0C5C0C5F6
:10113000C0C5403D49008D46704710B50446C046C5
:10114000C0462046FEF7F9FF10BD10B50C4611074A
:10115000090F092904D00A290AD008290CD104E072
:1011600011460820FFF7A8FF06E0510606D501E06A
:10117000510601D50120C007214610BDD10607D573
:1011800001010909CC084907000E0006044309E0E3
:10119000410F20024907000A0143200E00061D22CC
:1011A000D14101430846E7E7004870472407002083
:1011B00001491820ABBEFEE726000200704770B55B
:1011C0008C180578401C6B075B0F01D10378401C1D
:1011D0002A1106D10278401C03E00678401C0E70EC
:1011E000491C5B1EF9D12B0705D40023521E0DD4D8
:1011F0000B70491CFAE70378401CCB1A921C03E0E1
:101200001D780D70491C5B1C521EF9D5A142D8D324
:10121000002070BD10B51E48C16A03221143C1628F
:101220001C4800F0BBFD1B4C2088401C20801A4944
:10123000012088701648403800891849488400B257
:1012400000F0E0FC207907280CD1154A1549134815
:1012500000F084FB14480021415E144A0020105E17
:1012600000F05EFE01F04CFF114C6069C00602D434
:10127000606980060BD50E480021803802F076FCAC
:10128000302060610B48018802221143018010BDAB
:1012900040040140500100203C010020600100207A
:1012A00028000020F40300200C040020540000203B
:1012B000800701402600002070B50C46054601213C
:1012C000080202F0EBFE2088A866A178608A8902F5
:1012D0000843217DE2880903120111430843217C60
:1012E0000902084380B268656189208909010843C1
:1012F000A189E2890902120311430843286570BDE0
:101300000648C27C06484A21002A03D0054A0260EA
:1013100041607047A522D200F9E7000004060020D2
:10132000400401402085000000210180418081802F
:10133000C180018141818181C1810182418281829B
:10134000C18201834183704710B588B06846FFF7BA
:10135000EBFF002469464C8006220A8101204C8163
:1013600048828C820C8208800A48FFF7A5FF094852
:10137000FF214030C1624169C21411434161FFF74E
:10138000BFFF064804498162C1058C61846208B0D0
:1013900010BD000000040140837A0000800000407E
:1013A0001FB50446014602A802F05EFE02980090B6
:1013B0000F496B460020185E4A6A5043C01300B2C2
:1013C000208002229A5E496A4A43D11309B2421828
:1013D0005242618012B2A280891A064A514309140E
:1013E0006182208200F04CFB034908801FBD000091
:1013F0004C020020CE9300005400002002490A88CD
:101400008978504308417047A403002002490A89A3
:10141000897A504308417047A403002000B50A4868
:101420001022816D091481840848F521C08E89003D
:1014300048430749800A8A5E0649801A08610846BF
:1014400000F0FEFC00BD00009000002060010020C4
:1014500028030020FC06002072B6194A1020122131
:10146000105E515E40434943411816480163406B8A
:1014700062B601041448826A8B1A1B129A1813145C
:101480008262C26A891A49138918C16209145A1AF8
:101490001304026B9B1A1B129A18026310140B4A56
:1014A0002023D35E8B4208DD002800DA404222214F
:1014B000515E884201DA012000E0002090777047F9
:1014C00060010020000B0140FC00002028030020E8
:1014D0000449487C002802D000204874704701204D
:1014E000FBE70000040600200B4A0C491078002896
:1014F00004D0012804D0022804D005E0012302E032
:10150000032300E002230B70411C1170022801D953
:101510000020107070470000840000205800002058
:10152000072903D0890008188262704700218B00C8
:101530001B18491CC9B29A620729F8D370470000EA
:10154000FFB50C46064681B0174650212046FEF7EF
:10155000F8FE201D2021002532780270401C761CE8
:10156000002A24D0491EF7D1264620369920307112
:101570000920B0712760707904998008800089077C
:10158000890F08437071B84771798007F322000F03
:101590001140014371714A20055506488168E16494
:1015A000846002F0AFFD05B0F0BD0570401C491E1F
:1015B000FBD1D9E784000020F8B5064600688047D3
:1015C00034462034617935460A07920F00274035AA
:1015D000824223D0AA7A521CD2B2AA72022A1DD306
:1015E000F32280071140000F01436171AF7220792F
:1015F0000107090F092904D0022902D0010704D0EC
:101600000CE000090001207108E000090001401C05
:101610002071F16A002901D03046884721790807F6
:10162000000F0BD001281ED002281BD1687A401C65
:10163000C0B268720F2815D399202FE06079010796
:101640008007890F800F81420CD1A771E87A401C76
:10165000C0B2E872642805D30321A171FF2801D12B
:101660006420E872F8BDA079002809D00328F9D1D8
:10167000716B002901D030468847EF7239200DE0A8
:10168000687A0F2802D80809022809D06F72EF7211
:10169000B16A002901D03046884722202071F8BD68
:1016A0000220A071316B0029C6D030468847C3E7BD
:1016B00010B50023074A084908A0FFF741FF094A6F
:1016C00000210548FFF72CFF074A03210248FFF7D6
:1016D00027FF10BD293E00001C06002042757474CF
:1016E0006F6E3100D1140000E914000010B50548F8
:1016F000846803E02046FFF75FFFE46C002CF9D11B
:1017000010BD0000840000201CB513480321416077
:10171000416889071FD500216A46117007E04169B9
:10172000890702D51178491C11701179491C117172
:1017300011790529F3D3107803280CD90021074823
:1017400002F014FA054930208031486104480188CC
:101750000222114301801CBD00020140000701402C
:101760002600002070B504460121082002F0B8FCD4
:101770006069616C40020143A06CA26900025200E2
:10178000104301432B480160216862680901D200BF
:101790001143A26811438160E169226AC901920183
:1017A0001143626A52011143A26A12011143E26CB1
:1017B000D2001143226D92001143626D5200114319
:1017C000A26D1143C160616BA26BC901920111430B
:1017D000E26B52011143226C12011143626ED2007E
:1017E0001143A26E92001143E26E52001143226F28
:1017F00011430161114A1049916243055969104D25
:101800002940E56A2D032943E568ED022943E56D8A
:101810002D0229432569ED012943256B246E2D01F5
:101820002943A400214359610021916203214160B1
:1018300070BD000000020140837A0000800000407B
:10184000438000000021012206C001608160C16068
:10185000016141618161C161016241628162C16274
:10186000016341638163C163016441648164C16454
:10187000016541658165C1650166416642608166B9
:10188000704700B59DB06846FFF7DCFF01200021DE
:10189000400302F003FC0121880302F0FFFB0A2051
:1018A00000900221012200200291069211901590D1
:1018B0000C910A9016900992052003231891179015
:1018C0000B9304926846FFF74DFF1DB000BD70B545
:1018D0000D460446991AA81A19225043FEF73DFDF9
:1018E000201A00B270BD000070B50D4E0E4C0E4DAA
:1018F000307800220B4B0C49603C803D002808D01A
:10190000308AB081F08970810B63208028630A637C
:1019100070BD0648408BB0810548C06A8089F2E7F7
:1019200090000020ADDE0000800701406C06002022
:10193000E0010020074806498162C1050A69C31316
:101940001A430A610168044A1143016070470000AC
:10195000837A000080000040FF01000010B50021E4
:10196000415E002901DB0B4600E04B420024145F7E
:10197000A34203DD002900DA494211800221415EC1
:10198000002901DB0B4600E04B420224145FA34216
:1019900003DD002900DA494251800421415E00291B
:1019A00001DB084600E048420423D35E984203DD91
:1019B000002900DA4942918010BD000010B50D48A1
:1019C00010221421825E415E0B4B8A4206DDDC8AC6
:1019D000121B12B202828A4200DC01821022825E55
:1019E0008A4206DC9B8AD21812B202828A4200DB4B
:1019F000018210BDA00100208C02002010B50D480E
:101A00000E221221825E415E0B4B8A4206DDDC8A89
:101A1000121B12B2C2818A4200DCC1810E22825E98
:101A20008A4206DC9B8AD21812B2C2818A4200DB4B
:101A3000C18110BDA00100208C02002010B502461B
:101A400040320E230C21D35E415E04465B1A803087
:101A500003601023D35E0E22A25E9A1AC261074869
:101A600041802046703000F083F8A08220468C3000
:101A700000F07EF8E08201F0F7FE10BD5400002077
:101A800040434943411802480163406B80B27047AC
:101A9000000B0140F8B572B600242E4F7C617969C5
:101AA000F81401437961FFF72BFC2B4844858485AA
:101AB000C48501F03DFD0121284802F057F828486F
:101AC00000940099491C00918142FAD3002001231F
:101AD0002546DB022349B961F96AC907FCD0F96AD6
:101AE00003221143F962796919437961194940392F
:101AF00000228A5EA4180C228A5EAD1814228A5E27
:101B0000B6180C228A5E401C80B249158842E1D387
:101B1000FFF71AFCFFF7F4FB62B6601201B20E4841
:101B20006A124030C18012B2731202811BB243812B
:101B30000D480C1841008C4205D812188A4202D870
:101B40001818884205D909480188FF22013211433B
:101B50000180F8BD40040140600100200007014001
:101B6000FFFF0700A55A0000AC0D00002600002072
:101B7000026941690389511A594343890901534351
:101B80005918C3685918C1600368994202DC436858
:101B9000994200DAC360C16842610914084670477F
:101BA00010B50121C80202F079FA1E20012189072F
:101BB000C86210BD7047000010B50E4800690028CB
:101BC00000DA40420C4A0421515E0C4B0C4C884216
:101BD00005DDD88AE083988AA083012007E04910B8
:101BE000814205DD588AE083188AA0830020508056
:101BF000002010BDD0020020900000204C020020E8
:101C00008C0600200F49104A896A4143C813010419
:101C1000906C091A4910081890640014012800DA21
:101C20000120012309491B060B624862896A084B9F
:101C300089B29983074BD886074B594309135164DE
:101C4000704700004C02002090000020000B014073
:101C50006C06002060010020354F0200F0B584467C
:101C6000184D1748A862174B17484033174E991361
:101C700082420ED11E61164C164F54407C4027689C
:101C8000154807402760604648602068CF03384306
:101C900020600D4882420AD11E611048104C42401B
:101CA000624010481060086840004008086000204A
:101CB00018610A68520052080A60A862F0BD00006C
:101CC000837A0000800000401F360D9ACA8F000002
:101CD0000A060CB01530002AFF7FFF7F1A3401B0CE
:101CE00015020D2ABADC547638B50D48817A0129DF
:101CF00015D10C49C978002911D1817272B60A4AEE
:101D00003F2464022046FFF7A9FF0849044A0091D6
:101D1000002320320421204602F00AF862B638BDC2
:101D200058000020500100201F360D9A0CA4FD9A87
:101D3000F0B516481449C162154A014693894039E5
:101D40000B87D3894B87134E0346803B77421F672F
:101D500000245E67DC67158985825289C282C7606C
:101D600006610D4A8461026302460125203A15731B
:101D70007D225201DA860C83642181872C22C2875E
:101D8000403001834283F0BD9E530000E0010020FB
:101D90004C020020000090E83135000070B5264C60
:101DA00005462046FFF7FCFA2879254680350328AA
:101DB00011D004280FD007280DD009280AD1FFF729
:101DC0004BFB00206085A085E08520866086A0868C
:101DD000286B804770BDFFF787FD12201C21205E15
:101DE000615E1E224843C1131020205EA25E504354
:101DF000C013081AA08110201C21205E615E484398
:101E0000C1131220205E5043C0130818E081204601
:101E1000FFF714FE204602F013F8286B804701F00C
:101E20000DFF01F047FE0548006A000C00B202F009
:101E300029FFE06170BD0000600100204C0200201D
:101E400030B50188438904690A04C5688188634301
:101E5000EB180904C360934201DD134602E08B4294
:101E600000DA0B46C36000894443200118189042F1
:101E700001DD104602E0884200DA0846001430BD59
:101E800070B520491620085E052801DA401C00E0E4
:101E90000120C8821D4904B21B4D1D480A790C213E
:101EA000695E4068230003F010F9060D040E0D1959
:101EB000240D1848807F002804D12220285E16496E
:101EC00000F002FB70BD072AFCD1144A927A124B33
:101ED0000C4A38331A3200F0AFF970BD072AFCD132
:101EE0000D4A08488C321146E0391A3000F0C0F82B
:101EF00070BD072AFCD1084B024AA8331A3200F001
:101F00007DFA70BD0E00002060010020500100200D
:101F1000D002002080050020480400200406002094
:101F200010B50E4A8842508811DD00280CD00020E0
:101F3000508001460A4801F019FE0848183001880F
:101F400001221143018010BD5088401C03E000288D
:101F5000F9D05088401E508010BD00000E000020B7
:101F60000007014070B50120800703F041F8FFF73A
:101F700045FA344D0024288033480480448084800E
:101F800028463C3004804480304803F051F8688093
:101F90002F4803F04DF8A8802846583004802D487B
:101FA00003F026F8FFF72AFA688128467430048087
:101FB000448084804482284803F01AF8FFF71EFA10
:101FC0002882264803F024F8FFF720FA68612448A5
:101FD00003F01EF8FFF71AFAA861224803F008F888
:101FE000FFF70CFA2884204803F012F8FFF70EFAE6
:101FF000E861AC854E202885752068852846C83064
:102000000480E03804700482448284824480446006
:102010008460C46015480480448084802846AC30C5
:10202000048044808480C4808460C46004824482CC
:102030008482C482048338300480448044822C87A4
:1020400070BD00000C040020600100200000AF43C0
:1020500000007E439A99193E3333B33F008009450F
:1020600000004842CDCCCC3D0000F04128000020CB
:1020700070B504460020105E282802DA401C10804B
:1020800070BD00251580605F0221615E82108A426A
:1020900007DC8A100421615E8A4202DC89108142D9
:1020A0000BDD0021074801F061FD0748018840224F
:1020B0001143018005490120088625806580A5809F
:1020C00070BD000000070140260000200C04002025
:1020D000F0B542480021807F012809D1404A1170A3
:1020E000404A1170404A117091829181118251824F
:1020F0003D4A183213885B0702D413881B0728D582
:102100003B4F3A4C22230826E35EBE5F3D463C35FA
:102110000424B34213DB0626BE5FB3420FDC102358
:10212000EB5EFF262D36B34202DA5B1C2B8207E002
:102130001388A343138013880826B343138029828E
:10214000012806D11188A1431180118808239943E1
:1021500011801188890702D41188C90708D0012885
:1021600006D111880223994311801188814311807F
:102170001188C90605D5012803D111881023994378
:1021800011801188490605D5012803D11188402303
:10219000994311801188090605D5012803D11188BA
:1021A0008023994311801188890505D5012803D121
:1021B00011884302994311801188490502D411887E
:1021C00009050AD5012808D1108801218902884310
:1021D00010801088490088431080F0BD80050020E1
:1021E00083000020800000200E00002060010020FD
:1021F0000C04002010B50C49002008800B4908820F
:102200001C3108821C31088288825439088270315E
:102210000882074802F00CFF044C583CE080054857
:1022200002F006FF208110BD26000020640400207B
:102230000000B44300008D43FFB505461220185E30
:1022400083B01C460F46282803DA401C588207B08A
:10225000F0BD68420090002D00DB2846634900264F
:102260004969884223DDA05F0A2802DA401C2080E9
:102270001EE05E493420085E022808DA401C888689
:1022800000215B4801F072FC5A4806710BE0002106
:10229000574801F06BFC584A2680108810210843EB
:1022A00010805248868651480121818500E02680B1
:1022B000002D01DB284600E000984C49CA697942AC
:1022C000019190422EDA002F01DB384600E00846EB
:1022D000464920228A5E904224DD0220205E142896
:1022E00002DA401C60801EE040493420085E02286B
:1022F00008DA401C888600213D4801F037FC3D4843
:1023000006710BE000213A4801F030FC3A4A668041
:1023100010881021084310803448868633480221F3
:10232000818500E0668005980022825E2F4910209A
:10233000085E824208DC059902228A5E824203DC42
:1023400004228A5E82421BDD28493420085E02286E
:1023500008DA401C88860021254801F007FC254842
:1023600006710AE00021224801F000FC22480188A1
:102370001022114301801D4886861C480321818557
:10238000002D01DB284600E00098184D696988425D
:1023900029DD002F00DA019F2020285E40008742BF
:1023A00021DA0420205E322802DA401CA0804EE7A9
:1023B0003420285E022808DA401CA88600210C4838
:1023C00001F0D4FB0B4806710AE00021084801F037
:1023D000CDFB0948A6800188102211430180AE86FA
:1023E0000420A88533E7A68031E700000C04002014
:1023F000000701405001002026000020F8B52A48BF
:102400002A4F008800242A4E2A4D002804D05C82DE
:102410003079072820D025E01220185E642802DADF
:10242000401C5882F4E73220285E022807DA401C5C
:1024300068860021204801F099FB347112E00021E8
:102440001D4801F093FB3888012149020843388078
:102450000120E8856C86DBE73820285E642801DAF5
:10246000401C2887288F642813D11448807F0028B7
:102470000FD1134813494068884212DA3220285E8F
:10248000022807DA401C688600210B4801F06EFB29
:102490003471F8BD38880121490208433880022090
:1024A000E8856C86F8BD0000920000202600002020
:1024B000500100200C04002000070140800500208E
:1024C000D002002088130000F8B50C4618490222FB
:1024D0008A5E0025824203DC2088401C208006E0C2
:1024E00004228A5E82421FDD6088401C60800020DA
:1024F000205E104F104E642808DB0021384601F0A2
:1025000035FB258030880421084330800220205E7E
:10251000642808DB0021384601F028FB65803088FC
:10252000082108433080F8BD25806580F8BD000093
:102530000C04002000070140260000200246002075
:1025400001235B031146814089B2994203D8401CA4
:1025500000B20D28F6DB704710B514480021018247
:1025600041823222C2827D22D2008282104A0280BF
:10257000AF22920042807D22120182800D4AC280E9
:102580000D4A42630D4A82630D4C9620E086A18677
:102590000C48A08100F018F8FFF7CAFB2820A081A2
:1025A0000320A07301204003608610BD4C02002070
:1025B00094110000B80B0000B0530000DC53000081
:1025C0008C060020F0550000F0B5FF4E0A20756B18
:1025D0008BB0285EB46BFEF79BFC0746FB49206975
:1025E00002F080FE6169FEF799FBA169FEF796FB98
:1025F0003946FEF793FBFEF741FC70620020205E37
:10260000FEF786FCF24F00903946206902F06AFE20
:10261000E169FEF783FB0099FEF780FBFEF72EFCD5
:10262000B062012000076968FDF797FEF0620020A4
:10263000205EFEF76DFC00903946206902F052FEE4
:10264000216AFEF76BFB0099FEF768FBFEF716FCAC
:102650003063A289642042436868D317C117C60853
:10266000490731434007FDF7D5FD0A05010BD94F56
:102670001143398364216868FDF76FFE0004A18966
:10268000FDF76BFED44E7883B081D448C06A808950
:10269000708138462030818900914900D048FDF78B
:1026A00052FEF08164216868FDF757FE000400992E
:1026B000FDF753FE30822A690092D3170193192146
:1026C0004904E86802F0D1FC019B009AFDF7A2FDE5
:1026D000A2890023FDF79EFD0121C903081A386075
:1026E000C049E868695E02F0C0FC020F09011143AD
:1026F0000022A25E0001D317FDF78CFD70656421F6
:102700006868FDF72AFE069002900A20285E049071
:10271000C017059002980026C017039068690090C2
:10272000C0170190A05F0890C01709903246039926
:102730000298FDF747FD019B009AFDF753FD059BAD
:10274000049AFDF74FFD099B089AFDF763FDA64A21
:102750000023FDF75FFDA549884202DA761C36B2F8
:10276000E4E79D4A1065D684A1480290009801993B
:10277000C70C2A694E033E43D31740033146FDF789
:1027800049FD80B2069F00260090F8170390A089AB
:102790000190384632460399FDF714FD0122520399
:1027A0000023FDF737FD0023019AFDF733FD7D215E
:1027B0008901884202DA761C36B2EAE7C1170023A3
:1027C000029AFDF70FFD0023009AFDF70BFDCA00EA
:1027D000410F8048114341601E3E0121467389022A
:1027E000818200262A690020D31700931746205EB5
:1027F000804902F03AFC3246FDF7E4FC3A46009B81
:10280000FDF708FD0A22AA5ED317FDF703FDA28992
:102810000023FDF7FFFC7D21C901884202DA761C06
:1028200036B2DFE7744902F020FC0903000D0843CB
:1028300068490E3E8860084686730022A25E6F4893
:10284000A9695043FDF77FFD6349C8640020205EFD
:10285000FEF75EFB06466A49206902F043FD216AE5
:10286000FEF75CFA3146FEF759FAFEF707FB5649C8
:1028700008630020205E6349484302140A20009246
:10288000285E6149484306147D21A089C900FDF7EF
:102890005AFD5E49F31788834B4800210088324671
:1028A0000293FDF79FFC2A69D317FDF79BFCFF23DA
:1028B000009A87335A430092D2170192019B009AE3
:1028C000FDF7A8FC404980B208810490A089FEF77A
:1028D00092F803913C4907464988049802F0DDFBD1
:1028E000FEF7C0F800224A4BFEF7CAF83A46039BAF
:1028F000FDF7DAFDFEF732F83349324648810846E3
:1029000000880021029BFDF76DFC6A69D317FDF773
:1029100069FC019B009AFDF77DFC2B4980B2888100
:102920000090A089FEF767F80F46274906464988B8
:10293000009802F0B2FBFEF795F80022344BFEF748
:102940009FF832463B46FDF7AFFDFEF707F81E49FC
:102950000822C8810846825E1F480A2382850846ED
:10296000C35E1D480E26C38508460C21415E1A48E9
:10297000194F01861448865F17484686124880889A
:1029800042439212BA86104A4843D2888012534377
:102990009B12FB86394608877243901248870A4883
:1029A00001890C485830018107484289094858304C
:1029B000034642811C3319815A81642115480A2239
:1029C000818002837D2327E04C0200200046E246FE
:1029D000000020476C06002090000020E00100204D
:1029E000006CDC020A000000CFFD00001027000090
:1029F00010C9000040420F002F880600F266010057
:102A000080908A47CE9300000A6A010028030020C4
:102A10000000244064030020DB00038001818281E8
:102A2000018283820021418041814182C181C18232
:102A3000C1804183605EA0214843010C604E08467E
:102A4000B183FFF77BFDF08300230146E35EA02006
:102A500043431027781AC340B38300203083FFF725
:102A60006DFD7083391AE1200001C84030830A20CF
:102A7000285E54494843800C3080FFF75FFD0146D3
:102A800070800A20285E4F4A50431222511AC840D3
:102A900030800020205E4C494843800DB080FFF715
:102AA0004DFDF08001460023E35E47484343162076
:102AB000401AC340B3806868010C31810846FFF7B3
:102AC0003DFD70816A68381AC24032810A21695E10
:102AD0003E48FDF738FC010C3D4E08463180FFF7BB
:102AE0002DFD708000900A21695E3848FDF72BFCAF
:102AF00000990346781AC34033800021615E35484F
:102B0000FDF721FC000CB080FFF718FDF08000906D
:102B10000021615E2F48FDF716FC01460098381A27
:102B2000C140B1803F0338466968FDF70CFC80B2B4
:102B30003081FFF703FD70813B468340184669688A
:102B4000FDF701FC308112203083FFF7F7FC87404E
:102B50007083E12109013846FDF7F5FB3083002140
:102B6000615E0A20012541432D032846FDF7F5FB50
:102B700080B2B083FFF7E2FCF0830021615E0A229D
:102B8000514385402846FDF7DEFBB0831248134AC7
:102B9000C18E5143090CC186818E92105143104A57
:102BA000091491800421817302201146C880A089F4
:102BB0000A2148438009114608810BB0F0BD00008E
:102BC000840300205B230000181700008DF61C0012
:102BD000A4030020B172C5028C060020402F020021
:102BE0009000002007480022418E01814260818EC2
:102BF0000B045B4283610904026241610248426640
:102C0000704700008C06002090000020F0B5274897
:102C1000857A274901270B8A264C0022022D0BD0EA
:102C2000867AE1252D01012E11D0867A002E1CD046
:102C3000817A032926D029E05B1C9BB27D25ED001B
:102C40000B82AB4222D9827202743C2310E0067CD4
:102C50006423012E02D0467C012E01D182720B82A8
:102C6000868AAE4212D9827202E0002B02D05B1E2D
:102C70000B820BE0818AA94208D2417C002905D150
:102C8000877203E02188002900D1827221880029FF
:102C900001D003218172817A012904D0817A02292D
:102CA00000D1C274F0BDC774F0BD0000040600205E
:102CB0005800002026000020704770B50023012531
:102CC0002A460C689A40144094422AD10C79002C70
:102CD00004D0012C11D0022C04D006E00468164662
:102CE000264306604468944344604C79012C0BD021
:102CF000022C10D0002C0BD00DE00468944304602B
:102D0000466814463443EFE706691446344301E04D
:102D100004699443046184698E68012E05D094434C
:102D200084615B1C102BCBD370BD1443F8E700000B
:102D3000F0B5324F1601150214030B0002F0C5F96D
:102D400010090D13181E22282D33373D42484C52CE
:102D5000571D016A394089180EE0016A274AE13A95
:102D60001140711808E0016A254A1140691803E012
:102D7000016A0905090D61180162F0BD416A394017
:102D800089180EE0416A1D4AE13A1140711808E0C5
:102D9000416A1B4A1140691803E0416A0905090D9F
:102DA00061184162F0BD816A394089180EE0816A7C
:102DB000124AE13A1140711808E0816A104A114044
:102DC000691803E0816A0905090D61188162F0BD87
:102DD000C16A394089180EE0C16A084AE13A1140D7
:102DE000711808E0C16A064A1140691803E0C16A17
:102DF0000905090D6118C162F0BD0000F0FF000077
:102E0000FFF000000246926800200A4200D0012034
:102E10007047416370470163704700210160017191
:102E200041718160704700003EB56846FFF7F5FFCD
:102E30000120694608717D204002124C0090204616
:102E4000FFF73BFF032209212046FFF771FF032212
:102E50000B212046FFF76CFF03220C212046FFF7D1
:102E600067FF03220D212046FFF762FF03220E2198
:102E70002046FFF75DFF03220F212046FFF758FF92
:102E80003EBD0000000801400B4881880B4841828C
:102E90001221415E002901DA002141821221415EA6
:102EA000828A8918C903090C8182828A04498A426C
:102EB00000D98182808A70470004014058000020B8
:102EC000FF7F000070B52E482E4DC08E2E4A0101A6
:102ED000E8690124091A89120818E861001100B292
:102EE000A402A881904201DBEC820FE0AF23FF2116
:102EF0001B01F531984208DB101A832292005043DF
:102F0000FDF72BFA201AE88200E0E9821F4802F060
:102F10007FF8FEF77BFA80021D4C800A20601D4876
:102F200002F076F8FEF772FA1621695E4843800ACD
:102F30006060194802F06CF8FEF768FA1621695EC5
:102F40004843800AA060154802F062F8FEF75EFA76
:102F50008002800AE060124802F05AF8FEF756FA42
:102F60001621695E4843800A20610E4802F050F83D
:102F7000FEF74CFA1621695E4843800A606170BD15
:102F80006001002058000020E40C000000A0A644CE
:102F9000EC0500200000B1440080BB4400E0C544C3
:102FA0000040D04400C0DA447047000010B5044629
:102FB0000121022001F094F8A07821880004014347
:102FC000E07822790005120610430143607940063B
:102FD0000143A07980060143E07900070143207A8C
:102FE00040070143207C8007014303480160E168FA
:102FF000C1600021416010BD0003014000B585B0F3
:103000000121022001F06CF8684600F015F801205B
:1030100040026946088000208870C870012008714D
:10302000C8710872034803906846FFF7BFFF05B0F8
:1030300000BD0000007C92000749018000218170E2
:103040000122C2700271C271417181717D220172CF
:10305000D200C26001747047FF03000010B572B661
:103060002348244988622548234901600F218902A9
:103070004160012000040168C20011430160012188
:10308000001201F02DF8FEF75FF900F089FB01F066
:1030900089FFFFF7C9FEFEF783FD00F051FDFEF743
:1030A000F0FBFFF7ABFF01F0DFFD642001F034F827
:1030B00001210A2002F022F80221072002F01EF866
:1030C0000221084602F01AF80021092002F016F841
:1030D0000221002002F012F80221012002F00EF875
:1030E0000A2001F0FFFF012001F0FCFF62B610BDD5
:1030F000837A000080000040B4A60000000C01406C
:10310000F8B5584800250079574E072821D157486F
:103110005749006988421CDD56480088002818D1AC
:10312000308A7D210901884213D35348807A0128CF
:103130000FD15248007800280BD151480078002860
:1031400007D150480078002803D14F480078002864
:103150000AD0B5744D4FB869411CB9617D2109028F
:10316000884204D2B57403E00120B074F2E7B9617B
:10317000B07F012800D1BD6140214548FFF742FEE4
:10318000F074394C317D2034814208D1B07C012863
:1031900009D010213E48FFF73EFEF5622570B07C55
:1031A000012820D02AE00120207060783949401C95
:1031B000C0B26070227A012A0BD0632800D96570F2
:1031C000607A32225043627852088018085CA072FC
:1031D0000CE0312800D96570607A32236278584358
:1031E0004018105CF3E7207801280DD1F06A401CEC
:1031F000F0623179322914D03C2905D010212448BD
:10320000FFF709FEF56225703878002826D0F08C8B
:1032100000281ED080B2401E0004000CF08418D09C
:103220001CE0718C8842EFD3F562A07A012805D0AA
:1032300010211748FFF7EFFD25700EE0102114480C
:10324000FFF7E7FD257001203870FF200F30F08474
:10325000E0E710210E48FFF7DEFD3D70F07C307591
:10326000F8BD00005001002080050020D0020020A1
:10327000A438000026000020040600208000002062
:103280000E0000208200002081000020300000207D
:1032900000080140005400002D4810B500220146EE
:1032A00002722039CB7C2038408B0124012B02D0C4
:1032B000002B05D01AE0192818D2401C488315E0CD
:1032C000234B203B9B8B00280BD00F2806D20F2BC3
:1032D00004D2C87F642801D2401CC8774A838A83FD
:1032E00001E0192B05D2888B401C8883888B0F281E
:1032F00001D98C77CA77488B0F2802D98C77CA7787
:1033000003E0C87F052800D98A7712482221415E50
:1033100011480623C35E994200DDC1804178491CF3
:10332000C9B24170142912D942700623C35E4169A3
:10333000C918416183785B1CDBB28370102B05D305
:103340000B11034920318B8442618270C28010BD11
:10335000A00500206001002030000020F8B501F039
:10336000EFFE46492420085EFDF73DFB0022444B5A
:10337000FDF79AF8434A444BFDF796F8434A444B0D
:10338000FDF77EFBFDF7EAFA3C4C0746403CA066A1
:10339000404841490078414A414E002500280AD062
:1033A000012815D002283BD0032848D004284FD04C
:1033B000052856D01EE03078012802D0C9780029AF
:1033C00002D0A286032055E0022836D1A2860EE064
:1033D0003078012802D0C978002902D0A2860520C1
:1033E00048E0022802D0A286E58600E0A586A56412
:1033F0006565E5642B49E06C48433946FCF7A3FF5B
:103400003946FCF7A0FF00B2E064312801D9312031
:10341000E064254930780978084300D1E564F8BDB7
:103420003078012802D0C978002904D0AF2080016B
:10343000A08607201EE00228D8D0A586D4E73078E1
:10344000012802D0C9780029F5D0A2860A2011E00F
:103450003078012802D0C9780029ECD0A2860F204C
:1034600008E03078012802D0C9780029E3D00F485D
:10347000A0861320A0646565E064BBE7C00500205A
:10348000C0FFDF4072DF92CEF66A7D3FCDCCCCCC60
:10349000CCCC0C405900002030000020A861000076
:1034A00058000020647701005A00002030750000A9
:1034B0007047000010B50E48808A0E4CE0810E2047
:1034C0000D49205EFCF749FFC0B20521E0700528D8
:1034D00001D3E17007E0002803D00E20205E002811
:1034E00001DC0020E070E078081A607010BD000078
:1034F00000040140580000205215000010B50A4C8D
:103500006069C00602D4606980060BD506480021B8
:10351000803800F02BFB30206061044801880222D3
:103520001143018010BD00008007014026000020EB
:10353000F0B50B48C77C0B492E254D5F2C246A4201
:103540000C5F16B2624213B22A228A5E06485142CA
:1035500009B2068085800381848101828282F0BD68
:1035600004060020600100200007014070470000B1
:10357000F8B50D4606460121102000F0B1FD304699
:103580008149803001636A79297992001143AA7ACE
:10359000EB7A12015B011A431143AA79920111439C
:1035A000EA79D20111432A7B120211436A7B52024B
:1035B0001143F1672988316369887163E98B31624E
:1035C000298C7162698CB162A98CF1622989316799
:1035D00029462031CB7D8A7D5B001A438B7FEC8AA4
:1035E0009B01E40123431A430B7E1B021A434B7ECB
:1035F0005B021A43CB7F9B031A432B8BDB031A43DB
:103600000262CB7E8A7E5B002C461A4340342378CC
:103610006F8B9B01FF013B431A430B7F497F1B02CA
:103620001A4349020A43617889030A43A98BC903F3
:103630000A434262A27B217B92001143A27AE37A81
:1036400012015B011A431143627B52001143E27B7A
:10365000D2001143227CD2011143227E1202114377
:10366000E27D52021143A27E92021143627ED20297
:103670001143227F12031143E27E52031143816200
:10368000627DE17C92001143627CA37C12015B01AC
:103690001A431143227D52001143A27DD2001143EF
:1036A000227CD2011143627F12021143A27F520297
:1036B0001143C1622279A178120111436279237A00
:1036C00052019B011A431143E27812021143A2797D
:1036D00012031143E27952031143627A92031143B8
:1036E0007167E98C3165298D7165A18EB167E989B2
:1036F000B164298AF1641221695EB1631421695EA3
:10370000F16360352A78E17F520011436A78AB7823
:103710009202DB021A43114301602A79E9785200D0
:1037200011436A79AB799202DB021A43114381603B
:10373000E97B2A7C0901520111436A7C9201114301
:10374000AA7CD201114301612A7AE979520011431E
:103750006A7AAB7A9200DB001A431143EA7A1201CB
:1037600011432A7B520111436A7B92011143AA7BC8
:10377000D20111438161054931644160C1604161F9
:1037800003490163F8BD0000ADDE0000FFFF00004B
:10379000FECA000010B57621FCF7D1FD10BD000077
:1037A00000B59FB06846FFF7F5FF00206B46187123
:1037B000012159719971D971D882188358831C4A93
:1037C00010AB9A860C226B461A725972194A1A80EB
:1037D0005A808722D200DA83174A1A845622DA8462
:1037E0001A855A859A85DA851A8608AB9875D87530
:1037F0000E909877D87710AB1870D8751690187708
:103800001874197158719971D871D87718ABD87329
:10381000197410ABD9725973D87369460748FFF70A
:10382000A7FE06488030006A054988831FB000BDA6
:10383000FF1F000042040000DEFE00000007014000
:10384000C40300200749888C0007000F4872032832
:1038500001D9002001E0032801D008707047012041
:103860008870704758000020F8B52D4D16222D4C59
:10387000AA5E22851421695E6185E88E2A4B2A4E54
:1038800058432B46DB8E001473431B145B42824269
:1038900001DD024602E09A4200DA1A4612B222859F
:1038A000814201DD014602E0994200DA19464043B7
:1038B0005243801A09B21D4A61851063506B00297A
:1038C00000B201DB0A4600E04A42824203DD0029E1
:1038D00000DC404260851648216C006A40180014E4
:1038E00001F0D0F9E8611C221E21AA5E2826695E3B
:1038F0002A20A65F205E17460B4677434343FB1AF8
:10390000714342438818C01301B2606CDB131BB2D1
:103910004343DA1341432A83C8136883F8BD000088
:10392000600100209000002000130100000B014006
:103930004C020020F8B542488088424CA0810C20FF
:10394000205E0027002800DAA7810C20205EE18994
:103950004018C003000CE081E1893B48FF25C135D8
:103960003A4E814200D9E081E089FDF744F8384AB7
:10397000384B01F083FC5FD8E089FDF73CF8364A0C
:10398000364B01F049FC04D2E18980232A461920F4
:103990000BE0E089FDF72FF8314A324B01F03CFC97
:1039A00006D2E1892B4632463220FDF790FF41E0F6
:1039B000E089FDF720F82C4A2C4B01F02DFC04D2B5
:1039C0002B4AE18933464B20EFE7E089FDF713F8F6
:1039D000284A294B01F020FC04D2254B274AE189D3
:1039E0006420E2E7E089FDF706F8254A254B01F05F
:1039F00013FC04D2214B244AE1897D20D5E7E089DC
:103A0000FCF7F9FF214A224B01F006FC04D21E4BC1
:103A1000204AE1899620C8E7E089FCF7ECFF1E4ABE
:103A20001E4B01F0F9FB04D21A4B1D4AE189AA2072
:103A3000BBE7AA20608100E067810A20205EF8BD14
:103A40000004014030000020FF7F0000240500003A
:103A50001779BA6AC30260407AB4A844F2057C4080
:103A60009CAB7FCE5B909440653934CACC59A94059
:103A7000AC0C0000E6BC91F66714BA40141A0000C2
:103A800010363CC87B4DC6409A2C000003276801C5
:103A9000FD18D040634000008D18996FC292D3404A
:103AA0004B4E000002480021C16081618160704777
:103AB0002803002030B50D480D4A0E4B0479986953
:103AC0001169042C0DD20C4D14682D8B64106C43BD
:103AD000DD696419DC611862516008490120487091
:103AE00030BD18625160D86130BD00005001002027
:103AF000D00200204C0200206C0600209000002024
:103B00000421415E8268C9008A4206DA0023C35E4E
:103B1000D21882608A4200DB816082688A4206DDB8
:103B20000223C35ED21A82608A4200DA8160826810
:103B3000D310C3808A4201D1012070470020704712
:103B400010B50121480200F0A9FA0749054888622A
:103B5000C8050169890889000161016901221143D1
:103B6000016110BD837A000080000040074A803068
:103B700002630129816A05D0054A11408162054925
:103B80000163704740221143F8E70000ADDE0000FA
:103B9000BFFF0000FECA000070B5214D2148698AB0
:103BA0000181A98A418100241F49182204608A5E8C
:103BB000C460514241602C706C83AC83143004604B
:103BC0001A49C4604160E98A0181298B4181154904
:103BD000174838390A46434209C11C32D46009C229
:103BE0000B463220603B4C60D882124806890E801A
:103BF00046894E8081891180C1895180EC650E4AC9
:103C00002C661168696684611161AC651C610A21CA
:103C1000AC66C1872C64FEF7E5FF6C8070BD0000C8
:103C200090000020FC060020A0010020E0FCFFFF27
:103C3000000070174C020020D0020020F0B5344E76
:103C400022213046415E26227588825E046D436DD6
:103C5000C9003048AC46012D00682F4D3FD040359B
:103C60000E27EF5F67437C131027EF5F5F437B13E3
:103C7000C91A60431041081828494042884202DCB2
:103C80004942884200DA0846F083308421482021E6
:103C9000C28B715E036A4A439A180262838B521385
:103CA0004B4319138A180260C18E8A4202DC0160FC
:103CB000490301620068716E0203521A9211511891
:103CC0007166174A09131161B189164A4843F16BAD
:103CD0000918F16391616146002907D007E00C27BC
:103CE000EF5F67437C130E27EF5FBFE70020306470
:103CF000308D7084084A16201421105E515E4043B6
:103D00004943411808480163406B08490882F0BDE7
:103D1000900000208C06002060010020E02E0000B2
:103D2000D00200204C020020000B0140280300209C
:103D3000FEB501246D46089B2C72344C324DA562B1
:103D4000334C01263604A34250D1304C314D40341F
:103D50006561314D314C6B4063401C68304D2C40E7
:103D60001C6070601C68F5022C431C60C91C8F0825
:103D7000BF0013460097019015E00199890889005A
:103D8000716019785C78240209199C78DD78240424
:103D90002D0664190919B1600099091F0091019954
:103DA000091D1B1D019100990029E6D10097019082
:103DB00019E00198800880007060107853781B0229
:103DC000C0189378D4781B0424061B19C018F36814
:103DD000834201D0684601720098001F009001984C
:103DE000001D121D019000980028E2D10749002013
:103DF0004031486131680B4A1140316003498862A3
:103E00006846007AFEBD0000837A00008000004012
:103E10000CA4FD9A358F00000F045C6A03A0A0F08B
:103E2000FF7FFF7FFFF7FFF710B5012189020248EE
:103E3000FEF7E8FF10BD00000008014070470000D9
:103E4000F0B5418B85B049420AB242831826865F9D
:103E500069468E818149824B4A43B10351184942D8
:103E6000CA17520C5118C9130DB26946CD81711988
:103E700049420AB269460A8201462031AE425BDC01
:103E8000964230DC954204DC01244C760C761446D4
:103E900003E002244C760C762C463419E70F3C19CB
:103EA0006410361B36B22D1B6F462DB2121BBE811D
:103EB000FD81AC1B012512B2AD033A82641BBB80AD
:103EC000AC4201DD2C4602E09C4200DA1C46921B0B
:103ED000521BFC80AA4201DD2A4602E09A4200DA27
:103EE0001A463B465EE05419E70F3C196410361B36
:103EF00036B22D1B6F46121BBE8112B2B41A0126B8
:103F00002DB2B603FD81A41B3A82B44201DD3446D2
:103F100002E09C4200DA1C46AA1A921BBC80B24204
:103F200001DD324602E09A4200DA1A46FA803B810D
:103F300003224A7602225FE0954235DC964205DC98
:103F400004244C7601240C76144604E005244C76B7
:103F500003240C7634462C19E70F3C196410361BE9
:103F600036B22D1B6F462DB2121BBE81741B01266B
:103F7000B603FD8112B2A41B3A82B44201DD34467D
:103F800002E09C4200DA1C4627466C46521BA78082
:103F9000921BE380B24201DD324602E09A4200DA2F
:103FA0001A4623461A8128E09419E70F3C19641039
:103FB000361B36B22D1B6F46121BBE8112B2B41ACD
:103FC00001262DB2B603FD81A41B3A82B44201DD65
:103FD000344602E09C4200DA1C46AA1A921BBC80BE
:103FE000B24201DD324602E09A4200DA1A46FA8015
:103FF0003B8106224A7603220A766C22125C002A52
:1040000003D1049B039A029301926B4604229A5EA9
:10401000144B0125AD031B8852195A43D4131A4679
:10402000643A944200DD144644856E460624345FAB
:1040300064195C43E413944200DD1446848508242B
:10404000345F64195C43E313934200DC1A46C28573
:10405000012048760220887605B0F0BDDA6E0000B7
:1040600000C0FFFF9A0000203EB50A4B1A886C463C
:1040700022804031CA8824889B89121B6C46238089
:1040800009899BB2A280C91AE180062201A9FCF726
:10409000F9F83EBD000401407047000010B50F4C18
:1040A0000D4AA26223151A0501290BD0410503D53B
:1040B000116919431161184311698143116100208D
:1040C000A06210BD410503D5116999431161984360
:1040D00011690143F2E70000837A0000800000408C
:1040E000074A064B93620029D16901D0014300E0E1
:1040F0008143D1610020906270470000837A000004
:10410000800000400348806800E0C06C0028FCD1BB
:10411000704700008400002008B500210091814212
:1041200002D200BF491CF9E708BD000010B506C85F
:10413000891A084AC1610838914202DC5242914210
:1041400000DA11464162183000F01CF80249C881BB
:1041500010BD0000FF7F0000A00100200268C168C0
:104160008A4205DA836BD21802608A4200DB016062
:1041700002688A4205DDC36BD21A02608A4200DC03
:1041800001607047FEB501680446C8178A0A8005B9
:104190001043009060688F05C117820A86058D055F
:1041A000E0681543C1170291019062890023FCF772
:1041B00019F8E161A061236962691B184A41236112
:1041C00062610098F91A904103DA009827616061F2
:1041D00004E0981BAA4101DA266165612289002367
:1041E00002990198FBF7FEFF420EC90111432269B3
:1041F000C001636982185941A261E1610098BB1A4C
:10420000884103DA0098A761E06104E0901BA941AE
:1042100001DAA661E561217FA0698902800D08436A
:1042200000B2FEBDC1684269C9018A4206DA1023A4
:10423000C35ED21842618A4200DB416142698A4210
:1042400006DD1223C35ED21A42618A4200DC41615C
:104250007047000070B515480024154A046002201C
:10426000105E144B411C144D09B20A2802DA518029
:10427000988803E0142803DA51801888A88003E0A6
:104280000E490420087154800D4E304600F0B0FEF7
:104290002880304600F0ACFE68800748FFF730FC0D
:1042A0000848C48144828482048270BDD002002008
:1042B000E40300208C0200204C0300205001002069
:1042C0000AD7233CA0010020F8B53B4D3B4FA87B0B
:1042D0003E468036002400280BD03949394B085F10
:1042E00039493A4A002814D0642822D0C82826D058
:1042F0002CE00120A873FF2048307885B885F88528
:10430000404238867886B886306B80472C480480D7
:1043100025E00B63908B2E4B18430862908B0C2288
:10432000104348620C63284801218038FFF71EFCC7
:104330000BE00B63908B274A1043086204E00B6389
:10434000908B0822104348620C6300BF1C49002078
:10435000085EFF222D32904210DA401C0880E87B74
:1043600001280AD11648AC730480EC7300F046F8BB
:10437000154801218038FFF7F9FBF8BD12480021EC
:104380008038FFF7F3FB72B67C85BC85FC853C86E4
:104390007C86BC86306B80470B49FF204039086023
:1043A000FFF7FEF90C484169C2141143416162B63E
:1043B0000120E873D6E700008C0200206001002095
:1043C000E4030020ADDE000080070140C4030020AC
:1043D000080C00000C0800004004014010B505491D
:1043E0000020C87001460448FFF7C0FBFDF770FECF
:1043F00010BD00005001002000070140F8B5002169
:104400007F48FFF7B3FB7F4800F002FE7E49088239
:104410007E4800F0FDFD7C49002448827C487821DC
:10442000847701840C2141848480448004808460EA
:10443000846144610482C460FFF734FB754F7248A5
:10444000BC708473C473002000F0C0FD6E49724DCF
:104450008881284600F0CCFDFCF7D0FF6A498882AD
:10446000284600F0C5FDFCF7C9FF67496C4DC882BE
:104470006A48288068802E46A8808036306B804746
:10448000284640300482C481EC81AC812C826C824D
:10449000848244822C806C80AC802C866C86AC86B6
:1044A000B4613462EC6774602C836C83EC82AC8200
:1044B000AC84EC842C85002000F09AFD5249086001
:1044C000584800F095FD504948605748048244829E
:1044D000446184808460C480544800F099FD4A4956
:1044E000544D886008468477848351487F264480F1
:1044F0000A20F8807D20400128844F4868840020ED
:10450000A862F605E862304600F072FDFCF776FF1F
:10451000A861304600F06CFDFCF770FF6C622C6007
:104520004042EC60E861454800F072FDFCF76EFF28
:10453000A863344800F06CFDFCF768FF6C606C64A5
:10454000E863304800F064FDFCF760FF28643C48F5
:10455000A8643C48007C002807D13B4800F048FD97
:10456000FCF74CFF29464031C881384800F050FD27
:10457000FCF74CFF28653648002204600262846024
:1045800005264262068304614461FFF705FB274864
:1045900000F03EFDFCF73AFF2E4988872E4800F0D8
:1045A00037FDFCF733FF184DE8632C4800F030FD71
:1045B000FCF72CFF28642A48048044808480C4804F
:1045C000048144818481FDF7CDFC00257D5FFCF7EB
:1045D000BBFE3888401B388801D4401B00E0281AF5
:1045E0000228F6DB1F48F021C180C82101814181EA
:1045F000AA2181814684848432210171F8BD0000A2
:1046000000070140000020418C0200200000A04172
:104610002803002050010020CDCCCC3D2102000019
:1046200060010020CDCC0C3F4C0300200000704204
:1046300002000020D0020020701700000000C040DF
:104640003904000004060020CDCC0CBF0000AF43AD
:10465000100500204C0200200000F0410000FA4349
:10466000E403002080050020F8B52E4DA87F002827
:1046700057D12D4C2846A17880682C4E002900D0B7
:104680004042F060002000F0C3FC3082284800F077
:10469000BFFC70822548FFF7C5FD7069254EC0112B
:1046A000F060FCF7B3FE306023488169C069081AE6
:1046B000286200D540420014204928624018204951
:1046C0000026884203D2A88C401CA88400E0AE8457
:1046D000072020710120A877A1781A481A4C0029D8
:1046E00002D0012905D00AE000F082FCFCF786FE2A
:1046F00004E000F07DFCFCF781FE40426082134F35
:10470000384600F075FCFCF779FEA882384600F0C8
:104710006FFCFCF773FEE882FDF750F9FDF76EF9C8
:10472000A682F8BD8C020020500100204C0300201E
:104730000000A041D00200204C0200202FF8FFFF13
:104740007F3E0000CDCC0C3FA0010020CDCCCC3D65
:10475000F8B5714B0C21595E704F714E714D724C12
:10476000022910DA71480088012809D12869002837
:1047700000DA40423A6C904202DD491C998170E0B7
:10478000002098816DE006206649185E496802287D
:104790000CDA401CD8800E20205EC217830A9205D6
:1047A0001A43EA6280052960A8625AE0BA8B521C5B
:1047B00012B2BA83002A40DB0022BA8302280DD14C
:1047C0000320D8801220205EC217830A92051A4364
:1047D000EA6280052960A862FDF710F95448827AE0
:1047E0005449012A03D0807A022805D006E05248B5
:1047F00000788000085800E00868E8604F4880783A
:10480000002802D0012804D008E0E868002803DB73
:1048100004E0E868002801DD4042E86030780128C3
:104820001AD0012070703F48FFF798FC3D48FFF711
:104830007DFCFCF7F3FD424908804248817F3A48FD
:104840004030012910D03A49897A00290CD02969D1
:1048500000292FDB0A462EE03B490020088038491A
:104860000880FDF7CBF8E8E7818F2187C18F61874A
:104870002D4980310A8B8282498BC1822C48007C71
:10488000284F4037012806D1304800F0B1FBFCF733
:10489000B5FD8010F881F8896082012030702869A8
:1048A000002800DA4042296D88422EDA2348092187
:1048B00001712AE04A42264D264BAA420BDC9A8916
:1048C0002287DD89658719898182C182B180F18063
:1048D0003281758117E0002900DA49421E4A91426F
:1048E00011DB99897D2292025143090C2187D989D4
:1048F0001A4A5143090C618719897D22920251435A
:10490000090C8182C182002030700D480088A0828D
:10491000FDF754F8F8BD0000E40300208C020020ED
:1049200002000020D0020020A00100209200002000
:1049300004060020EC050020590000205001002052
:10494000AA00002080050020AC000020CDCC0CBFC8
:10495000701700004C0200201027000000EE02003B
:1049600006490A20085EFA2802DA401C488170478E
:104970000020488102490871C8707047E403002094
:104980005001002070470000F8B53A4C3A4F2079AA
:104990003A4E0025030000F098FB0C071F1B282B44
:1049A0004F4F2E4F4245494FB87F002808D1344819
:1049B000807A002804D00120E07033493148086033
:1049C000FFF71CFDE078002839D00220207140E07C
:1049D000FFF77AFC012006E0FFF710FD01212B48CC
:1049E000FFF7C4F80320207126E0FFF733FC23E033
:1049F000FFF73AFE20E0388A7D210901884201D282
:104A0000401C3882FFF7A4FEE078002821D13088CE
:104A1000002814D100211D48FFF7A8F80BE0FFF78C
:104A20009FFF09E0E088002805D105E0FFF7D6FCEC
:104A30003088002800D12571E078002809D130881D
:104A4000002806D100211148FFF790F8C820E08027
:104A500025713088002805D000210C48FFF786F822
:104A60000B202071B87F012802D109488586458630
:104A7000F8BD000050010020800500202600002025
:104A800004060020C0DA0000740000200007014086
:104A90000C04002000B5FCF74DFF00BD704700007E
:104AA0000A48016A04221143016209480179491C3C
:104AB0000171C188491CC1800189491C018141895A
:104AC000491C41818189491C818170470006014050
:104AD0003C01002070B5054627480C46854203D1AD
:104AE00001212020FFF7FCFA2448854203D101214F
:104AF0004020FFF7F5FA20782179C007C90608435E
:104B0000217A89060843217B09060843218A090581
:104B10000843A18A09040843E16909030843216A9B
:104B2000C9020843616A89020843A16A490208432D
:104B3000E16A09020843616B09010843A16BC900DE
:104B40000843E16B89000843216C49000843616C0C
:104B500008432860A0696860E06CA860A06CE86009
:104B6000206B2861206D6861606DA861A06DE861AF
:104B70000720286270BD00000005014000060140CA
:104B80000021016041608160C160016141610122D9
:104B9000C261816141628162C162016302624163FB
:104BA000C163016441648164C164016541658263DC
:104BB0008165704770B525498020254D088028798A
:104BC00000240A281BD3234E2C71F088002801D022
:104BD000401EF080FDF754F900F0ACF8FEF772F9D2
:104BE0001D480088002801D00B203071FFF7CCFE53
:104BF000FEF7A0FE19492220085EFCF7DDFFE888D9
:104C0000642802D3EC8000F07BF82889C82802D3FE
:104C10002C8100F097F868897D21C900884206D36D
:104C20000F486C81807C012801D1FEF797FBA88991
:104C30000C49884204D3AC8100F0D4FA00F08CF81F
:104C4000A878002800D0AC7070BD000000000020E3
:104C50003C010020500100202600002060010020BF
:104C6000800500208813000010B5054903488862BC
:104C700001210803FFF712FA10BD0000837A00003B
:104C8000800000400121C903411809048A0D032155
:104C900009020A40012118B5C90340188004010E19
:104CA0004800FF24611A144B4900002A16D0FF3A2D
:104CB000521E1AD0FF3A521E03D0FF3A012A0BD1DE
:104CC00004E0185A6A465080585A04E0595A6A4615
:104CD0005180185A07E01080009818BD185A6A468B
:104CE00040425080585A4042F5E7595A6A46494274
:104CF0005180185AEFE70000C45D000070470000C3
:104D000000B5FDF783FFFEF7BFF806498881898962
:104D1000054801870549098841870549098A81872E
:104D200000BD000004060020800500203A0000209D
:104D30000004014010B5FEF7BDFBFEF7ADFAFCF72D
:104D4000D3FF10BD10B50348807F002801D1FCF7C8
:104D5000CDFC10BD80050020F8B569494879401C9C
:104D6000C0B24871022873D30022084642716548D8
:104D700034273826C75F865F634BB91B8C46C9183A
:104D80005B00994201D904230EE0604B6146C918CB
:104D90005B00994201D9032306E05D4B6146C918C7
:104DA0005B00994203D9022355498B7102E0544BB1
:104DB00001219971534D04214035836C695E284669
:104DC0002038994205D00274994202D94C4C0121F5
:104DD000E1714C49AB80C96C0091C9B28E46494C17
:104DE00048492034647A6031BE424BDA7D273F0166
:104DF000BC4508DD057C002D03D0A41C44720A705C
:104E000004E07446FAE7067C002E03D0017C0129F9
:104E100016D066E0EB7F002B0AD04B785B1CDBB230
:104E20004B70042B5DD94A7035498979611857E078
:104E3000334B9B79E31843720123EB770A7050E000
:104E40002F494C780978002C03D0012C0CD048E075
:104E50004DE0012902D0022903D042E0417A1B1F14
:104E60000CE0417A0A3B09E0012902D0022903D073
:104E700037E0417ADB1F01E0417A123B994230D39F
:104E800002742EE0BE422CDD1D4BDB79012B08D0D5
:104E90007D23F61B1B019E4212DD017C00290AD0F6
:104EA0000CE0174B197A491CC9B219720A2918D992
:104EB000DA711A7215E0427201210174EA7710E08A
:104EC000037C002B0DD10B78002B11D08B785B1C51
:104ED000DBB28B70032B04D98A7009498979611A76
:104EE0004172427A00998A4201D971464172F8BDF5
:104EF000034B9B79E31A437201230B70DEE700003A
:104F00005800002080050020CA080000E2040000CC
:104F1000EE0200003EB56846FDF77FFF00246946BB
:104F20000C7101204C718002104D00902846FDF755
:104F3000C4FE69460C714C71402000902846FDF774
:104F4000BCFE10212846FDF766FF6846FDF765FFA9
:104F5000012069460871102000902846FDF7ADFE3B
:104F600010212846FDF757FF3EBD00000008014014
:104F700010B5FCF79DFB0848002141740122C27462
:104F8000817281820548C1863F2040020449006841
:104F90004862FEF757FC10BD040600200C040020F8
:104FA0005800002000B597B06846FFF7E9FD0120E2
:104FB00000904B208001069004201690694602481C
:104FC000FFF788FD17B000BD0006014070B5074C23
:104FD0000546208BFBF7A4FF294600F083F9FBF779
:104FE0004DFFA17E084180B270BD00006403002027
:104FF00070B5064C05462088FBF792FF294600F065
:1050000071F9FBF73BFFA178084170BD64030020F4
:1050100070B5064C05462089FBF782FF294600F053
:1050200061F9FBF72BFFA17A084170BD64030020F2
:1050300010B5FBF749FE074A074BFBF721FD00229D
:10504000064BFBF71DFD064A064BFBF72DFAFBF757
:105050004FFC10BD72DF92CEF66A7D3FC0FFDF408D
:10506000CDCCCCCCCCCC0C407047F8B504148BB272
:10507000264682B25E430D14104637145843360458
:1050800080190021794116466E4337143604801981
:10509000794126466E438919F8BDF8B5040C8BB2E8
:1050A000264682B25E430D0C1046370C5843360438
:1050B00080190021794116466E43370C3604801959
:1050C000794126466E438919F8BD30B47446641E92
:1050D0002578641CAB4200D21D46635D5B00E3187B
:1050E00030BC1847002805DBC106C90E01208840E6
:1050F000014908607047000000E100E08307FF22DB
:10510000DB0E9A408907090E9940002808DB8308C6
:1051100009489B001818036893430B4303607047CA
:105120000007000F0838830804489B001818C3695B
:1051300093430B43C361704700E400E000ED00E0DF
:105140000F48002200780F4903280ED1CA700A7157
:1051500008890123401C80B208811E2801D2CB702F
:1051600006E03C2801D20B7102E00A81CA700A7184
:105170000548807F002802D00A81CA700A717047F2
:105180005800002030000020800500200948816878
:10519000021411438160FFF7BDFEFDF75FFF00F0D1
:1051A0000FF8FFF7E5FE05490348088062B6FFF7F0
:1051B00001FDFCE780000040C4090000FE00002063
:1051C00010B5FCF767FCFDF7C7F9FCF7CBFEFDF760
:1051D00011F803490148086110BD00009453000014
:1051E0003C01002010B50B4A01239178012906D11A
:1051F000507A032803D00320507210629372547ABD
:105200001078844204D0002902D150721062937247
:1052100010BD00005800002070B501250C002D05C0
:105220001C4310D4EC4206D4AC420AD4994200D0BC
:1052300070BD904270BDE94217D4EB4215D499423B
:1052400070BD894270BDEC4206D5AC42F9D58B42A7
:1052500000D070BD824270BD6D004C00EC4204D2A3
:105260005C00EC4201D28B4270BD034C30B4FBF7C2
:10527000DBFE30BC70BD00BF1900160470B50125FF
:105280001C002D050C4310D4EC4206D4AC420AD4C9
:105290008B4200D070BD824270BDEB4217D4E94210
:1052A00015D48B4270BD9B4270BDEC4206D5AC421A
:1052B000F9D5994200D070BD904270BD6D005C0080
:1052C000EC4204D24C00EC4201D2994270BD0FB4C2
:1052D000034C0CBC03BC30B4FBF7A6FE30BC70BD65
:1052E0001900160470B5420064414B005C41120E77
:1052F00039D01B0E38D0FF2A3CD0FF2B3AD04002C9
:105300004902400A490A060045184E43000A090AA4
:10531000D2184843ED017F3A0104731A4019190C61
:105320004318990F04D001215B0849075B1A521CEE
:10533000D80904D3401CF50301D19D0607D0FF2AEC
:1053400008D2D50506D0E4072043401970BD0125D9
:10535000A843F4E7002A01DCE00770BD2402FF2027
:105360002043C00570BD1B0EFF2A03D0FF2B01D0C8
:10537000E00770BDFF2645003606B54206D84D0051
:10538000B54203D8D218FF2A00D0E7E7004870BD25
:105390000000C07F5665725F332E390000000000A8
:1053A000000000000000000000004204ED020000C8
:1053B00000000000C02709000100080038B5030004
:1053C000F8070000F80700008E0000000000000051
:1053D0000000000000000000000000001C0C0000A5
:1053E00000000807C0270900F05500006666664007
:1053F000CDCCCC3DCDCC1041B657EB3B5E06A33BAC
:10540000000000000000000000000000000000009C
:10541000000000000000000000000000000000008C
:10542000000000000000000000000000000000007C
:10543000000001000000000000000000000000006B
:10544000000000000000000000000001000000005B
:10545000000000000000000000000000000000004C
:10546000000000000100000000000000000000003B
:10547000000000000001000000000000000000002B
:10548000000000000000010000000000000000001B
:10549000000000000000010000000000000000000B
:1054A00000000100000000000000000000000001FA
:1054B00000000000000000000000000100000000EB
:1054C00000000000000000000100000000000000DB
:1054D00000000100000000000000000001000000CA
:1054E00000000000000001000000000000000000BB
:1054F00001000000000000000000010000000000AA
:105500000000010000000000000001000000000099
:105510000000000100000000000100000000000089
:105520000000000100000000000000000100000079
:105530000000000100000000000001000000000069
:105540000001000000000000010000000000000158
:105550000000000000000100000000000000010049
:105560000000000000010000000000010000000039
:105570000001000000000001000000000000010028
:105580000000000001000000000001000000000019
:105590000100000000000100000000010000000008
:1055A00000010000000001000000000001000000F8
:1055B00000010000000000010000000001000000E8
:1055C00000000100000000010000000001000000D8
:1055D00000010000000001000000000100000000C8
:1055E00001000000000100000000010000000001B7
:1055F00000000000010000000001000000010000A8
:105600000000010000000100000000010000000196
:105610000000000001000000010000000001000087
:105620000001000000000100000000010000000176
:105630000000000100000001000000010000000166
:105640000000000001000000010000000100000057
:105650000100000001000000010000010000000145
:105660000000000100000001000000010000000136
:105670000000010000000100000001000000010026
:105680000000010000000100000001000000010016
:105690000001000000010000010000000100000105
:1056A00000000001000001000000010000010000F6
:1056B00000010000010000000100000001000000E6
:1056C00001000001000001000000010000010000D5
:1056D00001000000010000010000010000000100C5
:1056E00000010000010000000100000100000100B5
:1056F00000000100000100000100000100000100A5
:105700000001000001000001000000010000010094
:105710000001000001000001000001000001000084
:105720000100000100000100000100000100000173
:105730000000010000010000010000010000010064
:105740000001000001000001000001000001000054
:105750000100010001000001000001000001000142
:105760000000010000010000010000010001000034
:105770000100000100000100010000010000010023
:105780000001000001000100000100000100010013
:105790000001000001000100000100000100010003
:1057A00000010000010001000001000001000100F3
:1057B00000010000010001000100000100010000E3
:1057C00001000100000100010000010001000001D2
:1057D00000010000010001000001000100000100C3
:1057E00001000001000100000100000100010001B2
:1057F00000000100010001000001000100010000A3
:105800000100010001000001000100010000010091
:105810000100010000010001000001000001000181
:105820000001000001000100010001000001000171
:105830000001000100000100010001000001000161
:105840000001000100000100010001000100000151
:105850000001000100010001000100000100010041
:105860000100010001000100000100010001000130
:105870000001000100000100010001000100010021
:105880000001000100010001000100010001000110
:105890000001000100010001000001000100010001
:1058A00001000100010001000100010001000100F0
:1058B00001000100010001000100010001000100E0
:1058C00001000100010001000100010001000100D0
:1058D00001000100010001000100010001000100C0
:1058E00001000100010001000100010001000100B0
:1058F00001000100010001000100000100010001A0
:10590000000100010001000100010001000100018F
:10591000000100000101000100010001000100017F
:10592000000101000100010001000100010001016E
:10593000000100010001000100010001010001005F
:10594000010001000100010100010001000101004E
:10595000010001000100010100010001000100013E
:10596000010001000100010100010001000100012E
:10597000010001000100010000010100010001001F
:10598000010100010001000101000100010001010D
:1059900000010001000101000100010001010001FE
:1059A00000010001010001000101000100010100EE
:1059B00001000101000100010100010001010001DD
:1059C00000010100010001010001000101000100CE
:1059D00001010001000101000100010100010001BD
:1059E00001000101000100010100010100010001AD
:1059F000010001010001000101000101000100019D
:105A0000010001010001000101000101000100018C
:105A1000000101000101000101000100010100017C
:105A2000010001010001010001000101000101006C
:105A3000010100010001010001010001010001015B
:105A4000000101000101000101000101000101004C
:105A5000010100010100010100010100010100013B
:105A6000010001010001010001010001010001012B
:105A7000000100010101000101000101000101001C
:105A8000010100010100010100010100010101000B
:105A900001010001010001010001010001010001FB
:105AA00001000101000101010001010001010001EB
:105AB00001010001010001010001010100010100DB
:105AC00001010001010100010100010100010101CA
:105AD00000010100010100010101000101000101BB
