:10000000022DB402000632323232320234823232EF
:0100100032BD
:030013000237743D
:03001B000233A00D
:030023000237D5CC
:03002B00020007C9
:03003300020008C0
:03003B00022C8B09
:03004300020009AF
:03004B00023795E4
:030053000218EBA5
:03005B0002000A96
:03006300023897C9
:03006B0002000E82
:0300730002000F79
:10007B0002001002043FE86480F8E933E8336011B2
:10008B000460F0ED33EC337009E8FCE9FDEAFEEBBC
:10009B00FF220460DED3EB9FEA9EE99DE8C2E78C6A
:1000AB00F0C2F795F0400CE8CCF8E9CDF9EACEFABE
:1000BB00EBCFFB12040A85D0F05804700320D5B3A4
:1000CB00E80470075002B2D502044992D5EC0460E3
:1000DB00F7E4CCC0E0C398F8603B94186008400D7F
:1000EB00D0E0FB020421E4FBFAC9FC8028E830E4F1
:1000FB0006E4C9FBE4CAFCE830E305E4C9CACBFC5F
:10010B00E854076010F8C3E913F9EA13FAEB13FB91
:10011B00EC13FCD8F130F52FC3E49CFCEF9BFFEE06
:10012B009AFEED99FDD0E0FBEF4E4D4C701222DBA9
:10013B0003020446EC2CFCEF33FFEE33FEED33FDF4
:10014B00ED30E7EB020421EF2BFFEE3AFEED39FD2C
:10015B00D0E0FB50130BBB0003020449ED13FDEE83
:10016B0013FEEF13FFEC13FC020421EC4D6011E8BE
:10017B00497017ED33EC3304600DE4FCFFFEFD22F8
:10018B00E933E8330470F802043F12040A580460A0
:10019B0009E4CC2481500628500902044928400365
:1001AB00020446C0E0EB4A7044B98006D0E0FB0283
:1001BB000435EF4E701CBD8008EBFFEAFEE9FD80B5
:1001CB00EBE98DF0A4FEE5F002025FE9CDF9EAFE62
:1001DB00EBFFEF89F0A4FCE5F0CE89F0A42EFFE451
:1001EB0035F0CD89F0A42DFEE435F08067EF4E702D
:1001FB0005BD80D780C3EF8BF0A4ACF0EE8BF0A4E1
:10020B002CFCE435F0F8EF8AF0A42CE5F038FCE494
:10021B0033CB8DF0A42CFCE5F03BF8EE8AF0A42C4C
:10022B00FCE5F038F8E433CF89F0A42CFCE5F0388A
:10023B00CF3400CE89F0A42FFFE5F03EFEE433C9A6
:10024B008DF0A42EFEE5F039CD8AF0A42FFFE5F05A
:10025B003EFEE43DFD33D0E0FB50070BBB000F022D
:10026B000449EC2CFCEF33FFEE33FEED33FD0204BF
:10027B0021020449EC5D046005E859047003020493
:10028B003F12040A580460F6EC4860F2EC7004FD6F
:10029B00FEFF22C860DB2481C85009C3986002505E
:1002AB00060204469850CAF582E9294B4A7005AB01
:1002BB008202043575F0007C1A7880C3EF9BEE9AAE
:1002CB00ED99400DC3EF9BFFEE9AFEED99FDE842D1
:1002DB00F0DC23ACF0D0E0FFD0E0FED0E0FDAB8251
:1002EB0020E7101BEB60BAEC2CFCEF33FFEE33FE78
:1002FB00ED33FD020421E803F830E705C0F075F09B
:10030B0000EF2FFFEE33FEED33FD40B830E7C28038
:10031B00AA74F8CC6480CCC86480C8F58204604FA2
:10032B00C3EB9FF5F0EA9E42F0E99D42F0E89C4555
:10033B00F0603C501DE5825FFFE582D313CB5BCBB6
:10034B00F42B5582FB50280ABA002409B900200867
:10035B00801DE5825BFBE582D313CF5FCFF4C31324
:10036B002F5582FF50090EBE00050DBD00010CC3B9
:10037B00EB9FF5F0EA9E42F0E99D42F0E89C45F0D8
:10038B006007CC4820E701B3EC2275F020800E7596
:10039B00F010800575F0087D007E007F003392D54C
:1003AB0030D503120807EC334010EF33FFEE33FE6A
:1003BB00ED33FDEC33FCD5F0ED22E5F0247EA2D538
:1003CB0013CC92E7CDCEFF22EDD2E7CD33EC3392B7
:1003DB00D524814006E4FFFEFDFC22FCE4CFCECD0C
:1003EB00CC24E0501174FF80EDC3CC13CCCD13CDD6
:1003FB00CE13CECF13CF0470F030D5DE020807E951
:10040B00D2E7C933E833F892D5EDD2E7CD33EC33ED
:10041B00FC5002B2D522EC30E7100FBF000C0EBE21
:10042B0000080DBD00040BEB6014A2D5EB13FCED23
:10043B0092E7FD2274FFFCFDFEFF22E480F8A2D5BB
:10044B0074FF13FC7D80E480EFBB010689828A83F5
:10045B00E0225002E722BBFE02E32289828A83E478
:10046B009322BB010CE58229F582E5833AF583E003
:10047B00225006E92582F8E622BBFE06E92582F822
:10048B00E222E58229F582E5833AF583E49322BBE8
:10049B00010989828A83F8E028F022500327F7228A
:1004AB00BBFE05F8E328F3228A838982F8E49328BC
:1004BB0022BB010FF8E58229F582E5833AF583E04B
:1004CB0028F0225009C58229F8E58226F622BBFEC8
:1004DB0009C58229F8E22582F222F8EA2583F58301
:1004EB00E9932822BB010689828A83F0225002F706
:1004FB0022BBFE01F322F8BB010DE58229F582E553
:10050B00833AF583E8F0225006E92582C8F622BB30
:10051B00FE05E92582C8F222EF8DF0A4A8F0CF8C5E
:10052B00F0A428CE8DF0A42EFE22BC000BBE002919
:10053B00EF8DF084FFADF022E4CCF875F008EF2FCF
:10054B00FFEE33FEEC33FCEE9DEC984005FCEE9D8C
:10055B00FE0FD5F0E9E4CEFD22EDF8F5F0EE8420A8
:10056B00D21CFEADF075F008EF2FFFED33FD400709
:10057B00985006D5F0F222C398FD0FD5F0EA22C5AC
:10058B00F0F8A3E028F0C5F0F8E5821582700215AB
:10059B0083E038F022A3F8E0C5F025F0F0E58215F2
:1005AB008270021583E0C838F0E822BB010A898209
:1005BB008A83E0F5F0A3E022500687F009E71922C1
:1005CB00BBFE07E3F5F009E3192289828A83E493E2
:1005DB00F5F074019322BB0110E58229F582E583C6
:1005EB003AF583E0F5F0A3E0225009E92582F8867D
:1005FB00F008E622BBFE0AE92582F8E2F5F008E2F4
:10060B0022E5832AF583E993F5F0A3E99322BB0155
:10061B000789828A8302058A500B09C5F027F7C523
:10062B00F01937F722BBFE0D09F8E325F0F3C5F0FF
:10063B0019E338F322F889828A8374019325F0C574
:10064B00F0F8E4933822BB010DC58229C582C5831E
:10065B003AC58302058A5011C58229F808E5F026B0
:10066B00F618F5F0E58236F622BBFE11C58229F8A5
:10067B0008E225F0F5F0F218E23582F222F8E58275
:10068B0029F582E5832AF58374019325F0F5F0E4CF
:10069B00933822BB010A89828A83F0E5F0A3F0220A
:1006AB005006F709A7F01922BBFE06F3E5F009F394
:1006BB001922F8BB0111E58229F582E5833AF5830E
:1006CB00E8F0E5F0A3F0225009E92582C8F608A668
:1006DB00F022BBFE09E92582C8F2E5F008F222E818
:1006EB008FF0A4CC8BF0A42CFCE98EF0A42CFC8A0C
:1006FB00F0EDA42CFCEA8EF0A4CDA8F08BF0A42D89
:10070B00CC3825F0FDE98FF0A42CCD35F0FCEB8E29
:10071B00F0A4FEA9F0EB8FF0A4CFC5F02ECD39FEDF
:10072B00E43CFCEAA42DCE35F0FDE43CFC2275F054
:10073B0008758200EF2FFFEE33FECD33CDCC33CCDB
:10074B00C58233C5829BED9AEC99E58298400CF5F6
:10075B0082EE9BFEED9AFDEC99FC0FD5F0D6E4CE24
:10076B00FBE4CDFAE4CCF9A88222B800C1B9005958
:10077B00BA002DEC8BF084CFCECDFCE5F0CBF97825
:10078B0018EF2FFFEE33FEED33FDEC33FCEB33FBB9
:10079B0010D703994004EB99FB0FD8E5E4F9FA2243
:1007AB007818EF2FFFEE33FEED33FDEC33FCC9333E
:1007BB00C910D7059BE99A4007EC9BFCE99AF90F06
:1007CB00D8E0E4C9FAE4CCFB2275F010EF2FFFEE72
:1007DB0033FEED33FDCC33CCC833C810D7079BECBD
:1007EB009AE899400AED9BFDEC9AFCE899F80FD535
:1007FB00F0DAE4CDFBE4CCFAE4C8F922C3E49FFFC2
:10080B00E49EFEE49DFDE49CFC22EB9FF5F0EA9E4A
:10081B0042F0E99D42F0EC6480C864809845F02278
:10082B00EB9FF5F0EA9E42F0E99D42F0E89C45F023
:10083B0022E8600FECC313FCED13FDEE13FEEF1378
:10084B00FFD8F122E86010ECA2E713FCED13FDEEEC
:10085B0013FEEF13FFD8F022BB010DE58229F582C1
:10086B00E5833AF58302098B5007E92582F80208E4
:10087B00B7BBFE07E92582F8020997E58229F582C5
:10088B00E5833AF5830209A3BB010DE58229F582C5
:10089B00E5833AF5830208DC5007E92582F8020864
:1008AB00D0BBFE07E92582F80209B322E6FC08E675
:1008BB00FD08E6FE08E6FF22E6FB08E6F908E6FA85
:1008CB0008E6CBF822ECF608EDF608EEF608EFF6A4
:1008DB0022ECF0A3EDF0A3EEF0A3EFF022D083D047
:1008EB0082E493F608740193F608740293F6087485
:1008FB000393F6740473A8828583F0D083D082129D
:10090B000918120918120918120918E473E493A3B1
:10091B00C583C5F0C583C8C582C8F0A3C583C5F020
:10092B00C583C8C582C822EC8EF0A4CCC5F0CCCD53
:10093B00F8EFA4CEC5F02DFDE43CFCE8A42EC8C511
:10094B00F03DFDE43CFCEFA4FFE5F028FEE43DFDAB
:10095B00E43CFC22EF4E6012EF60010EEDBB010B8D
:10096B0089828A83F0A3DFFCDEFA2289F05007F735
:10097B0009DFFCA9F022BBFEFCF309DFFCA9F02286
:10098B00E0FCA3E0FDA3E0FEA3E0FF22E2FC08E213
:10099B00FD08E2FE08E2FF22E493FC740193FD7470
:1009AB000293FE740393FF22ECF208EDF208EEF2D1
:1009BB0008EFF222900130E0900284F06402703272
:1009CB0078A57601789FE6B4011678A5E6D3940056
:1009DB00400A9001007401F0900104F0E4789FF656
:1009EB00900100E06003020FBB9000F2F0A3F00255
:1009FB000FBB900284E0FC64036003020BB8A2956A
:100A0B00335401FE25E0FE900282E054FD4EF0E0EF
:100A1B00FF5401FEEFC3135401B5060FE0FF540260
:100A2B00FE25E0FEEF54FB4EF08010900282E0FFBB
:100A3B005402FEC313FEEF54FE4EF0A293E4335464
:100A4B0001FF25E0FF900285E054FD4FF0E0FF54DD
:100A5B0001FEEFC3135401B5060FE0FF5402FE2550
:100A6B00E0FEEF54FB4EF08010900285E0FF540245
:100A7B00FEC313FEEF54FE4EF0A297E4335401FF76
:100A8B0025E0FF900287E054FD4FF0E0FF5401FE9C
:100A9B00EFC3135401B5060FE0FF5402FE25E0FE31
:100AAB00EF54FB4EF08010900287E0FF5402FEC320
:100ABB0013FEEF54FE4EF0900282E054DFF054BF71
:100ACB00F0E0FF5408FE25E0FEEF54EF4EF0E0FFA0
:100ADB005404FE25E0FEEF54F74EF0E0FFC4540142
:100AEB00FEEF13131354016E6011E0FF30E3054466
:100AFB0020F08007900282E04440F0900285E054A1
:100B0B00DFF054BFF0E0FF5408FE25E0FEEF54EF9A
:100B1B004EF0E0FF5404FE25E0FEEF54F74EF0E0FC
:100B2B00FFC45401FEEF13131354016E6011E0FF69
:100B3B0030E3054420F08007900285E04440F090BC
:100B4B000287E054DFF054BFF0E0FF5408FE25E0CD
:100B5B00FEEF54EF4EF0E0FF5404FE25E0FEEF54A1
:100B6B00F74EF0E0FFC45401FEEF13131354016E64
:100B7B006011E0FF30E3054420F08007900287E02E
:100B8B004440F0900282E020E31C78AF06E6B464A8
:100B9B0005D207020FBB78AFE6C394655003020F73
:100BAB00BB7665020FBBE478AFF6020FBBEC6404B7
:100BBB007065900100E064016003020FBB78A5E64D
:100BCB006029900287E0FF30E60954BFF0789C164D
:100BDB0012372B900287E020E30A78AE760178B8C3
:100BEB0076018007E478AEF678B8F678A5E664016E
:100BFB006003020FBB900282E0FF30E60954BFF0A6
:100C0B00789C0612372B900285E0FF20E603020F3B
:100C1B00BB54BFF0020FBB900284E0FB6405600382
:100C2B00020CDF78A8E6FF7E007C017D6C120523A9
:100C3B00EF2460785FF6EE341B18F69000F2744CDC
:100C4B00F0A37461F0300605762A0876AA9000FEB0
:100C5B00E0FEA3E0FFD394F5EE940A400D783874D0
:100C6B00F626F61874FF36F68013C3EF94EBEE946A
:100C7B000A500A7838740A26F618E436F67837E6FE
:100C8B00FE08E6FFD3948EEE946340081876630853
:100C9B00768E8010C3EF9471EE941C5007783776E4
:100CAB001C0876717837E6FE08E6FFD3785FE69F7F
:100CBB00EE6480F5F018E6648095F04005A6060812
:100CCB00A607900100E06003020FBB9000F2F0A3B7
:100CDB00F0020FBBEB64066003020F5A78B8E6FF15
:100CEB006401600E900100E060089002CAE06407A6
:100CFB00600E9002867401F0E490028CF0020E8577
:100D0B00E4900286F078B2E6FE6404704D78A8E6B3
:100D1B00FDB401129002897419F090028B7478F073
:100D2B00A3740AF08026EDB402129002897416F0B7
:100D3B0090028B7446F0A3740DF0801090028974AE
:100D4B0019F090028B7437F0A37412F078A17664CB
:100D5B0078A976060876BA020E85EE64037057788A
:100D6B00A1766478A976060876BA78A8E6FEB4016F
:100D7B00179002897416F090028B743CF078A17670
:100D8B0062A37410F0020E85EEB4021590028C74FF
:100D9B0011F09002897419F090028B7437F0020EE7
:100DAB008590028C7412F09002897419F090028B6A
:100DBB007437F0020E8578B2E6FE6402705C78A898
:100DCB00E6FDB401179002897423F090028B7464D2
:100DDB00F078A17662A3740AF0020E85EDB4021DC1
:100DEB009002897419F090028B7450F0A3740CF07C
:100DFB0078A1766478A97608087622807D9002899E
:100E0B007416F090028B7446F0A3740DF078A176F3
:100E1B006478A976080876228060EE6401704C78BD
:100E2B00A8E6FEB4011D900289742DF090028B741C
:100E3B0078F0A37407F078A1766478A97608087621
:100E4B00DD8037EEB40212900289742DF090028B84
:100E5B007478F0A37408F080219002897428F090C4
:100E6B00028B7478F0A37409F0800FE490028CF07D
:100E7B0078A1760A78A9761008F69002CAE0B40732
:100E8B0015D378ADE6946418E6648094804007D25D
:100E9B0000E490028EF0D378B7E694D218E6940F64
:100EAB004005E490028CF0EF6401600A90028CE044
:100EBB0090028AF08005E4900288F078B2E6B404E0
:100ECB003378B8E6702E789D0806E6187001068612
:100EDB0006D39476EE94044008E4789DF608F680E9
:100EEB0019D3789EE694AC18E69401400DE4900279
:100EFB008CF08006E4789DF608F690028CE0FF906B
:100F0B00028AE0D39F4002EFF0EF60239000EFE006
:100F1B00FF90028AE0FED39F400F9000EBE0FDEEC6
:100F2B002DC39F90028AF0800690028A7401F09084
:100F3B00028AE0D3941440037414F090028AE0FF09
:100F4B00C313FE90028FF0EF54012EA3F08061903B
:100F5B000284E0640770599002CAE06407705190F4
:100F6B000100E06401704978A8E6FF13B39283EFA8
:100F7B005402FFC31324FFB39282E6FF5404FE1303
:100F8B0013543F24FFB39281EF5408FF13131354F0
:100F9B001F24FFB39280E6FF5410FEC4540F24FFAE
:100FAB00B392B7EF5420FFC413540724FFB392B688
:100FBB0078A3E664017048F690028FE0FF789AE61A
:100FCB00C39F500678A476038004E478A4F6789A3D
:100FDB0006E6C3940A4002E4F6900290E0FFC37465
:100FEB000A9FFF78A6E6C39F400678B97603800474
:100FFB00E478B9F678A606E6C3940A4002E4F678DC
:10100B00A4E6D394004017D390012AE094E8900112
:10101B0029E094034004C2018006D2018002D20170
:10102B0078B9E6D394004017D390012AE094E89066
:10103B000129E094034004C2028006D2028002D24E
:10104B000290028DE0702C9000F2F0A3F0D390018F
:10105B0039E09432900138E0940050079000F7E0AB
:10106B00B4011090028D7402F090010014F0E49022
:10107B000104F022900130E004F0C3940A4002E432
:10108B00F0900138E475F00112058AAFF0FEE4FC34
:10109B00FD7B607AEAF9F8D3120815500A900138F3
:1010AB0074EAF0A37460F09002CAE0702D900129ED
:1010BB00F0A3F090010175F00112058AAFF0FEE488
:1010CB00FCFD7B607AEAF9F8C312081550409001D9
:1010DB000174EAF0A37460F080349002CAE0B407A4
:1010EB0026900129E475F00112058AAFF0FEE4FCAD
:1010FB00FD7B607AEAF9F8C3120815500A900129B2
:10110B0074EAF0A37460F0E4900101F0A3F0900096
:10111B0034E0FEA3E07803CEC313CE13D8F97930B5
:10112B00F7EE19F79000E4E0FEA3E07803CEC313CB
:10113B00CE13D8F979B7F7EE19F7900000E0FEA3BC
:10114B00E07803CEC313CE13D8F9FF900116EEF05F
:10115B00A3EFF0900123E0FEA3E0FF9002B5E0FCCB
:10116B00A3E0FDD39FEC9E401BED9FFFEC9EFEEF9B
:10117B007803CEC313CE13D8F9FF900107EEF0A37B
:10118B00EFF08007E4900107F0A3F0900116E0FE6A
:10119B00A3E0FF7C127DED120932780C12083C9013
:1011AB00011AEEF0A3EFF0C390010AE09F90010942
:1011BB00E09E500F90011AE0FFA3E0900109CFF0E1
:1011CB00A3EFF0789AE66003021255900127E00432
:1011DB00F0D394644074900109E0FEA3E0FFD39434
:1011EB0040EE9406501FC374409FFF74069EFE9002
:1011FB000289E0FD7C001205359000EBEFF0E490E6
:10120B0000EFF08022E49000EBF090010AE024C0A4
:10121B00FF900109E034F9FE90028BE0FD7C001297
:10122B0005359000EFEFF09000EBE0D39403400313
:10123B007403F09000EFE0D3940740037407F0E4DD
:10124B00900109F0A3F0900127F0900107E0FEA3B5
:10125B00E0FF7C397D71120932780C12083C90004A
:10126B00FEEEF0A3EFF0900130E020E03D9040D493
:10127B00E0FEA3E0FFEE3395E0FDFCE47BE47A5760
:10128B00F9F81206EA780C12083C78231208D09071
:10129B000116E0FEA3E0FF900107E0FCA3E0FD12C6
:1012AB00093278461208D00213719000FEE0FCA3BD
:1012BB00E0FDE412039A7B007AC079C178451203F2
:1012CB001C5032900110E475F00112058AFEC3E543
:1012DB00F09404EE94004027E4900110F0A3F07812
:1012EB002276017859760190012F7402F012380F93
:1012FB0012353E800AE47822F6900110F0A3F0D369
:10130B009000FFE094689000FEE09410402E900156
:10131B0041E475F00112058AFEC3E5F094EEEE94FC
:10132B000240347859760190012F7403F0E4900158
:10133B0041F0A3F012380F12353E801BC3900142CF
:10134B00E09402900141E09400400CA3E024FEF0F5
:10135B00900141E034FFF01221A712204512242105
:10136B00122F4112317A900130E0FF64036008EFD5
:10137B006407600302142390011AE0FCA3E0FDE470
:10138B0012039A7B007A607906784512031C501D74
:10139B0090010BE004F0C3940A401AE4F0783C7619
:1013AB00017833760112380F12388B8008E4783CC1
:1013BB00F690010BF090011AE0FCA3E0FDE41203A0
:1013CB009AE4FBFA79FA784312031C6021401F90D0
:1013DB000133E004F0C3940A4019900105E0B40214
:1013EB00069000E87401F0E4900105F08005E490AC
:1013FB000133F0D390011BE0942690011AE0940284
:10140B0050030214BC9001057402F0E49000F4F058
:10141B00A3F0784DF60214BC900130E06405600334
:10142B000214B2200C7AD20C122A3BD37830E694F9
:10143B00D218E6940F40047F0180027F00D37861BD
:10144B00E6945A18E66480948040047E0180027E04
:10145B0000EE4FFFA200E4334F6028900120E00420
:10146B00F0C39402404BE4F090010FE0940250095A
:10147B007402F012380F12388B784F76017857764A
:10148B0001802EE4900120F0C37861E6945818E6B1
:10149B0064809480501BE490010FF07857F6801114
:1014AB00C20C122B0C800A900130E0B40103121E07
:1014BB00E2783BE6B40114E4F67841F6783D06E6B3
:1014CB00C394054006760578367601900138E070B6
:1014DB0004A3E0644670097836E67004783476012C
:1014EB00784106E6C3941E4014761EE4783DF678E8
:1014FB0036E6B4010478347601E47836F6900130A0
:10150B00E0B409069001347401F0229000F0E0B4CD
:10151B00012ED39000FCE094009000FBE09400407F
:10152B000EA3E024FFF09000FBE034FFF08011905D
:10153B0000F17401F0E49000F0F090013CE004F055
:10154B0090013CE0D394004022D3900102E094F44C
:10155B00900101E09401500E90012AE094C4900197
:10156B0029E094094005E490013CF09000F2E0FF83
:10157B00A3E0900118CFF0A3EFF0A3E0FCA3E0FDF4
:10158B00E412039AE4FBFA79FA784312031C602BFA
:10159B0040297852E6D394004021900136E475F04F
:1015AB000112058AFED3E5F09432EE94004013E469
:1015BB00900136F0A3F07851F68007E4900136F0F5
:1015CB00A3F0E490011DF09000F7E0702CC39001A4
:1015DB0039E09432900138E09400400FD390011B16
:1015EB00E0942690011AE09402500890011D7401BA
:1015FB00F080069000F77401F09000E8E064016061
:10160B00067834E6B401069001067401F0900106E9
:10161B00E06401703F90011D04F0D390011BE09436
:10162B002690011AE094024005E49000E8F0783629
:10163B00E6B40104E47834F6E4900100F09000E89D
:10164B00E070117834E6700C900106F090010CF00C
:10165B00A37428F0D390010DE0940090010CE0945A
:10166B0000401890011D7401F090010C74FFF5F00F
:10167B0012058A45F07004789F760190011DE0B445
:10168B000107E4900118F0A3F0900118E0FEA3E02D
:10169B00FF9000ECEEF0A3EFF0E4900143F090012B
:1016AB003AF09000FDF0C3EF94EBEE9401401390F1
:1016BB00011CE0700590013A04F090011C7402F0DB
:1016CB008014C39000EDE094479000ECE09401503F
:1016DB0005E490011CF090011CE0FFB4020F900197
:1016EB003AE0B4010F9001357401F08007EF7004FC
:1016FB00900135F09000F1E0B4010BE4F0900100A3
:10170B0004F09000FDF0900104E0B40107E4F090C8
:10171B0000FD04F090013AE0B40107E4F09000FD05
:10172B0004F09000FDE0B401069000FA7401F09013
:10173B00011CE070049000FAF09000FAE0701212B5
:10174B0032F67852E6D39400405CE4900135F08099
:10175B0055E49000FAF09001DBF09001D1F0A3F08A
:10176B009001DCF07851F6784EF67862F67832F626
:10177B007829F67839F6784DE6784AF6783CE678AB
:10178B0033F67822E67859F67857E6784FF6123228
:10179B00F67852E6D394004007E4900135F08006CA
:1017AB009001357401F0900135E0B40111900118EE
:1017BB00E0FEA3E0FF784BA60608A6078006E478B8
:1017CB004BF608F6C3784CE694EB18E664809481EC
:1017DB00400C9001DBE0B4010576010876EB784B09
:1017EB00E6FA08E6FBC3EA64809490400B78531248
:1017FB0008E8000003848065C3EB94EBEA648094F3
:10180B00814038784CE62415FF18E634FEFE3395FC
:10181B00E0FDFCE47B207A03F9F81206EAE47B1581
:10182B007A0EF9F8120775EF2464FFE43EFEE43DEF
:10183B00FDE43CFC78531208D08022C3784CE6942C
:10184B004718E664809481400B78531208E8000037
:10185B000064800978531208E800000000E47FEB75
:10186B00FEFDFC78531208C31206EA782B1208D03F
:10187B00D390011BE094E890011AE094034032E40A
:10188B007FE87E03FDFC78531208C31206EAC006FC
:10189B00C00790011AE0FEA3E0FFFBAA06E4F9F8EB
:1018AB00D007D00612077590011EEEF0A3EFF08063
:1018BB000D78531208B790011EEEF0A3EFF09001D4
:1018CB001EE0FEA3E0FFE4FCFD7BF57A0AF9F8C30A
:1018DB0012082B500A90011E740AF0A374F5F02223
:1018EB00C0E0C0F0C083C082C0D075D000C000C0C3
:1018FB0001C002C003C004C005C006C00790406110
:10190B00E020E703021B20904039E04440F09001B7
:10191B000E7401F09002CAE0B407359040D8A3E0F2
:10192B0025E0FF0582D5820215831582E0339000F6
:10193B0004F0A3EFF0900004E0FEA3E0FFA3E0FCB3
:10194B00A3E0FD7B141236A7900006EEF0A3EFF098
:10195B009002CAE0FF6401603FEF603C9040D4E02E
:10196B00FEA3E0FF90000EE0FCA3E0FD7B1E123611
:10197B00A790000EEEF0A3EFF09040D6E0FEA3E0B0
:10198B00FF900016E0FCA3E0FD7B0A1236A7900047
:10199B0016EEF0A3EFF0800790000EE4F0A3F090AA
:1019AB0040BAE0FEA3E0FF90001EE0FCA3E0FD7B4D
:1019BB000A1236A790001EEEF0A3EFF09040B8E0AD
:1019CB00FEA3E0FF900020E0FCA3E0FD7B0A1236B3
:1019DB00A7900020EEF0A3EFF0900306E0FEA3E04B
:1019EB007803C333CE33CED8F9FF9002B5E0FCA316
:1019FB00E0FD7B321236A79002B5EEF0A3EFF0902C
:101A0B000304E0FEA3E07803C333CE33CED8F9FF53
:101A1B009000DEEEF0A3EFF09000DEE0FEA3E0FF1F
:101A2B00900000E0FCA3E0FD7B3C1236A790000089
:101A3B00EEF0A3EFF0900302E0FEA3E07803C333D4
:101A4B00CE33CED8F9FF9000E4EEF0A3EFF0900088
:101A5B00E4E0FEA3E0FF9001AEE0FCA3E0FD7B140D
:101A6B001236A79001AEEEF0A3EFF090030EE0FE5E
:101A7B00A3E07803C333CE33CED8F9FF900034E024
:101A8B00FCA3E0FD7B0A1236A7900034EEF0A3EF27
:101A9B00F0D390020BE0940090020AE09400400C0B
:101AAB00A3E024FFF090020AE034FFF0D3787EE647
:101ABB00940018E69400400708E61618700116907B
:101ACB0000A2E0D394004003E014F0D3900031E087
:101ADB009400900030E09400400FA3E024FFF090BE
:101AEB000030E034FFF0122D289002CAE0B4071B3F
:101AFB00D3900033E09400900032E09400400CA3AC
:101B0B00E024FFF0900032E034FFF01235AB904050
:101B1B0061E0547FF0539F7F539FBF539FDFD007EC
:101B2B00D006D005D004D003D002D001D000D0D045
:101B3B00D082D083D0F0D0E0329002CAE0FF6407AD
:101B4B006008EF64086003021D42900002E0FEA3F0
:101B5B00E0FFEE6003021D42EF1460771470030286
:101B6B001C9724026003021D429040D4E0FEA3E0C8
:101B7B00D39422EE648094825003021D42904094D1
:101B8B007408F0A3E4F0A3F0A374A3F075F5227529
:101B9B00F4D0E4F5F7F5F6900002F0A37402F090A0
:101BAB004092E0FFA3E0900008CFF0A3EFF090008D
:101BBB0008E0FEA3E0FF8EED8FEC75EF0675EE6689
:101BCB0075F30075F2289000407402F090003F749A
:101BDB0005F02278461208B7AB07AA06A905A80498
:101BEB00C004C005C006C007782B1208B7D003D0BD
:101BFB0002D001D000C3EF9BFFEE9AFEED99FDECF6
:101C0B0098FC9002741208DCE4FFFEFDFC90027459
:101C1B00E0F8A3E0F9A3E0FAA3E0FBC31208154038
:101C2B0023E47F107E27FDFC900274E0F8A3E0A371
:101C3B00E0A3E01208154032900274120901000073
:101C4B00271080267FF07ED87DFF7CFF900274E00A
:101C5B00F8A3E0F9A3E0FAA3E0FBD3120815500AAE
:101C6B00900274120901FFFFD8F0900274E0A3E018
:101C7B00A3E0FEA3E0FF90027CEEF0A3EFF07C006C
:101C8B007D03120523123846122EC622900026E43D
:101C9B0075F00112058AFEC3E5F09405EE94005031
:101CAB0003021D42E4900026F0A3F090000EE0FE2C
:101CBB00A3E0FF7828E69FFF18E69EFE3395E0FD34
:101CCB00FC9002781208DCE47F987E3AFDFC9002CF
:101CDB0078E0F8A3E0F9A3E0FAA3E0FBD312081530
:101CEB00400C90027E743AF0A37498F0803B7F68AE
:101CFB007EC57DFF7CFF900278E0F8A3E0F9A3E0BE
:101D0B00FAA3E0FBC3120815500C90027E74C5F0C9
:101D1B00A37468F08013900278E0A3E0A3E0FFA324
:101D2B00E090027ECFF0A3EFF090027EE0FEA3E006
:101D3B00FF123846122EC6229002CAE0B40C0040A5
:101D4B0003021EE1901D56F8282873021D7A021D0E
:101D5B00B5021DC8021DE8021DFE021E14021E2B39
:101D6B00021E2F021E5D021EE1021EE1021EC9129F
:101D7B00357590025AE064016003021EE19000D5B4
:101D8B00E064016003021EE1900030E07002A3E00A
:101D9B006003021EE19002CA04F0904082E4F0A3BB
:101DAB00F0A3F0A3F0A3F0A3F0221237F29002CA33
:101DBB007402F090003014F0A3742CF022122881DE
:101DCB00900030E07002A3E06003021EE1C2FF90BE
:101DDB0002CA7403F0E4900030F0A3F0229002CA20
:101DEB007404F09002C7E054DFF074FF90000CF025
:101DFB00A3F022E490000CF0A3F09002CA7405F05B
:101E0B00900030E4F0A304F022122FB9900030E0E0
:101E1B007002A3E06003021EE19002CA7406F02276
:101E2B00122BDD229000D5E06003021EE19002CA66
:101E3B007408F0900030E4F0A374C8F0904092E482
:101E4B00F0A3F0C2FF904062E054DFF09040A0E4BA
:101E5B00F022900030E07002A3E0707AC2FF904055
:101E6B00A0F0904062E054DFF090405EE0FFA3E012
:101E7B00904058CFF0A3EFF090405CC083C082E05D
:101E8B00FFA3E054C0D082D083CFF0A3EFF09040FB
:101E9B005CC083C082E0FFA3E04415D082D083CF27
:101EAB00F0A3EFF0904062E054F7F0D2FF9002CA3B
:101EBB00740BF09000307401F0A37490F02290003A
:101ECB0030E07002A3E0700EC2FF904062E054DF7E
:101EDB00F0E49002CAF0229001DBE06003021FCC19
:101EEB009040D4E0FEA3E0D3784096EE1896504392
:101EFB009001E5E004F0C39405400E7405F0E49006
:101F0B0001D0F09001EEF0A3F09001D9E475F0014F
:101F1B0012058AFEC3E5F0942CEE94015003021FC8
:101F2B00F39001D97401F0A3742CF0E49001DCF070
:101F3B00021FF39001D0E004F0C39405400E74052A
:101F4B00F0E49001E5F09001D9F0A3F09001DCE012
:101F5B0070259001EE75F00112058AFED3E5F09421
:101F6B00C8EE940040359001EEE4F0A374C8F090F5
:101F7B0001DB7401F080249001EEE475F001120591
:101F8B008AFED3E5F0940AEE9400400F9001EEE444
:101F9B00F0A3740AF09001DB7401F09001DBE064B4
:101FAB00017045A3E004F0D39400403CE4F09001B1
:101FBB00DBF0785176019001037403F012380F8037
:101FCB00279001DBE0B401209001D1E475F0011200
:101FDB00058AFEC3E5F09432EE9400400BE49001C9
:101FEB00D1F0A3F09001DBF09040D4E0FEA3E0D35E
:101FFB0094C7EE9471403B90012AE094F490012930
:10200B00E0940140349001E6E475F00112058AFE7C
:10201B00D3E5F09464EE9400401FE49001E6F0A346
:10202B00F0785176019001037402F012380F1235DB
:10203B003E22E49001E6F0A3F0229002CAE064078E
:10204B0060030221A6D39000C6E094E89000C5E09F
:10205B00648094835045A3E004F070069000C5E0C3
:10206B0004F0D390000FE0947190000EE064809424
:10207B00DC4028900017E09414900016E094005078
:10208B001AE49000C5F0A3F07890760178327601CF
:10209B0090012B04F012380F12353ED39000C0E0A4
:1020AB0094E89000BFE064809483400302215EA318
:1020BB00E004F070069000BFE004F09000C2E00472
:1020CB00F070069000C1E004F0C39000C2E094DC15
:1020DB009000C1E06480948550030221657405F083
:1020EB00A374DCF0900017E09405900016E09400C8
:1020FB0050429000BEE004F070069000BDE004F08A
:10210B00C39000BEE094149000BDE06480948040C6
:10211B0049E49000C1F0A3F09000BDF0A3F07890DB
:10212B0076027832760190012B7402F012380F127E
:10213B00353E8026D39000BEE094009000BDE06455
:10214B008094804015A3E024FFF09000BDE034FFA5
:10215B00F08007E49000BDF0A3F0900002E0700265
:10216B00A3E070379000C4E004F070069000C3E069
:10217B0004F0C39000C4E094909000C3E06480949A
:10218B00814018E4F0A3F0789076037832760190D2
:10219B00012B7403F012380F12353E229040CAE027
:1021AB00FFA3E09001D3CFF0A3EFF09040C8E0FF86
:1021BB00A3E09001D5CFF0A3EFF09001D3E0FAA309
:1021CB00E0FBC3E49BFFE49AFEA3E0FCA3E0FDC3AA
:1021DB00EF9DFFEE9CA3F0A3EFF0C3EA6480948025
:1021EB0040119001D3E0FEA3E0FF7882A60608A67B
:1021FB000780149001D3E0FEA3E0FFC3E49FFFE44C
:10220B009E7882F608A607C3EC6480948040097818
:10221B0084A60408A605800CC3E49DFFE49C788487
:10222B00F608A6079001D7E0FEA3E0FFC3EE64809B
:10223B00948040097886A60608A607800CC3E49F05
:10224B00FFE49E7886F608A6077882E6FE08E6FF8E
:10225B009001EAEEF0A3EFF008E6FC08E6FDC3EF11
:10226B009DEE9C50089001EAECF0A3EDF07886E629
:10227B00FE08E6FFC39001EBE09F9001EAE09E5061
:10228B0005EEF0A3EFF09001EAE0FEA3E0FFC390B0
:10229B0001EDE09FEE6480F89001ECE064809850D3
:1022AB0005EEF0A3EFF0D3EF94C1EE648094C04041
:1022BB002B90012AE094F4900129E09401402A78B4
:1022CB008106E694084022782276017859760190AF
:1022DB00012F7401F012380F12353E22E47822F6EA
:1022EB007881E6D3940040011622904062E054DFDF
:1022FB00F0E04420F09040A0E4F0A3F0904090F088
:10230B00A3F0A3F0A3F09040CCF0A3F09040AAF080
:10231B00A3F09040A8F0A3F09040ACF09040AE0436
:10232B00F0A3746CF09040AD7402F09040B0743F29
:10233B00F0A374FFF0A374C0F0A37401F0A3747E38
:10234B00F0A374B7F0A37481F0A37449F090408CA0
:10235B00745CF0A37428F0A37415F0A37489F09047
:10236B004088742DF0A37437F0A3E4F0A3F09040F1
:10237B00807409F0A37424F090407EE4F0A37449B8
:10238B00F090407C7428F0A37435F09040A3E4F0F7
:10239B009040A1E0547FF0904078746CF0A374CB24
:1023AB00F0A3E4F0A374C4F09040A0E04401F090DB
:1023BB0000DAE0B40109904062E04440F0800790FD
:1023CB004062E054BFF0904062E054BFF03006042E
:1023DB00E04440F09040A0E054F3F09040A274F041
:1023EB00F09040A57409F09040A1E054DFF053D673
:1023FB009F90025AE0B401169040A1E054F3F09084
:10240B000252E0FFA3E09040A6CFF0A3EFF0904084
:10241B0062E04408F0229002CAE0640760030225E0
:10242B0047D39000A8E094E89000A7E09403500DE8
:10243B00A3E004F070069000A7E004F022900016D1
:10244B00E0FEA3E0FFC3940AEE940040199040D441
:10245B00E0FCA3E0D39491EC64809480403DEF9436
:10246B0028EE940050359000AAE004F0700690001E
:10247B00A9E004F0C39000AAE0940A9000A9E094AC
:10248B00004033E4F0A3F07893760190012804F038
:10249B007862F612380F12353E801BD39000AAE0FB
:1024AB0094009000A9E09400400CA3E024FFF0906E
:1024BB0000A9E034FFF090000EE0FEA3E0FFC39410
:1024CB0071EE6480949C400BD3EF948DEE648094FA
:1024DB00E3404E9000ACE004F070069000ABE004DB
:1024EB00F0C39000ACE094089000ABE09400404C3B
:1024FB00E4F0A3F07893760290000FE094719000D3
:10250B000EE06480949C50089001287402F08006C1
:10251B009001287403F07862760112380F12353E61
:10252B0022D39000ACE094009000ABE09400400C00
:10253B00A3E024FFF09000ABE034FFF022E4900224
:10254B00CBF0A3F09002CBE475F0011205A0FEC313
:10255B00E5F09410EE942740EB7F30EFC394FF50DF
:10256B0007A807E4F60F80F3E4FFFED3EF94FFEE2A
:10257B009402500D8F828E83E4F00FEF70010E806A
:10258B00EA78FFE4F6122786E49002CAF090008BFB
:10259B00F012266912372B1237B51238A21234C437
:1025AB0012334E12382B12303112385E12329A20FF
:1025BB00951C209319D20B789C760178A87601781C
:1025CB00A2760178B27601E478AEF678B8F61237D7
:1025DB005012367812387090025AE0702212296726
:1025EB0090025AE0B401F0E4900258F0A3F090028C
:1025FB0052E0FFA3E0900123CFF0A3EFF080D8903F
:10260B00010EE0B401D1E4F012107F1209BF90016A
:10261B0034E0B40105E4F0121516784BE6FE08E63B
:10262B00FFC394EBEE6480948140109000D574014D
:10263B00F09000C9E4F0A304F08016C3EF9447EECA
:10264B0064809481500BE49000D5F09000C9F0A306
:10265B00F0121D43121B44122E400225E222C2AF80
:10266B009002ABE0600302278504F0E4900297F040
:10267B00900297E0C394045023E0FF2400FDE43460
:10268B003E8D82F583E493FE74B12FF582E4340220
:10269B00F583EEF0900297E004F080D49002B1E065
:1026AB0064A560199002ACE4F0A304F012387E121A
:1026BB0031DE9002AE7402F0A37408F0229002AEE9
:1026CB007401F0900297F0900297E0FFD3941E50A4
:1026DB0025EF75F004A42400FFE5F0343E8F82F55E
:1026EB0083E493B4A508900297E09002AEF09002B9
:1026FB0097E004F080D19002AEE0FD25E025E0FFED
:10270B00A3F0FC9002B4E0FE9002B3E07A00240048
:10271B00FFEA3E9002ACF0A3EFF0ECFF7E00240149
:10272B00FBEE343E8B82F583E493789CF6EF240228
:10273B00FFEE343E8F82F583E49378A2F6EC24030C
:10274B00FFEE343E8F82F583E49378AEF6EDC394BF
:10275B001E401C9002ADE004F070069002ACE00449
:10276B00F01231DE9002AE7402F0A37408F02290E6
:10277B0002AEE004F0A3E02404F0227E007F397D5A
:10278B00007B017A00799012095F7E007F0C7D003F
:10279B007B007A00798E12095F7E007F0D7D007BB6
:1027AB00007A00798112095F7E007F097D007B0131
:1027BB007A00796012095F7E007F457D007B017A8C
:1027CB0000790012095F7E007F087D007B017A0093
:1027DB0079DE12095F7E007F157D007B017A02791D
:1027EB004612095F90024812090100003FFF900258
:1027FB004E12090100003FFF900254120901000024
:10280B003FFF7E007F077D007B017A0079841209F0
:10281B005F9000877413F0A37487F07E007F0F7DA9
:10282B00007B017A0079C912095F9000D3E4F0A311
:10283B0004F07E007F1B7D00FB7A00794512095F57
:10284B007E007F397D007B017A01794412095F7E1E
:10285B00007F097D007B017A00797B12095FE49090
:10286B0002C7F09000DDF09000DAF09000D87414FD
:10287B00F0A37478F0229002C7E020E134E0440228
:10288B00F090405EE0FCA3E0FDE412039A7BCD7A6E
:10289B00CC79CC783D1201761203D3904058EEF0F0
:1028AB00A3EFF0904062E054F7F0E490002EF0A319
:1028BB00F0C3900031E0942C900030E0940150294B
:1028CB0090002EE07002A3E0701F90002EF0A30486
:1028DB00F090405CC083C082E0FFA3E04401D08253
:1028EB00D083CFF0A3EFF0D2FFD3900031E094C8A8
:1028FB00900030E09400502A90002EE07004A3E08A
:10290B006401701E90002EF0A37402F090405CC026
:10291B0083C082E0FFA3E04404D082D083CFF0A336
:10292B00EFF0D3900031E09464900030E0940050CD
:10293B002A90002EE07004A3E06402701E90002E1B
:10294B00F0A37403F090405CC083C082E0FFA3E06F
:10295B004410D082D083CFF0A3EFF02290025AE044
:10296B006003022A3A904039E04440F0904039E04D
:10297B0020E6F9900254E0F8A3E0F9A3E0FAA3E013
:10298B00FBC000C001C002C003900308E0540FFE5F
:10299B00A3E07803C333CE33CED8F9FFE4FCFDD0EC
:1029AB0003D002D001D000EB2FFFEA3EFEED39FD44
:1029BB00EC38FC9002541208DC900254E0FCA3E0CB
:1029CB00FDA3E0FEA3E0FF780412084F900252EE45
:1029DB00F0A3EFF0A3E0FCA3E0FDA3E0FEA3E0FF78
:1029EB00C006C007900252E0FEA3E0FFFBAA06EA76
:1029FB003395E0F9F8D007D006C3EF9BFFEE9AFEB4
:102A0B00ED99FDEC98FCA31208DC900259E004F060
:102A1B007006900258E004F0D3900259E094D090E5
:102A2B000258E064809487400690025A7401F022A9
:102A3B00782FE6FE08E6FFD39437EE940D400302A1
:102A4B002B04EF9421EE940A402318E6FC08E6FDD4
:102A5B0090029D740DF0A37437F07B217A0A7F32BC
:102A6B007E001235E17860A60608A60722782FE6CD
:102A7B00FC08E6FDD394BAEC9406401D90029D74BD
:102A8B000AF0A37421F07BBA7A067F4B7E001235D5
:102A9B00E17860A60608A60722782FE6FC08E6FD7B
:102AAB00D39415EC9404401D90029D7406F0A3740E
:102ABB00BAF07B157A047F647E001235E17860A64C
:102ACB000608A60722782FE6FC08E6FDD3946AECED
:102ADB009402401D90029D7404F0A37415F07B6A60
:102AEB007A027F7D7E001235E17860A60608A60784
:102AFB00227860760008767D227860760008761959
:102B0B002278B6E6FE08E6FFD394E7EE940C40037A
:102B1B00022BD5EF9496EE9409402318E6FC08E6B9
:102B2B00FD90029D740CF0A374E7F07B967A097FFD
:102B3B00327E001235E178ACA60608A6072278B6DD
:102B4B00E6FC08E6FDD39411EC9406401D90029D23
:102B5B007409F0A37496F07B117A067F4B7E0012FA
:102B6B0035E178ACA60608A6072278B6E6FC08E69F
:102B7B00FDD39478EC9403401D90029D7406F0A352
:102B8B007411F07B787A037F647E001235E178ACA8
:102B9B00A60608A6072278B6E6FC08E6FDD394EB5A
:102BAB00EC9401401D90029D7403F0A37478F07BAC
:102BBB00EB7A017F7D7E001235E178ACA60608A684
:102BCB00072278AC760008767D2278AC7600087602
:102BDB0019229002C7E030E403022C6CE04410F0A1
:102BEB009040CCE4F0A3F09040CCE0FEA3E024CDE9
:102BFB00FFEE34ECA3F0A3EFF09040CEE0FFA3E0A8
:102C0B009002C8CFF0A3EFF0904090E4F0A3F090C7
:102C1B000008740AF0A37471F0904094740CF0A344
:102C2B0074CCF0A3E4F0A37462F09040747402F0DF
:102C3B00A37447F0A3E4F0A37402F0904082E4F095
:102C4B00A3740AF0A3E4F0A37448F0A3E4F0A37414
:102C5B00B6F09040A0E04440F0E054DFF0E04410C8
:102C6B00F0900030E4F0A37478F09002CA7407F08F
:102C7B00900008E0FFA3E0904092CFF0A3EFF0228A
:102C8B00C0E0C0F0C083C082C0D075D000C000C00F
:102C9B0001C002C003C004C005C006C007E5D730A1
:102CAB00E7609002CAE06404600C12380F12353EE4
:102CBB00784E76018049C2FF9001A2E0FF25E02407
:102CCB008EF582E43401F583E5ABF0A3E5AAF0EFD2
:102CDB0025E0248EF582E43401F583E0FEA3E0FFCA
:102CEB009001A2E025E0247EF582E43401F583EE29
:102CFB00F0A3EFF0E4F5ABF5AA9001A2E004F053DA
:102D0B00D77FD007D006D005D004D003D002D00196
:102D1B00D000D0D0D082D083D0F0D0E0329002CA95
:102D2B00E064076003022DB3900030E0FEA3E0FFE8
:102D3B00B42C16EEB401129040747403F0A3746BB0
:102D4B00F0A3E4F0A37405F022EF64C84E70129068
:102D5B0040747404F0A3748EF0A3E4F0A3740AF02F
:102D6B0022EF64964E70129040747406F0A374D6E2
:102D7B00F0A3E4F0A37417F022EF64644E7012908A
:102D8B004074740AF0A37441F0A3E4F0A37434F01C
:102D9B0022EF64324E7011904074740DF0A374AC3A
:102DAB00F0A3E4F0A3745EF022787FE4F6D8FD750F
:102DBB0081D6022DFB022548E493A3F8E493A340AC
:102DCB0003F68001F208DFF48029E493A3F854079B
:102DDB00240CC8C333C4540F4420C8834004F45696
:102DEB00800146F6DFE4800B0102040810204080CE
:102DFB00903701E47E019360BCA3FF543F30E5099B
:102E0B00541FFEE493A360010ECF54C025E060A8CD
:102E1B0040B8E493A3FAE493A3F8E493A3C8C58260
:102E2B00C8CAC583CAF0A3C8C582C8CAC583CADFCE
:102E3B00E9DEE780BE900106E0B4010E9002CAE025
:102E4B0070089002AAE0700204F09002AAE06401FC
:102E5B00703E7402F0200B38C2AF9002AEE0D394F8
:102E6B001E401D9002ADE004F070069002ACE00431
:102E7B00F01231DE9002AE7402F0A37408F0800EF3
:102E8B001233EC9002AEE004F0A3E02404F0D2AFD6
:102E9B009002AAE0B40223900106E0701D9002AAF2
:102EAB00F0300B16789C760178A8760178A2760123
:102EBB0078B2760178AEF678B8F62290408EE0FEC6
:102ECB00A3E0C39496EE648094AA502790408EE0C2
:102EDB00FFA3E090001BCFF0A3EFF0E0240AF090EB
:102EEB00001BE03400F0E0FFA3E090408ECFF0A396
:102EFB00EFF02290408EE0FEA3E0D394AAEE648024
:102F0B0094AA402790408EE0FFA3E090001BCFF0E7
:102F1B00A3EFF0E024F6F090001BE034FFF0E0FFAD
:102F2B00A3E090408ECFF0A3EFF02290408E742A56
:102F3B00F0A374A0F02290011EE0FEA3E0FF90012D
:102F4B0031E0FCA3E0FDC39FEC9E501CE0240AF093
:102F5B00900131E03400F0D3A3E09F900131E09E6B
:102F6B00404BEEF0A3EFF022D3ED9FEC9E403ED30F
:102F7B00900132E0940A900131E09400400EA3E0FE
:102F8B0024F6F0900131E034FFF08007E49001313A
:102F9B00F0A3F090011EE0FEA3E0FFC3900132E02E
:102FAB009F900131E09E5005EEF0A3EFF0229002CE
:102FBB00C7E020E270E04404F01222F5904090E468
:102FCB00F0A3F0A3F0A3F0A37410F0A3E4F0A3F02C
:102FDB00A37428F09040747402F0A37447F0A3E438
:102FEB00F0A37402F09040CCE4F0A3F09040CCE05E
:102FFB00FEA3E02400FFEE34F0A3F0A3EFF090402B
:10300B00CCE0FFA3E09002C8CFF0A3EFF090405CC0
:10301B00C083C082E0FFA3E0443FD082D083CFF0D7
:10302B00A3EFF0D2FF22D20F7F0112343790405220
:10303B00E04420F0904039E04480F090404FE04471
:10304B0010F0E4FFFEC3EF94D0EE940750070FEFA0
:10305B0070010E80F0904052E04410F0904051E02F
:10306B0044B8F0904036C083C082E0FFA3E0449E9A
:10307B00D082D083CFF0A3EFF0904036C083C082D4
:10308B00E04430FFA3E0D082D083CFF0A3EFF090E9
:10309B0040387433F0A3E054FCF0228F828E83E02F
:1030AB00F5C78F828E83A3E0F5C68F828E83A3A391
:1030BB00E0F5C58F828E83A3A3A3E0F5C48D828C2C
:1030CB0083E0F5CDAE04AF058F828E83A3E0F5CC04
:1030DB0043C101E5C130E703D38001C350F57B0148
:1030EB007A027991E5C785C6F012069E740229F91A
:1030FB00E43AFAE5C585C4F012069E900291E0FC15
:10310B00A3E0FDA3E0FEA3E0FF227E007F397D005C
:10311B007B017A00799012095F7E007F457D007BF1
:10312B00017A00790012095F7E007F077D007B0129
:10313B007A00798412095F9000877413F0A3748767
:10314B00F07E007F247D007B017A0179AA12095F52
:10315B00E49002C7F090008C1209013F333333E443
:10316B00900242F09000327403F0A374E8F02278DE
:10317B005EE6FE08E6FFC37828E69FEE6480F5F076
:10318B0018E6648095F0502008742426F618E4366F
:10319B00F6D308E69FEE6480F5F018E6648095F0B0
:1031AB004030A60608A60722782874DC26F6187489
:1031BB00FF36F6C308E69FEE6480F5F018E66480F0
:1031CB0095F0500E785EE6FE08E6FF7827A6060817
:1031DB00A607227F007E3E1236157DA57F007E3E20
:1031EB001236477D5A7F017E3E1236479002ACE085
:1031FB00A3E0FD7F027E3E1236479002ACE0FD7FDE
:10320B00037E3E1236477DA57F047E3E12364778FD
:10321B009CE6FD7F057E3E12364778A2E6FD7F06D3
:10322B007E3E12364778AEE6FD7F077E3E1236476E
:10323B0022A807E6F5C7E804F8E6F5C6EF2402F87E
:10324B00E6F5C5EF2403F8E6F5C4A805E6F5CDE8E9
:10325B0004F8E6F5CC43C101E5C130E703D38001A7
:10326B00C350F57B017A027991E5C785C6F012064A
:10327B009E740229F9E43AFAE5C585C4F012069E5C
:10328B00900291E0FCA3E0FDA3E0FEA3E0FF2290FF
:10329B00405E7401F0A3741DF0A37410F0904062B3
:1032AB00E04404F090405CC083C082A3E0543FFF35
:1032BB00D082D083E4F0A3EFF053F8C0904061E0EC
:1032CB0054EFF0E054FC4402F090405AE4F0A37445
:1032DB008EF0D2BFC2BE904061E04404F0A3E04444
:1032EB0080F0E054EFF0E04401F0227832E6FFC4C6
:1032FB00333354C0FF7862E6FEC433333354802F2C
:10330B00FF7851E6FEC43354E02FFF784FE6FEC43E
:10331B0054F02FFF784AE6FE33333354F82FFF78FF
:10332B0033E6FE25E025E02FFF7859E6FE25E02F5A
:10333B00784E267952F77839E6FF25E078292679F9
:10334B0035F722904053E04420F0E04440F043FF37
:10335B0040D2B643FF80D2B743FC01D28043FC027C
:10336B00D28143FC04D28243FC08D28343FD01A3E8
:10337B00E04401F0D29043FD02E04402F0D29153BD
:10338B00FD7FE04480F053FDDFE04420F053FDF778
:10339B00E04408F022C0E0C0F0C083C082C0D0750A
:1033AB00D000C000C001C002C003C004C005C006ED
:1033BB00C007904061E030E40D1235031221A79055
:1033CB004061E054EFF0D007D006D005D004D00315
:1033DB00D002D001D000D0D0D082D083D0F0D0E0BA
:1033EB00329002AFE02400FFE4343EFE7DA512369E
:1033FB0047009002AFE02401FFE4343EFE789CE6E8
:10340B00FD123647009002AFE02402FFE4343EFE8B
:10341B0078A2E6FD123647009002AFE02403FFE4EA
:10342B00343EFE78AEE6FD1236470022EF146013F1
:10343B0014601B1460232403702690404FE0543F0C
:10344B00F0801D90404FE0543F4440F0801290407C
:10345B004FE0543F4480F0800790404FE044C0F071
:10346B0090404FE054EFFF300F047E1080027E003F
:10347B00EF4E90404FF022C0E0C0F0C083C082C03E
:10348B00D075D000C000C001C002C003C004C0058D
:10349B00C006C00712380F12353E784E7601D007A2
:1034AB00D006D005D004D003D002D001D000D0D0AC
:1034BB00D082D083D0F0D0E032904051E04480F005
:1034CB0053D69FE04440F043FE40904035E054BF5C
:1034DB00F090404B74F8F0904035E04480F043D6C8
:1034EB000853D9FBE5D954E74408F5D9E5D954FC81
:1034FB004403F5D943D6102290005FE0B401147F4A
:10350B004B7D5312323C900055EEF0A3EFF0E4905C
:10351B00005FF0900018E0B401187E007F107C0073
:10352B007D161230A6900019EEF0A3EFF0E4900098
:10353B0018F0229000F0E0703004F0C390012AE004
:10354B0094C4900129E09409501C90013CE0C39471
:10355B000050139000FBE07002A3E0700C9000FB96
:10356B00F0A3740AF02212388B229002C7E020E0FD
:10357B002EE04401F0904062E054DFF0C2FF904037
:10358B0036C083C082E0FFA3E0449FD082D083CFBC
:10359B00F0A3EFF0E490025AF0900258F0A3F0225F
:1035AB009002CAE0B4032EC390021BE094FA90027F
:1035BB001AE09400500DA3E004F0700690021AE09C
:1035CB0004F022E4900214F0A3F090021AF0A3F09E
:1035DB0090022104F022900297EEF0A3EFF0C3EDDE
:1035EB009BFFEC9AFE7C007D19120523C390029E73
:1035FB00E09BFD90029DE09AFC120535C39002986A
:10360B00E09FFF900297E09EFE22A2AF920FC2AF07
:10361B00C3EF9480EE943F501475850375845A75EF
:10362B00841F008F828E8374A5F0758508A20F927C
:10363B00AFE58530E4037F01227F0022A2AF920F1A
:10364B00C2AFC3EF9480EE943F5013758501758420
:10365B005A75841F008F828E83EDF0758508A20F3B
:10366B0092AFE58530E4037F01227F002278447618
:10367B000008765A7842760008760A783F76670813
:10368B00761C785A1208E800023668783776630899
:10369B00768E9001147410F0A3E4F022900295EE54
:1036AB00F0A3EFF0AF038FDD900295E0FEA3E0FFF8
:1036BB008EDF8FDEAE04AF058EE78FE643F9010098
:1036CB0000000000AFE6AEE72275EF0375EE337531
:1036DB00F30075F208E4F5EBF5EA53F9FB43F90255
:1036EB0075F52275F4D0F5F7F5F600000000F5ED51
:1036FB00F5EC53F9FD224802B70000000000000072
:10370B000044008C3F333333C10BC181C182410173
:10371B00F0004101F100C10E010A004101A90000B6
:10372B00789CE6FF6005C394514004789C76017841
:10373B009CE6FFD39429500578A8A60722C37452A0
:10374B009F78A8F62253FEFE904055E054FEF09071
:10375B004051E054FEF053D4FE43D301C28CC28BD4
:10376B00C2BDD2BCD2AAD2AF22C0D075D000C0008D
:10377B00C28A783B760178A3760153D4FEA20192DC
:10378B0091A2029290D000D0D032C0E0E59D30E7FC
:10379B0003539D7FE59D30E603539DBFE59D30E5CB
:1037AB0006539DFE539DDFD0E03278A2E6C394080A
:1037BB004002E4F678A2E6FFD39404500578B2A653
:1037CB000722C374089F78B2F622C0E0E5A930E760
:1037DB000353A97FE5A930E60353A9BFE5A930E55B
:1037EB000353A9DFD0E032904036C083C082E0FFA4
:1037FB00A3E054EED082D083CFF0A3EFF0123115BB
:10380B001236D422C2FF904062E054DFF0E4900203
:10381B00CAF0900135F0784BF608F6900100F022D3
:10382B0090404FE04401F0904051E04480F0A3E021
:10383B004403F090404EE04401F0228EEB8FEA43BC
:10384B00F902000000000000904092E5EDF0A3E5C6
:10385B00ECF02253D77FE5D5543F4440F5D5D2C782
:10386B00D2C6D2AF22C2CDD2CCD2AF904061E0440F
:10387B0040F022789C762978A27601E478AEF62285
:10388B00E49000F0F09000FBF0A3F022309802C21D
:0E389B0098309902C2993278AEE678B8F622DB
:00000001FF
